{
  "_format": "hh-sol-artifact-1",
  "contractName": "MemberShip",
  "sourceName": "contracts/MemberShip.sol",
  "abi": [
    {
      "inputs": [
        {
          "internalType": "address",
          "name": "_gnosis",
          "type": "address"
        },
        {
          "internalType": "address",
          "name": "_oracle",
          "type": "address"
        }
      ],
      "stateMutability": "nonpayable",
      "type": "constructor"
    },
    {
      "anonymous": false,
      "inputs": [
        {
          "indexed": true,
          "internalType": "address",
          "name": "owner",
          "type": "address"
        },
        {
          "indexed": true,
          "internalType": "address",
          "name": "approved",
          "type": "address"
        },
        {
          "indexed": true,
          "internalType": "uint256",
          "name": "tokenId",
          "type": "uint256"
        }
      ],
      "name": "Approval",
      "type": "event"
    },
    {
      "anonymous": false,
      "inputs": [
        {
          "indexed": true,
          "internalType": "address",
          "name": "owner",
          "type": "address"
        },
        {
          "indexed": true,
          "internalType": "address",
          "name": "operator",
          "type": "address"
        },
        {
          "indexed": false,
          "internalType": "bool",
          "name": "approved",
          "type": "bool"
        }
      ],
      "name": "ApprovalForAll",
      "type": "event"
    },
    {
      "anonymous": false,
      "inputs": [
        {
          "indexed": false,
          "internalType": "address",
          "name": "account",
          "type": "address"
        }
      ],
      "name": "Paused",
      "type": "event"
    },
    {
      "anonymous": false,
      "inputs": [
        {
          "indexed": true,
          "internalType": "bytes32",
          "name": "role",
          "type": "bytes32"
        },
        {
          "indexed": true,
          "internalType": "bytes32",
          "name": "previousAdminRole",
          "type": "bytes32"
        },
        {
          "indexed": true,
          "internalType": "bytes32",
          "name": "newAdminRole",
          "type": "bytes32"
        }
      ],
      "name": "RoleAdminChanged",
      "type": "event"
    },
    {
      "anonymous": false,
      "inputs": [
        {
          "indexed": true,
          "internalType": "bytes32",
          "name": "role",
          "type": "bytes32"
        },
        {
          "indexed": true,
          "internalType": "address",
          "name": "account",
          "type": "address"
        },
        {
          "indexed": true,
          "internalType": "address",
          "name": "sender",
          "type": "address"
        }
      ],
      "name": "RoleGranted",
      "type": "event"
    },
    {
      "anonymous": false,
      "inputs": [
        {
          "indexed": true,
          "internalType": "bytes32",
          "name": "role",
          "type": "bytes32"
        },
        {
          "indexed": true,
          "internalType": "address",
          "name": "account",
          "type": "address"
        },
        {
          "indexed": true,
          "internalType": "address",
          "name": "sender",
          "type": "address"
        }
      ],
      "name": "RoleRevoked",
      "type": "event"
    },
    {
      "anonymous": false,
      "inputs": [
        {
          "indexed": true,
          "internalType": "address",
          "name": "from",
          "type": "address"
        },
        {
          "indexed": true,
          "internalType": "address",
          "name": "to",
          "type": "address"
        },
        {
          "indexed": true,
          "internalType": "uint256",
          "name": "tokenId",
          "type": "uint256"
        }
      ],
      "name": "Transfer",
      "type": "event"
    },
    {
      "anonymous": false,
      "inputs": [
        {
          "indexed": false,
          "internalType": "address",
          "name": "account",
          "type": "address"
        }
      ],
      "name": "Unpaused",
      "type": "event"
    },
    {
      "inputs": [],
      "name": "DEFAULT_ADMIN_ROLE",
      "outputs": [
        {
          "internalType": "bytes32",
          "name": "",
          "type": "bytes32"
        }
      ],
      "stateMutability": "view",
      "type": "function"
    },
    {
      "inputs": [],
      "name": "MINTER_ROLE",
      "outputs": [
        {
          "internalType": "bytes32",
          "name": "",
          "type": "bytes32"
        }
      ],
      "stateMutability": "view",
      "type": "function"
    },
    {
      "inputs": [],
      "name": "PAUSER_ROLE",
      "outputs": [
        {
          "internalType": "bytes32",
          "name": "",
          "type": "bytes32"
        }
      ],
      "stateMutability": "view",
      "type": "function"
    },
    {
      "inputs": [
        {
          "internalType": "address",
          "name": "_user",
          "type": "address"
        },
        {
          "internalType": "address",
          "name": "_friendAddress",
          "type": "address"
        }
      ],
      "name": "addUserFriend",
      "outputs": [
        {
          "internalType": "address[]",
          "name": "",
          "type": "address[]"
        }
      ],
      "stateMutability": "nonpayable",
      "type": "function"
    },
    {
      "inputs": [
        {
          "internalType": "address",
          "name": "to",
          "type": "address"
        },
        {
          "internalType": "uint256",
          "name": "tokenId",
          "type": "uint256"
        }
      ],
      "name": "approve",
      "outputs": [],
      "stateMutability": "nonpayable",
      "type": "function"
    },
    {
      "inputs": [
        {
          "internalType": "address",
          "name": "owner",
          "type": "address"
        }
      ],
      "name": "balanceOf",
      "outputs": [
        {
          "internalType": "uint256",
          "name": "",
          "type": "uint256"
        }
      ],
      "stateMutability": "view",
      "type": "function"
    },
    {
      "inputs": [
        {
          "internalType": "uint256",
          "name": "_oldUserIndex",
          "type": "uint256"
        }
      ],
      "name": "deleteFromMemberList",
      "outputs": [
        {
          "internalType": "address[]",
          "name": "",
          "type": "address[]"
        }
      ],
      "stateMutability": "nonpayable",
      "type": "function"
    },
    {
      "inputs": [
        {
          "internalType": "address",
          "name": "_user",
          "type": "address"
        },
        {
          "internalType": "uint256",
          "name": "_oldFriendIndex",
          "type": "uint256"
        }
      ],
      "name": "deleteUserFriend",
      "outputs": [
        {
          "internalType": "address[]",
          "name": "",
          "type": "address[]"
        }
      ],
      "stateMutability": "nonpayable",
      "type": "function"
    },
    {
      "inputs": [
        {
          "internalType": "address",
          "name": "_user",
          "type": "address"
        },
        {
          "internalType": "address",
          "name": "_userToFind",
          "type": "address"
        }
      ],
      "name": "findUserFriendIndex",
      "outputs": [
        {
          "internalType": "int256",
          "name": "",
          "type": "int256"
        }
      ],
      "stateMutability": "view",
      "type": "function"
    },
    {
      "inputs": [
        {
          "internalType": "address",
          "name": "_userToFind",
          "type": "address"
        }
      ],
      "name": "findUserMemberListIndex",
      "outputs": [
        {
          "internalType": "int256",
          "name": "",
          "type": "int256"
        }
      ],
      "stateMutability": "view",
      "type": "function"
    },
    {
      "inputs": [
        {
          "internalType": "uint256",
          "name": "tokenId",
          "type": "uint256"
        }
      ],
      "name": "getApproved",
      "outputs": [
        {
          "internalType": "address",
          "name": "",
          "type": "address"
        }
      ],
      "stateMutability": "view",
      "type": "function"
    },
    {
      "inputs": [
        {
          "internalType": "bytes32",
          "name": "role",
          "type": "bytes32"
        }
      ],
      "name": "getRoleAdmin",
      "outputs": [
        {
          "internalType": "bytes32",
          "name": "",
          "type": "bytes32"
        }
      ],
      "stateMutability": "view",
      "type": "function"
    },
    {
      "inputs": [
        {
          "internalType": "bytes32",
          "name": "role",
          "type": "bytes32"
        },
        {
          "internalType": "address",
          "name": "account",
          "type": "address"
        }
      ],
      "name": "grantRole",
      "outputs": [],
      "stateMutability": "nonpayable",
      "type": "function"
    },
    {
      "inputs": [
        {
          "internalType": "bytes32",
          "name": "role",
          "type": "bytes32"
        },
        {
          "internalType": "address",
          "name": "account",
          "type": "address"
        }
      ],
      "name": "hasRole",
      "outputs": [
        {
          "internalType": "bool",
          "name": "",
          "type": "bool"
        }
      ],
      "stateMutability": "view",
      "type": "function"
    },
    {
      "inputs": [
        {
          "internalType": "address",
          "name": "owner",
          "type": "address"
        },
        {
          "internalType": "address",
          "name": "operator",
          "type": "address"
        }
      ],
      "name": "isApprovedForAll",
      "outputs": [
        {
          "internalType": "bool",
          "name": "",
          "type": "bool"
        }
      ],
      "stateMutability": "view",
      "type": "function"
    },
    {
      "inputs": [
        {
          "internalType": "address",
          "name": "",
          "type": "address"
        }
      ],
      "name": "isOwner",
      "outputs": [
        {
          "internalType": "bool",
          "name": "",
          "type": "bool"
        }
      ],
      "stateMutability": "view",
      "type": "function"
    },
    {
      "inputs": [
        {
          "internalType": "address",
          "name": "",
          "type": "address"
        },
        {
          "internalType": "uint256",
          "name": "",
          "type": "uint256"
        }
      ],
      "name": "isOwnerOf",
      "outputs": [
        {
          "internalType": "bool",
          "name": "",
          "type": "bool"
        }
      ],
      "stateMutability": "view",
      "type": "function"
    },
    {
      "inputs": [],
      "name": "maxCap",
      "outputs": [
        {
          "internalType": "uint256",
          "name": "",
          "type": "uint256"
        }
      ],
      "stateMutability": "view",
      "type": "function"
    },
    {
      "inputs": [
        {
          "internalType": "uint256",
          "name": "",
          "type": "uint256"
        }
      ],
      "name": "memberList",
      "outputs": [
        {
          "internalType": "address",
          "name": "",
          "type": "address"
        }
      ],
      "stateMutability": "view",
      "type": "function"
    },
    {
      "inputs": [],
      "name": "membershipUri",
      "outputs": [
        {
          "internalType": "string",
          "name": "",
          "type": "string"
        }
      ],
      "stateMutability": "view",
      "type": "function"
    },
    {
      "inputs": [],
      "name": "name",
      "outputs": [
        {
          "internalType": "string",
          "name": "",
          "type": "string"
        }
      ],
      "stateMutability": "view",
      "type": "function"
    },
    {
      "inputs": [
        {
          "internalType": "uint256",
          "name": "tokenId",
          "type": "uint256"
        }
      ],
      "name": "ownerOf",
      "outputs": [
        {
          "internalType": "address",
          "name": "",
          "type": "address"
        }
      ],
      "stateMutability": "view",
      "type": "function"
    },
    {
      "inputs": [],
      "name": "pause",
      "outputs": [],
      "stateMutability": "nonpayable",
      "type": "function"
    },
    {
      "inputs": [],
      "name": "paused",
      "outputs": [
        {
          "internalType": "bool",
          "name": "",
          "type": "bool"
        }
      ],
      "stateMutability": "view",
      "type": "function"
    },
    {
      "inputs": [
        {
          "internalType": "bytes32",
          "name": "role",
          "type": "bytes32"
        },
        {
          "internalType": "address",
          "name": "account",
          "type": "address"
        }
      ],
      "name": "renounceRole",
      "outputs": [],
      "stateMutability": "nonpayable",
      "type": "function"
    },
    {
      "inputs": [
        {
          "internalType": "address",
          "name": "_user",
          "type": "address"
        }
      ],
      "name": "retrieveFriendsAddress",
      "outputs": [
        {
          "internalType": "address[]",
          "name": "",
          "type": "address[]"
        }
      ],
      "stateMutability": "view",
      "type": "function"
    },
    {
      "inputs": [],
      "name": "retrieveMembersAddress",
      "outputs": [
        {
          "internalType": "address[]",
          "name": "",
          "type": "address[]"
        }
      ],
      "stateMutability": "view",
      "type": "function"
    },
    {
      "inputs": [
        {
          "internalType": "address[]",
          "name": "_userToRetrieve",
          "type": "address[]"
        }
      ],
      "name": "retrieveMembersInfos",
      "outputs": [
        {
          "components": [
            {
              "internalType": "address",
              "name": "userAddress",
              "type": "address"
            },
            {
              "internalType": "string",
              "name": "userName",
              "type": "string"
            },
            {
              "internalType": "string",
              "name": "email",
              "type": "string"
            },
            {
              "internalType": "string",
              "name": "twitterUserName",
              "type": "string"
            },
            {
              "internalType": "int256",
              "name": "tokenId",
              "type": "int256"
            },
            {
              "internalType": "address[]",
              "name": "friendsAddress",
              "type": "address[]"
            }
          ],
          "internalType": "struct MemberShip.UserInfos[]",
          "name": "",
          "type": "tuple[]"
        }
      ],
      "stateMutability": "view",
      "type": "function"
    },
    {
      "inputs": [
        {
          "internalType": "bytes32",
          "name": "role",
          "type": "bytes32"
        },
        {
          "internalType": "address",
          "name": "account",
          "type": "address"
        }
      ],
      "name": "revokeRole",
      "outputs": [],
      "stateMutability": "nonpayable",
      "type": "function"
    },
    {
      "inputs": [
        {
          "internalType": "address",
          "name": "_to",
          "type": "address"
        },
        {
          "internalType": "string",
          "name": "_userName",
          "type": "string"
        },
        {
          "internalType": "string",
          "name": "_email",
          "type": "string"
        },
        {
          "internalType": "string",
          "name": "_twitterUserName",
          "type": "string"
        }
      ],
      "name": "safeMint",
      "outputs": [
        {
          "components": [
            {
              "internalType": "uint256",
              "name": "experience",
              "type": "uint256"
            },
            {
              "internalType": "uint256",
              "name": "questAccepted",
              "type": "uint256"
            },
            {
              "internalType": "uint256",
              "name": "questCompleted",
              "type": "uint256"
            },
            {
              "internalType": "uint256",
              "name": "daoProposalCreated",
              "type": "uint256"
            },
            {
              "internalType": "uint256",
              "name": "daoProposalCreatedAccepted",
              "type": "uint256"
            },
            {
              "internalType": "uint256",
              "name": "daoProposalVoted",
              "type": "uint256"
            },
            {
              "internalType": "uint256",
              "name": "challengeReceived",
              "type": "uint256"
            },
            {
              "internalType": "uint256",
              "name": "friendChallenged",
              "type": "uint256"
            }
          ],
          "internalType": "struct MemberShip.UserProfil",
          "name": "",
          "type": "tuple"
        }
      ],
      "stateMutability": "nonpayable",
      "type": "function"
    },
    {
      "inputs": [
        {
          "internalType": "address",
          "name": "from",
          "type": "address"
        },
        {
          "internalType": "address",
          "name": "to",
          "type": "address"
        },
        {
          "internalType": "uint256",
          "name": "tokenId",
          "type": "uint256"
        }
      ],
      "name": "safeTransferFrom",
      "outputs": [],
      "stateMutability": "nonpayable",
      "type": "function"
    },
    {
      "inputs": [
        {
          "internalType": "address",
          "name": "from",
          "type": "address"
        },
        {
          "internalType": "address",
          "name": "to",
          "type": "address"
        },
        {
          "internalType": "uint256",
          "name": "tokenId",
          "type": "uint256"
        },
        {
          "internalType": "bytes",
          "name": "_data",
          "type": "bytes"
        }
      ],
      "name": "safeTransferFrom",
      "outputs": [],
      "stateMutability": "nonpayable",
      "type": "function"
    },
    {
      "inputs": [
        {
          "internalType": "address",
          "name": "operator",
          "type": "address"
        },
        {
          "internalType": "bool",
          "name": "approved",
          "type": "bool"
        }
      ],
      "name": "setApprovalForAll",
      "outputs": [],
      "stateMutability": "nonpayable",
      "type": "function"
    },
    {
      "inputs": [
        {
          "internalType": "uint256",
          "name": "_newMaxCap",
          "type": "uint256"
        }
      ],
      "name": "setMaxCap",
      "outputs": [
        {
          "internalType": "uint256",
          "name": "",
          "type": "uint256"
        }
      ],
      "stateMutability": "nonpayable",
      "type": "function"
    },
    {
      "inputs": [
        {
          "internalType": "bytes4",
          "name": "interfaceId",
          "type": "bytes4"
        }
      ],
      "name": "supportsInterface",
      "outputs": [
        {
          "internalType": "bool",
          "name": "",
          "type": "bool"
        }
      ],
      "stateMutability": "view",
      "type": "function"
    },
    {
      "inputs": [],
      "name": "symbol",
      "outputs": [
        {
          "internalType": "string",
          "name": "",
          "type": "string"
        }
      ],
      "stateMutability": "view",
      "type": "function"
    },
    {
      "inputs": [
        {
          "internalType": "uint256",
          "name": "tokenId",
          "type": "uint256"
        }
      ],
      "name": "tokenURI",
      "outputs": [
        {
          "internalType": "string",
          "name": "",
          "type": "string"
        }
      ],
      "stateMutability": "view",
      "type": "function"
    },
    {
      "inputs": [
        {
          "internalType": "address",
          "name": "from",
          "type": "address"
        },
        {
          "internalType": "address",
          "name": "to",
          "type": "address"
        },
        {
          "internalType": "uint256",
          "name": "tokenId",
          "type": "uint256"
        }
      ],
      "name": "transferFrom",
      "outputs": [],
      "stateMutability": "nonpayable",
      "type": "function"
    },
    {
      "inputs": [],
      "name": "unpause",
      "outputs": [],
      "stateMutability": "nonpayable",
      "type": "function"
    },
    {
      "inputs": [
        {
          "internalType": "address",
          "name": "_user",
          "type": "address"
        },
        {
          "internalType": "string",
          "name": "_newEmail",
          "type": "string"
        }
      ],
      "name": "updateEmail",
      "outputs": [
        {
          "internalType": "string",
          "name": "",
          "type": "string"
        }
      ],
      "stateMutability": "nonpayable",
      "type": "function"
    },
    {
      "inputs": [
        {
          "internalType": "address",
          "name": "_user",
          "type": "address"
        },
        {
          "internalType": "string",
          "name": "_newTwitterUserName",
          "type": "string"
        }
      ],
      "name": "updateTwitterUserName",
      "outputs": [
        {
          "internalType": "string",
          "name": "",
          "type": "string"
        }
      ],
      "stateMutability": "nonpayable",
      "type": "function"
    },
    {
      "inputs": [
        {
          "internalType": "address",
          "name": "_user",
          "type": "address"
        },
        {
          "internalType": "string",
          "name": "_newUserName",
          "type": "string"
        }
      ],
      "name": "updateUserName",
      "outputs": [
        {
          "internalType": "string",
          "name": "",
          "type": "string"
        }
      ],
      "stateMutability": "nonpayable",
      "type": "function"
    },
    {
      "inputs": [
        {
          "internalType": "uint256",
          "name": "_tokenId",
          "type": "uint256"
        },
        {
          "internalType": "address",
          "name": "_user",
          "type": "address"
        },
        {
          "components": [
            {
              "internalType": "uint256",
              "name": "experience",
              "type": "uint256"
            },
            {
              "internalType": "uint256",
              "name": "questAccepted",
              "type": "uint256"
            },
            {
              "internalType": "uint256",
              "name": "questCompleted",
              "type": "uint256"
            },
            {
              "internalType": "uint256",
              "name": "daoProposalCreated",
              "type": "uint256"
            },
            {
              "internalType": "uint256",
              "name": "daoProposalCreatedAccepted",
              "type": "uint256"
            },
            {
              "internalType": "uint256",
              "name": "daoProposalVoted",
              "type": "uint256"
            },
            {
              "internalType": "uint256",
              "name": "challengeReceived",
              "type": "uint256"
            },
            {
              "internalType": "uint256",
              "name": "friendChallenged",
              "type": "uint256"
            }
          ],
          "internalType": "struct MemberShip.UserProfil",
          "name": "_newProfil",
          "type": "tuple"
        }
      ],
      "name": "updateUserProfil",
      "outputs": [
        {
          "components": [
            {
              "internalType": "uint256",
              "name": "experience",
              "type": "uint256"
            },
            {
              "internalType": "uint256",
              "name": "questAccepted",
              "type": "uint256"
            },
            {
              "internalType": "uint256",
              "name": "questCompleted",
              "type": "uint256"
            },
            {
              "internalType": "uint256",
              "name": "daoProposalCreated",
              "type": "uint256"
            },
            {
              "internalType": "uint256",
              "name": "daoProposalCreatedAccepted",
              "type": "uint256"
            },
            {
              "internalType": "uint256",
              "name": "daoProposalVoted",
              "type": "uint256"
            },
            {
              "internalType": "uint256",
              "name": "challengeReceived",
              "type": "uint256"
            },
            {
              "internalType": "uint256",
              "name": "friendChallenged",
              "type": "uint256"
            }
          ],
          "internalType": "struct MemberShip.UserProfil",
          "name": "",
          "type": "tuple"
        }
      ],
      "stateMutability": "nonpayable",
      "type": "function"
    },
    {
      "inputs": [
        {
          "internalType": "uint256",
          "name": "",
          "type": "uint256"
        },
        {
          "internalType": "address",
          "name": "",
          "type": "address"
        }
      ],
      "name": "userProfil",
      "outputs": [
        {
          "internalType": "uint256",
          "name": "experience",
          "type": "uint256"
        },
        {
          "internalType": "uint256",
          "name": "questAccepted",
          "type": "uint256"
        },
        {
          "internalType": "uint256",
          "name": "questCompleted",
          "type": "uint256"
        },
        {
          "internalType": "uint256",
          "name": "daoProposalCreated",
          "type": "uint256"
        },
        {
          "internalType": "uint256",
          "name": "daoProposalCreatedAccepted",
          "type": "uint256"
        },
        {
          "internalType": "uint256",
          "name": "daoProposalVoted",
          "type": "uint256"
        },
        {
          "internalType": "uint256",
          "name": "challengeReceived",
          "type": "uint256"
        },
        {
          "internalType": "uint256",
          "name": "friendChallenged",
          "type": "uint256"
        }
      ],
      "stateMutability": "view",
      "type": "function"
    },
    {
      "inputs": [
        {
          "internalType": "address",
          "name": "",
          "type": "address"
        }
      ],
      "name": "usersInfos",
      "outputs": [
        {
          "internalType": "address",
          "name": "userAddress",
          "type": "address"
        },
        {
          "internalType": "string",
          "name": "userName",
          "type": "string"
        },
        {
          "internalType": "string",
          "name": "email",
          "type": "string"
        },
        {
          "internalType": "string",
          "name": "twitterUserName",
          "type": "string"
        },
        {
          "internalType": "int256",
          "name": "tokenId",
          "type": "int256"
        }
      ],
      "stateMutability": "view",
      "type": "function"
    }
  ],
  "bytecode": "0x60806040523480156200001157600080fd5b5060405162004e7a38038062004e7a8339810160408190526200003491620002e4565b604080518082018252600e81526d0506f4c2d4d656d626572736869760941b602080830191825283518085019094526004845263504f4c4d60e01b908401528151919291620000869160009162000221565b5080516200009c90600190602084019062000221565b50506007805460ff1916905550620000b66000836200017c565b620000c36000826200017c565b620000d06000306200017c565b620000fc7f65d7a28e3265b37a6474929f336521b332c1681b933f6cb9f3376673440d862a836200017c565b620001287f9f2df0fed2c77648de5860a4cc508cd0818c85b8b8a1ab4ceeef8d981c8956a6836200017c565b6001600f556040805180820190915260168082527f557269546573744e6565644772617068697374653c33000000000000000000006020909201918252620001739160109162000221565b50505062000359565b60008281526008602090815260408083206001600160a01b038516845290915290205460ff166200021d5760008281526008602090815260408083206001600160a01b03851684529091529020805460ff19166001179055620001dc3390565b6001600160a01b0316816001600160a01b0316837f2f8788117e7eff1d82e926ec794901d17c78024a50270940304540a733656f0d60405160405180910390a45b5050565b8280546200022f906200031c565b90600052602060002090601f0160209004810192826200025357600085556200029e565b82601f106200026e57805160ff19168380011785556200029e565b828001600101855582156200029e579182015b828111156200029e57825182559160200191906001019062000281565b50620002ac929150620002b0565b5090565b5b80821115620002ac5760008155600101620002b1565b80516001600160a01b0381168114620002df57600080fd5b919050565b60008060408385031215620002f857600080fd5b6200030383620002c7565b91506200031360208401620002c7565b90509250929050565b600181811c908216806200033157607f821691505b602082108114156200035357634e487b7160e01b600052602260045260246000fd5b50919050565b614b1180620003696000396000f3fe608060405234801561001057600080fd5b50600436106102ff5760003560e01c80635c975abb1161019c578063a217fddf116100ee578063c87b56dd11610097578063dcc9cad311610071578063dcc9cad3146107b3578063e63ab1e9146107c6578063e985e9c5146107ed57600080fd5b8063c87b56dd14610766578063d539139314610779578063d547741f146107a057600080fd5b8063b88d4fde116100c8578063b88d4fde14610712578063c5222e3714610725578063c5b8f7721461073857600080fd5b8063a217fddf146106e4578063a22cb465146106ec578063b307fc6d146106ff57600080fd5b80638456cb591161015057806395d89b411161012a57806395d89b41146106b6578063989645cf146106be5780639f70756d146106d157600080fd5b80638456cb59146105ca57806391d14854146105d2578063942ee8ba1461061857600080fd5b806370a082311161018157806370a082311461059157806372fd7742146105a4578063763265de146105b757600080fd5b80635c975abb146105735780636352211e1461057e57600080fd5b8063248a9ca31161025557806342842e0e1161020957806353d831b1116101e357806353d831b11461053457806355b3b8eb1461053c5780635a9524201461054f57600080fd5b806342842e0e146105065780634843ae77146105195780634fbfd7a81461052c57600080fd5b80632f54bf6e1161023a5780632f54bf6e146104c857806336568abe146104eb5780633f4ba83a146104fe57600080fd5b8063248a9ca3146104925780632f2ff15d146104b557600080fd5b8063081812fc116102b75780631059a8ef116102915780631059a8ef1461045557806323548b8b1461046857806323b872dd1461047f57600080fd5b8063081812fc146103f5578063095ea7b31461042d5780630ea5e4191461044257600080fd5b806305345858116102e857806305345858146103a057806306d3aa7a146103c057806306fdde03146103e057600080fd5b806301ffc9a71461030457806303a80dfb1461032c575b600080fd5b610317610312366004613fec565b610836565b60405190151581526020015b60405180910390f35b61033f61033a366004614170565b610847565b6040516103239190600061010082019050825182526020830151602083015260408301516040830152606083015160608301526080830151608083015260a083015160a083015260c083015160c083015260e083015160e083015292915050565b6103b36103ae366004614209565b610c4f565b604051610323919061437d565b6103d36103ce366004614483565b611021565b604051610323919061449c565b6103e86111a7565b60405161032391906144af565b610408610403366004614483565b611239565b60405173ffffffffffffffffffffffffffffffffffffffff9091168152602001610323565b61044061043b3660046144c2565b611313565b005b6103e86104503660046144ec565b6114a0565b6103d361046336600461453a565b611601565b610471600f5481565b604051908152602001610323565b61044061048d366004614555565b611694565b6104716104a0366004614483565b60009081526008602052604090206001015490565b6104406104c3366004614591565b611735565b6103176104d636600461453a565b600d6020526000908152604090205460ff1681565b6104406104f9366004614591565b61175a565b61044061180d565b610440610514366004614555565b611823565b6103e86105273660046144ec565b61183e565b6103e861190d565b6103d361199b565b6103d361054a3660046145bd565b611a09565b61056261055d36600461453a565b611ade565b6040516103239594939291906145e7565b60075460ff16610317565b61040861058c366004614483565b611cbc565b61047161059f36600461453a565b611d6e565b6104716105b23660046145bd565b611e3c565b6104716105c5366004614483565b611f19565b610440611f2f565b6103176105e0366004614591565b600091825260086020908152604080842073ffffffffffffffffffffffffffffffffffffffff93909316845291905290205460ff1690565b61067b610626366004614591565b600b602052816000526040600020602052806000526040600020600091509150508060000154908060010154908060020154908060030154908060040154908060050154908060060154908060070154905088565b604080519889526020890197909752958701949094526060860192909252608085015260a084015260c083015260e082015261010001610323565b6103e8611f42565b6103d36106cc3660046144c2565b611f51565b61033f6106df36600461464f565b61213b565b610471600081565b6104406106fa36600461470d565b6122ec565b61040861070d366004614483565b6122f7565b610440610720366004614749565b61232e565b61047161073336600461453a565b6123d6565b6103176107463660046144c2565b600a60209081526000928352604080842090915290825290205460ff1681565b6103e8610774366004614483565b612476565b6104717f9f2df0fed2c77648de5860a4cc508cd0818c85b8b8a1ab4ceeef8d981c8956a681565b6104406107ae366004614591565b612481565b6103e86107c13660046144ec565b6124a6565b6104717f65d7a28e3265b37a6474929f336521b332c1681b933f6cb9f3376673440d862a81565b6103176107fb3660046145bd565b73ffffffffffffffffffffffffffffffffffffffff918216600090815260056020908152604080832093909416825291909152205460ff1690565b600061084182612575565b92915050565b61088f60405180610100016040528060008152602001600081526020016000815260200160008152602001600081526020016000815260200160008152602001600081525090565b3360009081527f5eff886ea0ce6ca488a3d6e336d6c0f75f46d19b42c06ce5ee98e42c96d256c7602052604090205460ff16158015610913575073ffffffffffffffffffffffffffffffffffffffff851660009081527f5eff886ea0ce6ca488a3d6e336d6c0f75f46d19b42c06ce5ee98e42c96d256c7602052604090205460ff16155b156109915761092133611d6e565b600f541015610991576040517f08c379a000000000000000000000000000000000000000000000000000000000815260206004820152601c60248201527f526563656976657220486173205265616368204d6178204c696d69740000000060448201526064015b60405180910390fd5b600061099c60095490565b6000818152600b6020908152604080832073ffffffffffffffffffffffffffffffffffffffff8b1684528252808320600c909252909120919250906109e5600980546001019055565b6109ef88846125cb565b610a838360108054610a00906147b9565b80601f0160208091040260200160405190810160405280929190818152602001828054610a2c906147b9565b8015610a795780601f10610a4e57610100808354040283529160200191610a79565b820191906000526020600020905b815481529060010190602001808311610a5c57829003601f168201915b50505050506125e5565b73ffffffffffffffffffffffffffffffffffffffff88166000818152600a602090815260408083208784528252808320805460017fffffffffffffffffffffffffffffffffffffffffffffffffffffffffffffff009182168117909255858552600d84529190932080549091168317905583547fffffffffffffffffffffffff00000000000000000000000000000000000000001690921783558851610b2f92918401918a0190613f25565b508551610b459060028301906020890190613f25565b508451610b5b9060038301906020880190613f25565b506004908101839055600191829055600e80548084019091557fbb7b4a454dc3493923482f07822329ed19e8244eff582cc204f8554c3620c3fd0180547fffffffffffffffffffffffff00000000000000000000000000000000000000001673ffffffffffffffffffffffffffffffffffffffff8a169081179091556000938452600b6020908152604080862092865291815293819020815161010081018352815481529381015494840194909452600284015490830152600383015460608301528201546080820152600582015460a0820152600682015460c082015260079091015460e082015290505b949350505050565b60606000825167ffffffffffffffff811115610c6d57610c6d614032565b604051908082528060200260200182016040528015610ced57816020015b610cda6040518060c00160405280600073ffffffffffffffffffffffffffffffffffffffff16815260200160608152602001606081526020016060815260200160008152602001606081525090565b815260200190600190039081610c8b5790505b50905060005b835181101561101a576000600c6000868481518110610d1457610d14614807565b602002602001015173ffffffffffffffffffffffffffffffffffffffff1673ffffffffffffffffffffffffffffffffffffffff1681526020019081526020016000209050806040518060c00160405290816000820160009054906101000a900473ffffffffffffffffffffffffffffffffffffffff1673ffffffffffffffffffffffffffffffffffffffff1673ffffffffffffffffffffffffffffffffffffffff168152602001600182018054610dca906147b9565b80601f0160208091040260200160405190810160405280929190818152602001828054610df6906147b9565b8015610e435780601f10610e1857610100808354040283529160200191610e43565b820191906000526020600020905b815481529060010190602001808311610e2657829003601f168201915b50505050508152602001600282018054610e5c906147b9565b80601f0160208091040260200160405190810160405280929190818152602001828054610e88906147b9565b8015610ed55780601f10610eaa57610100808354040283529160200191610ed5565b820191906000526020600020905b815481529060010190602001808311610eb857829003601f168201915b50505050508152602001600382018054610eee906147b9565b80601f0160208091040260200160405190810160405280929190818152602001828054610f1a906147b9565b8015610f675780601f10610f3c57610100808354040283529160200191610f67565b820191906000526020600020905b815481529060010190602001808311610f4a57829003601f168201915b505050505081526020016004820154815260200160058201805480602002602001604051908101604052809291908181526020018280548015610fe057602002820191906000526020600020905b815473ffffffffffffffffffffffffffffffffffffffff168152600190910190602001808311610fb5575b505050505081525050838381518110610ffb57610ffb614807565b602002602001018190525050808061101290614865565b915050610cf3565b5092915050565b6060600061102e816126b5565b600e805461103e9060019061489e565b8154811061104e5761104e614807565b600091825260209091200154600e805473ffffffffffffffffffffffffffffffffffffffff909216918590811061108757611087614807565b9060005260206000200160006101000a81548173ffffffffffffffffffffffffffffffffffffffff021916908373ffffffffffffffffffffffffffffffffffffffff160217905550600e8054806110e0576110e06148b5565b600082815260209081902082017fffffffffffffffffffffffffffffffffffffffffffffffffffffffffffffffff90810180547fffffffffffffffffffffffff0000000000000000000000000000000000000000169055909101909155600e805460408051828502810185019091528181529283018282801561119957602002820191906000526020600020905b815473ffffffffffffffffffffffffffffffffffffffff16815260019091019060200180831161116e575b505050505091505b50919050565b6060600080546111b6906147b9565b80601f01602080910402602001604051908101604052809291908181526020018280546111e2906147b9565b801561122f5780601f106112045761010080835404028352916020019161122f565b820191906000526020600020905b81548152906001019060200180831161121257829003601f168201915b5050505050905090565b60008181526002602052604081205473ffffffffffffffffffffffffffffffffffffffff166112ea576040517f08c379a000000000000000000000000000000000000000000000000000000000815260206004820152602c60248201527f4552433732313a20617070726f76656420717565727920666f72206e6f6e657860448201527f697374656e7420746f6b656e00000000000000000000000000000000000000006064820152608401610988565b5060009081526004602052604090205473ffffffffffffffffffffffffffffffffffffffff1690565b600061131e82611cbc565b90508073ffffffffffffffffffffffffffffffffffffffff168373ffffffffffffffffffffffffffffffffffffffff1614156113dc576040517f08c379a000000000000000000000000000000000000000000000000000000000815260206004820152602160248201527f4552433732313a20617070726f76616c20746f2063757272656e74206f776e6560448201527f72000000000000000000000000000000000000000000000000000000000000006064820152608401610988565b3373ffffffffffffffffffffffffffffffffffffffff82161480611405575061140581336107fb565b611491576040517f08c379a000000000000000000000000000000000000000000000000000000000815260206004820152603860248201527f4552433732313a20617070726f76652063616c6c6572206973206e6f74206f7760448201527f6e6572206e6f7220617070726f76656420666f7220616c6c00000000000000006064820152608401610988565b61149b83836126bf565b505050565b73ffffffffffffffffffffffffffffffffffffffff8083166000818152600c60205260409020546060921614611532576040517f08c379a000000000000000000000000000000000000000000000000000000000815260206004820152601560248201527f55736572204e6f742041637475616c204f776e657200000000000000000000006044820152606401610988565b73ffffffffffffffffffffffffffffffffffffffff83166000908152600c602090815260409091208351909161156f916002840191860190613f25565b805461157a906147b9565b80601f01602080910402602001604051908101604052809291908181526020018280546115a6906147b9565b80156115f35780601f106115c8576101008083540402835291602001916115f3565b820191906000526020600020905b8154815290600101906020018083116115d657829003601f168201915b505050505091505092915050565b73ffffffffffffffffffffffffffffffffffffffff81166000908152600c602090815260409182902060050180548351818402810184019094528084526060939283018282801561168857602002820191906000526020600020905b815473ffffffffffffffffffffffffffffffffffffffff16815260019091019060200180831161165d575b50505050509050919050565b61169e338261275f565b61172a576040517f08c379a000000000000000000000000000000000000000000000000000000000815260206004820152603160248201527f4552433732313a207472616e736665722063616c6c6572206973206e6f74206f60448201527f776e6572206e6f7220617070726f7665640000000000000000000000000000006064820152608401610988565b61149b8383836128ce565b600082815260086020526040902060010154611750816126b5565b61149b8383612b40565b73ffffffffffffffffffffffffffffffffffffffff811633146117ff576040517f08c379a000000000000000000000000000000000000000000000000000000000815260206004820152602f60248201527f416363657373436f6e74726f6c3a2063616e206f6e6c792072656e6f756e636560448201527f20726f6c657320666f722073656c6600000000000000000000000000000000006064820152608401610988565b6118098282612c34565b5050565b6000611818816126b5565b611820612cef565b50565b61149b8383836040518060200160405280600081525061232e565b73ffffffffffffffffffffffffffffffffffffffff8083166000818152600c602052604090205460609216146118d0576040517f08c379a000000000000000000000000000000000000000000000000000000000815260206004820152601560248201527f55736572204e6f742041637475616c204f776e657200000000000000000000006044820152606401610988565b73ffffffffffffffffffffffffffffffffffffffff83166000908152600c602090815260409091208351909161156f916003840191860190613f25565b6010805461191a906147b9565b80601f0160208091040260200160405190810160405280929190818152602001828054611946906147b9565b80156119935780601f1061196857610100808354040283529160200191611993565b820191906000526020600020905b81548152906001019060200180831161197657829003601f168201915b505050505081565b6060600e80548060200260200160405190810160405280929190818152602001828054801561122f57602002820191906000526020600020905b815473ffffffffffffffffffffffffffffffffffffffff1681526001909101906020018083116119d5575050505050905090565b73ffffffffffffffffffffffffffffffffffffffff8281166000818152600c6020908152604080832060050180546001810182558185528385200180547fffffffffffffffffffffffff0000000000000000000000000000000000000000169688169690961790955592909152825482518183028101830190935280835260609391830182828015611ad157602002820191906000526020600020905b815473ffffffffffffffffffffffffffffffffffffffff168152600190910190602001808311611aa6575b5050505050905092915050565b600c602052600090815260409020805460018201805473ffffffffffffffffffffffffffffffffffffffff9092169291611b17906147b9565b80601f0160208091040260200160405190810160405280929190818152602001828054611b43906147b9565b8015611b905780601f10611b6557610100808354040283529160200191611b90565b820191906000526020600020905b815481529060010190602001808311611b7357829003601f168201915b505050505090806002018054611ba5906147b9565b80601f0160208091040260200160405190810160405280929190818152602001828054611bd1906147b9565b8015611c1e5780601f10611bf357610100808354040283529160200191611c1e565b820191906000526020600020905b815481529060010190602001808311611c0157829003601f168201915b505050505090806003018054611c33906147b9565b80601f0160208091040260200160405190810160405280929190818152602001828054611c5f906147b9565b8015611cac5780601f10611c8157610100808354040283529160200191611cac565b820191906000526020600020905b815481529060010190602001808311611c8f57829003601f168201915b5050505050908060040154905085565b60008181526002602052604081205473ffffffffffffffffffffffffffffffffffffffff1680610841576040517f08c379a000000000000000000000000000000000000000000000000000000000815260206004820152602960248201527f4552433732313a206f776e657220717565727920666f72206e6f6e657869737460448201527f656e7420746f6b656e00000000000000000000000000000000000000000000006064820152608401610988565b600073ffffffffffffffffffffffffffffffffffffffff8216611e13576040517f08c379a000000000000000000000000000000000000000000000000000000000815260206004820152602a60248201527f4552433732313a2062616c616e636520717565727920666f7220746865207a6560448201527f726f2061646472657373000000000000000000000000000000000000000000006064820152608401610988565b5073ffffffffffffffffffffffffffffffffffffffff1660009081526003602052604090205490565b6000805b73ffffffffffffffffffffffffffffffffffffffff84166000908152600c6020526040902060050154811015611ef05773ffffffffffffffffffffffffffffffffffffffff8481166000908152600c6020526040902060050180549185169183908110611eaf57611eaf614807565b60009182526020909120015473ffffffffffffffffffffffffffffffffffffffff161415611ede579050610841565b80611ee881614865565b915050611e40565b507fffffffffffffffffffffffffffffffffffffffffffffffffffffffffffffffff9392505050565b600080611f25816126b5565b5050600f81905590565b6000611f3a816126b5565b611820612dd0565b6060600180546111b6906147b9565b73ffffffffffffffffffffffffffffffffffffffff82166000908152600c60205260409020600501805460609190611f8b9060019061489e565b81548110611f9b57611f9b614807565b600091825260208083209091015473ffffffffffffffffffffffffffffffffffffffff8681168452600c9092526040909220600501805491909216919084908110611fe857611fe8614807565b600091825260208083209190910180547fffffffffffffffffffffffff00000000000000000000000000000000000000001673ffffffffffffffffffffffffffffffffffffffff9485161790559185168152600c90915260409020600501805480612055576120556148b5565b6000828152602080822083017fffffffffffffffffffffffffffffffffffffffffffffffffffffffffffffffff90810180547fffffffffffffffffffffffff000000000000000000000000000000000000000016905590920190925573ffffffffffffffffffffffffffffffffffffffff85168252600c815260409182902060050180548351818402810184019094528084529091830182828015611ad15760200282019190600052602060002090815473ffffffffffffffffffffffffffffffffffffffff168152600190910190602001808311611aa6575050505050905092915050565b61218360405180610100016040528060008152602001600081526020016000815260200160008152602001600081526020016000815260200160008152602001600081525090565b600061218e816126b5565b6000858152600b6020908152604080832073ffffffffffffffffffffffffffffffffffffffff8816845290915290208351156121c957835181555b6020840151156121de57602084015160018201555b6040840151156121f357604084015160028201555b60608401511561220857606084015160038201555b60808401511561221d57608084015160048201555b60a0840151156122325760a084015160058201555b60c0840151156122475760c084015160068201555b60e08401511561225c5760e084015160078201555b505050600092835250600b6020908152604080842073ffffffffffffffffffffffffffffffffffffffff93909316845291815291819020815161010081018352815481526001820154938101939093526002810154918301919091526003810154606083015260048101546080830152600581015460a0830152600681015460c08301526007015460e082015290565b611809338383612e90565b600e818154811061230757600080fd5b60009182526020909120015473ffffffffffffffffffffffffffffffffffffffff16905081565b612338338361275f565b6123c4576040517f08c379a000000000000000000000000000000000000000000000000000000000815260206004820152603160248201527f4552433732313a207472616e736665722063616c6c6572206973206e6f74206f60448201527f776e6572206e6f7220617070726f7665640000000000000000000000000000006064820152608401610988565b6123d084848484612fbe565b50505050565b6000805b600e5481101561244e578273ffffffffffffffffffffffffffffffffffffffff16600e828154811061240e5761240e614807565b60009182526020909120015473ffffffffffffffffffffffffffffffffffffffff16141561243c5792915050565b8061244681614865565b9150506123da565b507fffffffffffffffffffffffffffffffffffffffffffffffffffffffffffffffff92915050565b606061084182613061565b60008281526008602052604090206001015461249c816126b5565b61149b8383612c34565b73ffffffffffffffffffffffffffffffffffffffff8083166000818152600c60205260409020546060921614612538576040517f08c379a000000000000000000000000000000000000000000000000000000000815260206004820152601560248201527f55736572204e6f742041637475616c204f776e657200000000000000000000006044820152606401610988565b73ffffffffffffffffffffffffffffffffffffffff83166000908152600c602090815260409091208351909161156f916001840191860190613f25565b60007fffffffff0000000000000000000000000000000000000000000000000000000082167f7965db0b000000000000000000000000000000000000000000000000000000001480610841575061084182613213565b6118098282604051806020016040528060008152506132f6565b60008281526002602052604090205473ffffffffffffffffffffffffffffffffffffffff16612696576040517f08c379a000000000000000000000000000000000000000000000000000000000815260206004820152602e60248201527f45524337323155524953746f726167653a2055524920736574206f66206e6f6e60448201527f6578697374656e7420746f6b656e0000000000000000000000000000000000006064820152608401610988565b6000828152600660209081526040909120825161149b92840190613f25565b6118208133613399565b600081815260046020526040902080547fffffffffffffffffffffffff00000000000000000000000000000000000000001673ffffffffffffffffffffffffffffffffffffffff8416908117909155819061271982611cbc565b73ffffffffffffffffffffffffffffffffffffffff167f8c5be1e5ebec7d5bd14f71427d1e84f3dd0314c0f7b2291e5b200ac8c7c3b92560405160405180910390a45050565b60008181526002602052604081205473ffffffffffffffffffffffffffffffffffffffff16612810576040517f08c379a000000000000000000000000000000000000000000000000000000000815260206004820152602c60248201527f4552433732313a206f70657261746f7220717565727920666f72206e6f6e657860448201527f697374656e7420746f6b656e00000000000000000000000000000000000000006064820152608401610988565b600061281b83611cbc565b90508073ffffffffffffffffffffffffffffffffffffffff168473ffffffffffffffffffffffffffffffffffffffff161480612889575073ffffffffffffffffffffffffffffffffffffffff80821660009081526005602090815260408083209388168352929052205460ff165b80610c4757508373ffffffffffffffffffffffffffffffffffffffff166128af84611239565b73ffffffffffffffffffffffffffffffffffffffff1614949350505050565b8273ffffffffffffffffffffffffffffffffffffffff166128ee82611cbc565b73ffffffffffffffffffffffffffffffffffffffff1614612991576040517f08c379a000000000000000000000000000000000000000000000000000000000815260206004820152602560248201527f4552433732313a207472616e736665722066726f6d20696e636f72726563742060448201527f6f776e65720000000000000000000000000000000000000000000000000000006064820152608401610988565b73ffffffffffffffffffffffffffffffffffffffff8216612a33576040517f08c379a0000000000000000000000000000000000000000000000000000000008152602060048201526024808201527f4552433732313a207472616e7366657220746f20746865207a65726f2061646460448201527f72657373000000000000000000000000000000000000000000000000000000006064820152608401610988565b612a3e83838361346b565b612a496000826126bf565b73ffffffffffffffffffffffffffffffffffffffff83166000908152600360205260408120805460019290612a7f90849061489e565b909155505073ffffffffffffffffffffffffffffffffffffffff82166000908152600360205260408120805460019290612aba9084906148e4565b909155505060008181526002602052604080822080547fffffffffffffffffffffffff00000000000000000000000000000000000000001673ffffffffffffffffffffffffffffffffffffffff86811691821790925591518493918716917fddf252ad1be2c89b69c2b068fc378daa952ba7f163c4a11628f55a4df523b3ef91a4505050565b600082815260086020908152604080832073ffffffffffffffffffffffffffffffffffffffff8516845290915290205460ff1661180957600082815260086020908152604080832073ffffffffffffffffffffffffffffffffffffffff85168452909152902080547fffffffffffffffffffffffffffffffffffffffffffffffffffffffffffffff00166001179055612bd63390565b73ffffffffffffffffffffffffffffffffffffffff168173ffffffffffffffffffffffffffffffffffffffff16837f2f8788117e7eff1d82e926ec794901d17c78024a50270940304540a733656f0d60405160405180910390a45050565b600082815260086020908152604080832073ffffffffffffffffffffffffffffffffffffffff8516845290915290205460ff161561180957600082815260086020908152604080832073ffffffffffffffffffffffffffffffffffffffff8516808552925280832080547fffffffffffffffffffffffffffffffffffffffffffffffffffffffffffffff0016905551339285917ff6391f5c32d9c69d2a47ea670b442974b53935d1edc7fd64eb21e047a839171b9190a45050565b60075460ff16612d5b576040517f08c379a000000000000000000000000000000000000000000000000000000000815260206004820152601460248201527f5061757361626c653a206e6f74207061757365640000000000000000000000006044820152606401610988565b600780547fffffffffffffffffffffffffffffffffffffffffffffffffffffffffffffff001690557f5db9ee0a495bf2e6ff9c91a7834c1ba4fdd244a5e8aa4e537bd38aeae4b073aa335b60405173ffffffffffffffffffffffffffffffffffffffff909116815260200160405180910390a1565b60075460ff1615612e3d576040517f08c379a000000000000000000000000000000000000000000000000000000000815260206004820152601060248201527f5061757361626c653a20706175736564000000000000000000000000000000006044820152606401610988565b600780547fffffffffffffffffffffffffffffffffffffffffffffffffffffffffffffff001660011790557f62e78cea01bee320cd4e420270b5ea74000d11b0c9f74754ebdbfc544b05a258612da63390565b8173ffffffffffffffffffffffffffffffffffffffff168373ffffffffffffffffffffffffffffffffffffffff161415612f26576040517f08c379a000000000000000000000000000000000000000000000000000000000815260206004820152601960248201527f4552433732313a20617070726f766520746f2063616c6c6572000000000000006044820152606401610988565b73ffffffffffffffffffffffffffffffffffffffff83811660008181526005602090815260408083209487168084529482529182902080547fffffffffffffffffffffffffffffffffffffffffffffffffffffffffffffff001686151590811790915591519182527f17307eab39ab6107e8899845ad3d59bd9653f200f220920489ca2b5937696c31910160405180910390a3505050565b612fc98484846128ce565b612fd5848484846136d8565b6123d0576040517f08c379a000000000000000000000000000000000000000000000000000000000815260206004820152603260248201527f4552433732313a207472616e7366657220746f206e6f6e20455243373231526560448201527f63656976657220696d706c656d656e74657200000000000000000000000000006064820152608401610988565b60008181526002602052604090205460609073ffffffffffffffffffffffffffffffffffffffff16613115576040517f08c379a000000000000000000000000000000000000000000000000000000000815260206004820152603160248201527f45524337323155524953746f726167653a2055524920717565727920666f722060448201527f6e6f6e6578697374656e7420746f6b656e0000000000000000000000000000006064820152608401610988565b6000828152600660205260408120805461312e906147b9565b80601f016020809104026020016040519081016040528092919081815260200182805461315a906147b9565b80156131a75780601f1061317c576101008083540402835291602001916131a7565b820191906000526020600020905b81548152906001019060200180831161318a57829003601f168201915b5050505050905060006131c560408051602081019091526000815290565b90508051600014156131d8575092915050565b81511561320a5780826040516020016131f29291906148fc565b60405160208183030381529060405292505050919050565b610c47846138c5565b60007fffffffff0000000000000000000000000000000000000000000000000000000082167f80ac58cd0000000000000000000000000000000000000000000000000000000014806132a657507fffffffff0000000000000000000000000000000000000000000000000000000082167f5b5e139f00000000000000000000000000000000000000000000000000000000145b8061084157507f01ffc9a7000000000000000000000000000000000000000000000000000000007fffffffff00000000000000000000000000000000000000000000000000000000831614610841565b61330083836139e2565b61330d60008484846136d8565b61149b576040517f08c379a000000000000000000000000000000000000000000000000000000000815260206004820152603260248201527f4552433732313a207472616e7366657220746f206e6f6e20455243373231526560448201527f63656976657220696d706c656d656e74657200000000000000000000000000006064820152608401610988565b600082815260086020908152604080832073ffffffffffffffffffffffffffffffffffffffff8516845290915290205460ff16611809576133f18173ffffffffffffffffffffffffffffffffffffffff166014613bb0565b6133fc836020613bb0565b60405160200161340d92919061492b565b604080517fffffffffffffffffffffffffffffffffffffffffffffffffffffffffffffffe0818403018152908290527f08c379a0000000000000000000000000000000000000000000000000000000008252610988916004016144af565b60075460ff16156134d8576040517f08c379a000000000000000000000000000000000000000000000000000000000815260206004820152601060248201527f5061757361626c653a20706175736564000000000000000000000000000000006044820152606401610988565b73ffffffffffffffffffffffffffffffffffffffff821660009081527f5eff886ea0ce6ca488a3d6e336d6c0f75f46d19b42c06ce5ee98e42c96d256c7602052604090205460ff166135985761352d33611d6e565b600f541015613598576040517f08c379a000000000000000000000000000000000000000000000000000000000815260206004820152601c60248201527f526563656976657220486173205265616368204d6178204c696d6974000000006044820152606401610988565b73ffffffffffffffffffffffffffffffffffffffff8083166000818152600c6020908152604080832080547fffffffffffffffffffffffff00000000000000000000000000000000000000001685178155600490810187905594881683528083207fffffffffffffffffffffffffffffffffffffffffffffffffffffffffffffffff950194909455600d80825284832080547fffffffffffffffffffffffffffffffffffffffffffffffffffffffffffffff00908116909155600a8084528685208886528452868520805483169055948452908252848320805482166001908117909155938252848320868452909152928120805490931690911790915561369f846123d6565b9050807fffffffffffffffffffffffffffffffffffffffffffffffffffffffffffffffff146136d3576136d181611021565b505b6123d0565b600073ffffffffffffffffffffffffffffffffffffffff84163b156138bd576040517f150b7a0200000000000000000000000000000000000000000000000000000000815273ffffffffffffffffffffffffffffffffffffffff85169063150b7a029061374f9033908990889088906004016149ac565b6020604051808303816000875af19250505080156137a8575060408051601f3d9081017fffffffffffffffffffffffffffffffffffffffffffffffffffffffffffffffe01682019092526137a5918101906149f5565b60015b613872573d8080156137d6576040519150601f19603f3d011682016040523d82523d6000602084013e6137db565b606091505b50805161386a576040517f08c379a000000000000000000000000000000000000000000000000000000000815260206004820152603260248201527f4552433732313a207472616e7366657220746f206e6f6e20455243373231526560448201527f63656976657220696d706c656d656e74657200000000000000000000000000006064820152608401610988565b805181602001fd5b7fffffffff00000000000000000000000000000000000000000000000000000000167f150b7a0200000000000000000000000000000000000000000000000000000000149050610c47565b506001610c47565b60008181526002602052604090205460609073ffffffffffffffffffffffffffffffffffffffff16613979576040517f08c379a000000000000000000000000000000000000000000000000000000000815260206004820152602f60248201527f4552433732314d657461646174613a2055524920717565727920666f72206e6f60448201527f6e6578697374656e7420746f6b656e00000000000000000000000000000000006064820152608401610988565b600061399060408051602081019091526000815290565b905060008151116139b057604051806020016040528060008152506139db565b806139ba84613df3565b6040516020016139cb9291906148fc565b6040516020818303038152906040525b9392505050565b73ffffffffffffffffffffffffffffffffffffffff8216613a5f576040517f08c379a000000000000000000000000000000000000000000000000000000000815260206004820181905260248201527f4552433732313a206d696e7420746f20746865207a65726f20616464726573736044820152606401610988565b60008181526002602052604090205473ffffffffffffffffffffffffffffffffffffffff1615613aeb576040517f08c379a000000000000000000000000000000000000000000000000000000000815260206004820152601c60248201527f4552433732313a20746f6b656e20616c7265616479206d696e746564000000006044820152606401610988565b613af76000838361346b565b73ffffffffffffffffffffffffffffffffffffffff82166000908152600360205260408120805460019290613b2d9084906148e4565b909155505060008181526002602052604080822080547fffffffffffffffffffffffff00000000000000000000000000000000000000001673ffffffffffffffffffffffffffffffffffffffff861690811790915590518392907fddf252ad1be2c89b69c2b068fc378daa952ba7f163c4a11628f55a4df523b3ef908290a45050565b60606000613bbf836002614a12565b613bca9060026148e4565b67ffffffffffffffff811115613be257613be2614032565b6040519080825280601f01601f191660200182016040528015613c0c576020820181803683370190505b5090507f300000000000000000000000000000000000000000000000000000000000000081600081518110613c4357613c43614807565b60200101907effffffffffffffffffffffffffffffffffffffffffffffffffffffffffffff1916908160001a9053507f780000000000000000000000000000000000000000000000000000000000000081600181518110613ca657613ca6614807565b60200101907effffffffffffffffffffffffffffffffffffffffffffffffffffffffffffff1916908160001a9053506000613ce2846002614a12565b613ced9060016148e4565b90505b6001811115613d8a577f303132333435363738396162636465660000000000000000000000000000000085600f1660108110613d2e57613d2e614807565b1a60f81b828281518110613d4457613d44614807565b60200101907effffffffffffffffffffffffffffffffffffffffffffffffffffffffffffff1916908160001a90535060049490941c93613d8381614a4f565b9050613cf0565b5083156139db576040517f08c379a000000000000000000000000000000000000000000000000000000000815260206004820181905260248201527f537472696e67733a20686578206c656e67746820696e73756666696369656e746044820152606401610988565b606081613e3357505060408051808201909152600181527f3000000000000000000000000000000000000000000000000000000000000000602082015290565b8160005b8115613e5d5780613e4781614865565b9150613e569050600a83614ab3565b9150613e37565b60008167ffffffffffffffff811115613e7857613e78614032565b6040519080825280601f01601f191660200182016040528015613ea2576020820181803683370190505b5090505b8415610c4757613eb760018361489e565b9150613ec4600a86614ac7565b613ecf9060306148e4565b60f81b818381518110613ee457613ee4614807565b60200101907effffffffffffffffffffffffffffffffffffffffffffffffffffffffffffff1916908160001a905350613f1e600a86614ab3565b9450613ea6565b828054613f31906147b9565b90600052602060002090601f016020900481019282613f535760008555613f99565b82601f10613f6c57805160ff1916838001178555613f99565b82800160010185558215613f99579182015b82811115613f99578251825591602001919060010190613f7e565b50613fa5929150613fa9565b5090565b5b80821115613fa55760008155600101613faa565b7fffffffff000000000000000000000000000000000000000000000000000000008116811461182057600080fd5b600060208284031215613ffe57600080fd5b81356139db81613fbe565b803573ffffffffffffffffffffffffffffffffffffffff8116811461402d57600080fd5b919050565b7f4e487b7100000000000000000000000000000000000000000000000000000000600052604160045260246000fd5b604051610100810167ffffffffffffffff8111828210171561408557614085614032565b60405290565b604051601f82017fffffffffffffffffffffffffffffffffffffffffffffffffffffffffffffffe016810167ffffffffffffffff811182821017156140d2576140d2614032565b604052919050565b600067ffffffffffffffff8311156140f4576140f4614032565b61412560207fffffffffffffffffffffffffffffffffffffffffffffffffffffffffffffffe0601f8601160161408b565b905082815283838301111561413957600080fd5b828260208301376000602084830101529392505050565b600082601f83011261416157600080fd5b6139db838335602085016140da565b6000806000806080858703121561418657600080fd5b61418f85614009565b9350602085013567ffffffffffffffff808211156141ac57600080fd5b6141b888838901614150565b945060408701359150808211156141ce57600080fd5b6141da88838901614150565b935060608701359150808211156141f057600080fd5b506141fd87828801614150565b91505092959194509250565b6000602080838503121561421c57600080fd5b823567ffffffffffffffff8082111561423457600080fd5b818501915085601f83011261424857600080fd5b81358181111561425a5761425a614032565b8060051b915061426b84830161408b565b818152918301840191848101908884111561428557600080fd5b938501935b838510156142aa5761429b85614009565b8252938501939085019061428a565b98975050505050505050565b60005b838110156142d15781810151838201526020016142b9565b838111156123d05750506000910152565b600081518084526142fa8160208601602086016142b6565b601f017fffffffffffffffffffffffffffffffffffffffffffffffffffffffffffffffe0169290920160200192915050565b600081518084526020808501945080840160005b8381101561437257815173ffffffffffffffffffffffffffffffffffffffff1687529582019590820190600101614340565b509495945050505050565b60006020808301818452808551808352604092508286019150828160051b87010184880160005b83811015614475577fffffffffffffffffffffffffffffffffffffffffffffffffffffffffffffffc0898403018552815160c073ffffffffffffffffffffffffffffffffffffffff825116855288820151818a870152614406828701826142e2565b915050878201518582038987015261441e82826142e2565b9150506060808301518683038288015261443883826142e2565b92505050608080830151818701525060a08083015192508582038187015250614461818361432c565b9689019694505050908601906001016143a4565b509098975050505050505050565b60006020828403121561449557600080fd5b5035919050565b6020815260006139db602083018461432c565b6020815260006139db60208301846142e2565b600080604083850312156144d557600080fd5b6144de83614009565b946020939093013593505050565b600080604083850312156144ff57600080fd5b61450883614009565b9150602083013567ffffffffffffffff81111561452457600080fd5b61453085828601614150565b9150509250929050565b60006020828403121561454c57600080fd5b6139db82614009565b60008060006060848603121561456a57600080fd5b61457384614009565b925061458160208501614009565b9150604084013590509250925092565b600080604083850312156145a457600080fd5b823591506145b460208401614009565b90509250929050565b600080604083850312156145d057600080fd5b6145d983614009565b91506145b460208401614009565b73ffffffffffffffffffffffffffffffffffffffff8616815260a06020820152600061461660a08301876142e2565b828103604084015261462881876142e2565b9050828103606084015261463c81866142e2565b9150508260808301529695505050505050565b600080600083850361014081121561466657600080fd5b8435935061467660208601614009565b9250610100807fffffffffffffffffffffffffffffffffffffffffffffffffffffffffffffffc0830112156146aa57600080fd5b6146b2614061565b915060408601358252606086013560208301526080860135604083015260a0860135606083015260c0860135608083015260e086013560a08301528086013560c08301525061012085013560e0820152809150509250925092565b6000806040838503121561472057600080fd5b61472983614009565b91506020830135801515811461473e57600080fd5b809150509250929050565b6000806000806080858703121561475f57600080fd5b61476885614009565b935061477660208601614009565b925060408501359150606085013567ffffffffffffffff81111561479957600080fd5b8501601f810187136147aa57600080fd5b6141fd878235602084016140da565b600181811c908216806147cd57607f821691505b602082108114156111a1577f4e487b7100000000000000000000000000000000000000000000000000000000600052602260045260246000fd5b7f4e487b7100000000000000000000000000000000000000000000000000000000600052603260045260246000fd5b7f4e487b7100000000000000000000000000000000000000000000000000000000600052601160045260246000fd5b60007fffffffffffffffffffffffffffffffffffffffffffffffffffffffffffffffff82141561489757614897614836565b5060010190565b6000828210156148b0576148b0614836565b500390565b7f4e487b7100000000000000000000000000000000000000000000000000000000600052603160045260246000fd5b600082198211156148f7576148f7614836565b500190565b6000835161490e8184602088016142b6565b8351908301906149228183602088016142b6565b01949350505050565b7f416363657373436f6e74726f6c3a206163636f756e74200000000000000000008152600083516149638160178501602088016142b6565b7f206973206d697373696e6720726f6c652000000000000000000000000000000060179184019182015283516149a08160288401602088016142b6565b01602801949350505050565b600073ffffffffffffffffffffffffffffffffffffffff8087168352808616602084015250836040830152608060608301526149eb60808301846142e2565b9695505050505050565b600060208284031215614a0757600080fd5b81516139db81613fbe565b6000817fffffffffffffffffffffffffffffffffffffffffffffffffffffffffffffffff0483118215151615614a4a57614a4a614836565b500290565b600081614a5e57614a5e614836565b507fffffffffffffffffffffffffffffffffffffffffffffffffffffffffffffffff0190565b7f4e487b7100000000000000000000000000000000000000000000000000000000600052601260045260246000fd5b600082614ac257614ac2614a84565b500490565b600082614ad657614ad6614a84565b50069056fea2646970667358221220cb2d4623acc721b91435812b295a260aa78580be67a58c84fad52bb223700faa64736f6c634300080b0033",
  "linkReferences": {},
  "deployedLinkReferences": {}
}