{
  "_format": "hh-sol-artifact-1",
  "contractName": "MemberShip",
  "sourceName": "contracts/MemberShip.sol",
  "abi": [
    {
      "inputs": [
        {
          "internalType": "address",
          "name": "_gnosis",
          "type": "address"
        },
        {
          "internalType": "address",
          "name": "_oracle",
          "type": "address"
        }
      ],
      "stateMutability": "nonpayable",
      "type": "constructor"
    },
    {
      "anonymous": false,
      "inputs": [
        {
          "indexed": true,
          "internalType": "address",
          "name": "owner",
          "type": "address"
        },
        {
          "indexed": true,
          "internalType": "address",
          "name": "approved",
          "type": "address"
        },
        {
          "indexed": true,
          "internalType": "uint256",
          "name": "tokenId",
          "type": "uint256"
        }
      ],
      "name": "Approval",
      "type": "event"
    },
    {
      "anonymous": false,
      "inputs": [
        {
          "indexed": true,
          "internalType": "address",
          "name": "owner",
          "type": "address"
        },
        {
          "indexed": true,
          "internalType": "address",
          "name": "operator",
          "type": "address"
        },
        {
          "indexed": false,
          "internalType": "bool",
          "name": "approved",
          "type": "bool"
        }
      ],
      "name": "ApprovalForAll",
      "type": "event"
    },
    {
      "anonymous": false,
      "inputs": [
        {
          "indexed": false,
          "internalType": "address",
          "name": "account",
          "type": "address"
        }
      ],
      "name": "Paused",
      "type": "event"
    },
    {
      "anonymous": false,
      "inputs": [
        {
          "indexed": true,
          "internalType": "bytes32",
          "name": "role",
          "type": "bytes32"
        },
        {
          "indexed": true,
          "internalType": "bytes32",
          "name": "previousAdminRole",
          "type": "bytes32"
        },
        {
          "indexed": true,
          "internalType": "bytes32",
          "name": "newAdminRole",
          "type": "bytes32"
        }
      ],
      "name": "RoleAdminChanged",
      "type": "event"
    },
    {
      "anonymous": false,
      "inputs": [
        {
          "indexed": true,
          "internalType": "bytes32",
          "name": "role",
          "type": "bytes32"
        },
        {
          "indexed": true,
          "internalType": "address",
          "name": "account",
          "type": "address"
        },
        {
          "indexed": true,
          "internalType": "address",
          "name": "sender",
          "type": "address"
        }
      ],
      "name": "RoleGranted",
      "type": "event"
    },
    {
      "anonymous": false,
      "inputs": [
        {
          "indexed": true,
          "internalType": "bytes32",
          "name": "role",
          "type": "bytes32"
        },
        {
          "indexed": true,
          "internalType": "address",
          "name": "account",
          "type": "address"
        },
        {
          "indexed": true,
          "internalType": "address",
          "name": "sender",
          "type": "address"
        }
      ],
      "name": "RoleRevoked",
      "type": "event"
    },
    {
      "anonymous": false,
      "inputs": [
        {
          "indexed": true,
          "internalType": "address",
          "name": "from",
          "type": "address"
        },
        {
          "indexed": true,
          "internalType": "address",
          "name": "to",
          "type": "address"
        },
        {
          "indexed": true,
          "internalType": "uint256",
          "name": "tokenId",
          "type": "uint256"
        }
      ],
      "name": "Transfer",
      "type": "event"
    },
    {
      "anonymous": false,
      "inputs": [
        {
          "indexed": false,
          "internalType": "address",
          "name": "account",
          "type": "address"
        }
      ],
      "name": "Unpaused",
      "type": "event"
    },
    {
      "inputs": [],
      "name": "DEFAULT_ADMIN_ROLE",
      "outputs": [
        {
          "internalType": "bytes32",
          "name": "",
          "type": "bytes32"
        }
      ],
      "stateMutability": "view",
      "type": "function"
    },
    {
      "inputs": [],
      "name": "MINTER_ROLE",
      "outputs": [
        {
          "internalType": "bytes32",
          "name": "",
          "type": "bytes32"
        }
      ],
      "stateMutability": "view",
      "type": "function"
    },
    {
      "inputs": [],
      "name": "PAUSER_ROLE",
      "outputs": [
        {
          "internalType": "bytes32",
          "name": "",
          "type": "bytes32"
        }
      ],
      "stateMutability": "view",
      "type": "function"
    },
    {
      "inputs": [
        {
          "internalType": "address",
          "name": "to",
          "type": "address"
        },
        {
          "internalType": "uint256",
          "name": "tokenId",
          "type": "uint256"
        }
      ],
      "name": "approve",
      "outputs": [],
      "stateMutability": "nonpayable",
      "type": "function"
    },
    {
      "inputs": [
        {
          "internalType": "address",
          "name": "owner",
          "type": "address"
        }
      ],
      "name": "balanceOf",
      "outputs": [
        {
          "internalType": "uint256",
          "name": "",
          "type": "uint256"
        }
      ],
      "stateMutability": "view",
      "type": "function"
    },
    {
      "inputs": [
        {
          "internalType": "uint256",
          "name": "tokenId",
          "type": "uint256"
        }
      ],
      "name": "getApproved",
      "outputs": [
        {
          "internalType": "address",
          "name": "",
          "type": "address"
        }
      ],
      "stateMutability": "view",
      "type": "function"
    },
    {
      "inputs": [
        {
          "internalType": "bytes32",
          "name": "role",
          "type": "bytes32"
        }
      ],
      "name": "getRoleAdmin",
      "outputs": [
        {
          "internalType": "bytes32",
          "name": "",
          "type": "bytes32"
        }
      ],
      "stateMutability": "view",
      "type": "function"
    },
    {
      "inputs": [
        {
          "internalType": "bytes32",
          "name": "role",
          "type": "bytes32"
        },
        {
          "internalType": "address",
          "name": "account",
          "type": "address"
        }
      ],
      "name": "grantRole",
      "outputs": [],
      "stateMutability": "nonpayable",
      "type": "function"
    },
    {
      "inputs": [
        {
          "internalType": "bytes32",
          "name": "role",
          "type": "bytes32"
        },
        {
          "internalType": "address",
          "name": "account",
          "type": "address"
        }
      ],
      "name": "hasRole",
      "outputs": [
        {
          "internalType": "bool",
          "name": "",
          "type": "bool"
        }
      ],
      "stateMutability": "view",
      "type": "function"
    },
    {
      "inputs": [
        {
          "internalType": "address",
          "name": "owner",
          "type": "address"
        },
        {
          "internalType": "address",
          "name": "operator",
          "type": "address"
        }
      ],
      "name": "isApprovedForAll",
      "outputs": [
        {
          "internalType": "bool",
          "name": "",
          "type": "bool"
        }
      ],
      "stateMutability": "view",
      "type": "function"
    },
    {
      "inputs": [
        {
          "internalType": "address",
          "name": "",
          "type": "address"
        }
      ],
      "name": "isOwner",
      "outputs": [
        {
          "internalType": "bool",
          "name": "",
          "type": "bool"
        }
      ],
      "stateMutability": "view",
      "type": "function"
    },
    {
      "inputs": [
        {
          "internalType": "address",
          "name": "",
          "type": "address"
        },
        {
          "internalType": "uint256",
          "name": "",
          "type": "uint256"
        }
      ],
      "name": "isOwnerOf",
      "outputs": [
        {
          "internalType": "bool",
          "name": "",
          "type": "bool"
        }
      ],
      "stateMutability": "view",
      "type": "function"
    },
    {
      "inputs": [],
      "name": "maxCap",
      "outputs": [
        {
          "internalType": "uint256",
          "name": "",
          "type": "uint256"
        }
      ],
      "stateMutability": "view",
      "type": "function"
    },
    {
      "inputs": [],
      "name": "membershipUri",
      "outputs": [
        {
          "internalType": "string",
          "name": "",
          "type": "string"
        }
      ],
      "stateMutability": "view",
      "type": "function"
    },
    {
      "inputs": [],
      "name": "name",
      "outputs": [
        {
          "internalType": "string",
          "name": "",
          "type": "string"
        }
      ],
      "stateMutability": "view",
      "type": "function"
    },
    {
      "inputs": [
        {
          "internalType": "uint256",
          "name": "tokenId",
          "type": "uint256"
        }
      ],
      "name": "ownerOf",
      "outputs": [
        {
          "internalType": "address",
          "name": "",
          "type": "address"
        }
      ],
      "stateMutability": "view",
      "type": "function"
    },
    {
      "inputs": [],
      "name": "pause",
      "outputs": [],
      "stateMutability": "nonpayable",
      "type": "function"
    },
    {
      "inputs": [],
      "name": "paused",
      "outputs": [
        {
          "internalType": "bool",
          "name": "",
          "type": "bool"
        }
      ],
      "stateMutability": "view",
      "type": "function"
    },
    {
      "inputs": [
        {
          "internalType": "bytes32",
          "name": "role",
          "type": "bytes32"
        },
        {
          "internalType": "address",
          "name": "account",
          "type": "address"
        }
      ],
      "name": "renounceRole",
      "outputs": [],
      "stateMutability": "nonpayable",
      "type": "function"
    },
    {
      "inputs": [
        {
          "internalType": "bytes32",
          "name": "role",
          "type": "bytes32"
        },
        {
          "internalType": "address",
          "name": "account",
          "type": "address"
        }
      ],
      "name": "revokeRole",
      "outputs": [],
      "stateMutability": "nonpayable",
      "type": "function"
    },
    {
      "inputs": [
        {
          "internalType": "address",
          "name": "_to",
          "type": "address"
        },
        {
          "internalType": "string",
          "name": "_userName",
          "type": "string"
        },
        {
          "internalType": "string",
          "name": "_email",
          "type": "string"
        },
        {
          "internalType": "string",
          "name": "_twitterUserName",
          "type": "string"
        }
      ],
      "name": "safeMint",
      "outputs": [],
      "stateMutability": "nonpayable",
      "type": "function"
    },
    {
      "inputs": [
        {
          "internalType": "address",
          "name": "from",
          "type": "address"
        },
        {
          "internalType": "address",
          "name": "to",
          "type": "address"
        },
        {
          "internalType": "uint256",
          "name": "tokenId",
          "type": "uint256"
        }
      ],
      "name": "safeTransferFrom",
      "outputs": [],
      "stateMutability": "nonpayable",
      "type": "function"
    },
    {
      "inputs": [
        {
          "internalType": "address",
          "name": "from",
          "type": "address"
        },
        {
          "internalType": "address",
          "name": "to",
          "type": "address"
        },
        {
          "internalType": "uint256",
          "name": "tokenId",
          "type": "uint256"
        },
        {
          "internalType": "bytes",
          "name": "_data",
          "type": "bytes"
        }
      ],
      "name": "safeTransferFrom",
      "outputs": [],
      "stateMutability": "nonpayable",
      "type": "function"
    },
    {
      "inputs": [
        {
          "internalType": "address",
          "name": "operator",
          "type": "address"
        },
        {
          "internalType": "bool",
          "name": "approved",
          "type": "bool"
        }
      ],
      "name": "setApprovalForAll",
      "outputs": [],
      "stateMutability": "nonpayable",
      "type": "function"
    },
    {
      "inputs": [
        {
          "internalType": "uint256",
          "name": "_newMaxCap",
          "type": "uint256"
        }
      ],
      "name": "setMaxCap",
      "outputs": [
        {
          "internalType": "uint256",
          "name": "",
          "type": "uint256"
        }
      ],
      "stateMutability": "nonpayable",
      "type": "function"
    },
    {
      "inputs": [
        {
          "internalType": "bytes4",
          "name": "interfaceId",
          "type": "bytes4"
        }
      ],
      "name": "supportsInterface",
      "outputs": [
        {
          "internalType": "bool",
          "name": "",
          "type": "bool"
        }
      ],
      "stateMutability": "view",
      "type": "function"
    },
    {
      "inputs": [],
      "name": "symbol",
      "outputs": [
        {
          "internalType": "string",
          "name": "",
          "type": "string"
        }
      ],
      "stateMutability": "view",
      "type": "function"
    },
    {
      "inputs": [
        {
          "internalType": "uint256",
          "name": "tokenId",
          "type": "uint256"
        }
      ],
      "name": "tokenURI",
      "outputs": [
        {
          "internalType": "string",
          "name": "",
          "type": "string"
        }
      ],
      "stateMutability": "view",
      "type": "function"
    },
    {
      "inputs": [
        {
          "internalType": "address",
          "name": "from",
          "type": "address"
        },
        {
          "internalType": "address",
          "name": "to",
          "type": "address"
        },
        {
          "internalType": "uint256",
          "name": "tokenId",
          "type": "uint256"
        }
      ],
      "name": "transferFrom",
      "outputs": [],
      "stateMutability": "nonpayable",
      "type": "function"
    },
    {
      "inputs": [],
      "name": "unpause",
      "outputs": [],
      "stateMutability": "nonpayable",
      "type": "function"
    },
    {
      "inputs": [
        {
          "internalType": "uint256",
          "name": "_tokenId",
          "type": "uint256"
        },
        {
          "internalType": "address",
          "name": "_user",
          "type": "address"
        },
        {
          "internalType": "string",
          "name": "_newEmail",
          "type": "string"
        }
      ],
      "name": "updateEmail",
      "outputs": [
        {
          "internalType": "string",
          "name": "",
          "type": "string"
        }
      ],
      "stateMutability": "nonpayable",
      "type": "function"
    },
    {
      "inputs": [
        {
          "internalType": "uint256",
          "name": "_tokenId",
          "type": "uint256"
        },
        {
          "internalType": "address",
          "name": "_user",
          "type": "address"
        },
        {
          "internalType": "string",
          "name": "_newTwitterUserName",
          "type": "string"
        }
      ],
      "name": "updateTwitterUserName",
      "outputs": [
        {
          "internalType": "string",
          "name": "",
          "type": "string"
        }
      ],
      "stateMutability": "nonpayable",
      "type": "function"
    },
    {
      "inputs": [
        {
          "internalType": "uint256",
          "name": "_tokenId",
          "type": "uint256"
        },
        {
          "internalType": "address",
          "name": "_user",
          "type": "address"
        },
        {
          "internalType": "string",
          "name": "_newUserName",
          "type": "string"
        }
      ],
      "name": "updateUserName",
      "outputs": [
        {
          "internalType": "string",
          "name": "",
          "type": "string"
        }
      ],
      "stateMutability": "nonpayable",
      "type": "function"
    },
    {
      "inputs": [
        {
          "internalType": "uint256",
          "name": "_tokenId",
          "type": "uint256"
        },
        {
          "internalType": "address",
          "name": "_user",
          "type": "address"
        },
        {
          "components": [
            {
              "internalType": "address",
              "name": "owner",
              "type": "address"
            },
            {
              "internalType": "string",
              "name": "userName",
              "type": "string"
            },
            {
              "internalType": "string",
              "name": "email",
              "type": "string"
            },
            {
              "internalType": "string",
              "name": "twitterUserName",
              "type": "string"
            },
            {
              "internalType": "uint256",
              "name": "experience",
              "type": "uint256"
            },
            {
              "internalType": "uint256",
              "name": "questAccepted",
              "type": "uint256"
            },
            {
              "internalType": "uint256",
              "name": "questCompleted",
              "type": "uint256"
            },
            {
              "internalType": "uint256",
              "name": "daoProposalCreated",
              "type": "uint256"
            },
            {
              "internalType": "uint256",
              "name": "daoProposalCreatedAccepted",
              "type": "uint256"
            },
            {
              "internalType": "uint256",
              "name": "daoProposalVoted",
              "type": "uint256"
            },
            {
              "internalType": "uint256",
              "name": "challengeReceived",
              "type": "uint256"
            },
            {
              "internalType": "uint256",
              "name": "friendChallenged",
              "type": "uint256"
            }
          ],
          "internalType": "struct MemberShip.UserProfil",
          "name": "_newProfil",
          "type": "tuple"
        }
      ],
      "name": "updateUserProfil",
      "outputs": [
        {
          "components": [
            {
              "internalType": "address",
              "name": "owner",
              "type": "address"
            },
            {
              "internalType": "string",
              "name": "userName",
              "type": "string"
            },
            {
              "internalType": "string",
              "name": "email",
              "type": "string"
            },
            {
              "internalType": "string",
              "name": "twitterUserName",
              "type": "string"
            },
            {
              "internalType": "uint256",
              "name": "experience",
              "type": "uint256"
            },
            {
              "internalType": "uint256",
              "name": "questAccepted",
              "type": "uint256"
            },
            {
              "internalType": "uint256",
              "name": "questCompleted",
              "type": "uint256"
            },
            {
              "internalType": "uint256",
              "name": "daoProposalCreated",
              "type": "uint256"
            },
            {
              "internalType": "uint256",
              "name": "daoProposalCreatedAccepted",
              "type": "uint256"
            },
            {
              "internalType": "uint256",
              "name": "daoProposalVoted",
              "type": "uint256"
            },
            {
              "internalType": "uint256",
              "name": "challengeReceived",
              "type": "uint256"
            },
            {
              "internalType": "uint256",
              "name": "friendChallenged",
              "type": "uint256"
            }
          ],
          "internalType": "struct MemberShip.UserProfil",
          "name": "",
          "type": "tuple"
        }
      ],
      "stateMutability": "nonpayable",
      "type": "function"
    },
    {
      "inputs": [
        {
          "internalType": "uint256",
          "name": "",
          "type": "uint256"
        },
        {
          "internalType": "address",
          "name": "",
          "type": "address"
        }
      ],
      "name": "userProfil",
      "outputs": [
        {
          "internalType": "address",
          "name": "owner",
          "type": "address"
        },
        {
          "internalType": "string",
          "name": "userName",
          "type": "string"
        },
        {
          "internalType": "string",
          "name": "email",
          "type": "string"
        },
        {
          "internalType": "string",
          "name": "twitterUserName",
          "type": "string"
        },
        {
          "internalType": "uint256",
          "name": "experience",
          "type": "uint256"
        },
        {
          "internalType": "uint256",
          "name": "questAccepted",
          "type": "uint256"
        },
        {
          "internalType": "uint256",
          "name": "questCompleted",
          "type": "uint256"
        },
        {
          "internalType": "uint256",
          "name": "daoProposalCreated",
          "type": "uint256"
        },
        {
          "internalType": "uint256",
          "name": "daoProposalCreatedAccepted",
          "type": "uint256"
        },
        {
          "internalType": "uint256",
          "name": "daoProposalVoted",
          "type": "uint256"
        },
        {
          "internalType": "uint256",
          "name": "challengeReceived",
          "type": "uint256"
        },
        {
          "internalType": "uint256",
          "name": "friendChallenged",
          "type": "uint256"
        }
      ],
      "stateMutability": "view",
      "type": "function"
    }
  ],
  "bytecode": "0x60806040523480156200001157600080fd5b50604051620041fd380380620041fd8339810160408190526200003491620002d7565b604080518082018252600e81526d0506f4c2d4d656d626572736869760941b602080830191825283518085019094526004845263504f4c4d60e01b908401528151919291620000869160009162000214565b5080516200009c90600190602084019062000214565b50506007805460ff1916905550620000b66000836200016f565b620000c36000826200016f565b620000ef7f65d7a28e3265b37a6474929f336521b332c1681b933f6cb9f3376673440d862a836200016f565b6200011b7f9f2df0fed2c77648de5860a4cc508cd0818c85b8b8a1ab4ceeef8d981c8956a6836200016f565b6001600d556040805180820190915260168082527f557269546573744e6565644772617068697374653c330000000000000000000060209092019182526200016691600e9162000214565b5050506200034c565b60008281526008602090815260408083206001600160a01b038516845290915290205460ff16620002105760008281526008602090815260408083206001600160a01b03851684529091529020805460ff19166001179055620001cf3390565b6001600160a01b0316816001600160a01b0316837f2f8788117e7eff1d82e926ec794901d17c78024a50270940304540a733656f0d60405160405180910390a45b5050565b82805462000222906200030f565b90600052602060002090601f01602090048101928262000246576000855562000291565b82601f106200026157805160ff191683800117855562000291565b8280016001018555821562000291579182015b828111156200029157825182559160200191906001019062000274565b506200029f929150620002a3565b5090565b5b808211156200029f5760008155600101620002a4565b80516001600160a01b0381168114620002d257600080fd5b919050565b60008060408385031215620002eb57600080fd5b620002f683620002ba565b91506200030660208401620002ba565b90509250929050565b600181811c908216806200032457607f821691505b602082108114156200034657634e487b7160e01b600052602260045260246000fd5b50919050565b613ea1806200035c6000396000f3fe608060405234801561001057600080fd5b50600436106102415760003560e01c806370a0823111610145578063a22cb465116100bd578063d53913931161008c578063d5c4d5d611610071578063d5c4d5d614610550578063e63ab1e914610563578063e985e9c51461058a57600080fd5b8063d539139314610516578063d547741f1461053d57600080fd5b8063a22cb465146104af578063b88d4fde146104c2578063c5b8f772146104d5578063c87b56dd1461050357600080fd5b80638456cb5911610114578063942ee8ba116100f9578063942ee8ba1461047457806395d89b411461049f578063a217fddf146104a757600080fd5b80638456cb591461042657806391d148541461042e57600080fd5b806370a08231146103da578063763265de146103ed5780637e8139c414610400578063843d579d1461041357600080fd5b80632f2ff15d116101d85780633f4ba83a116101a75780634fbfd7a81161018c5780634fbfd7a8146103b45780635c975abb146103bc5780636352211e146103c757600080fd5b80633f4ba83a1461039957806342842e0e146103a157600080fd5b80632f2ff15d146103305780632f54bf6e1461034357806336568abe146103665780633e81d91e1461037957600080fd5b8063095ea7b311610214578063095ea7b3146102d057806323548b8b146102e357806323b872dd146102fa578063248a9ca31461030d57600080fd5b806301ffc9a71461024657806303a80dfb1461026e57806306fdde0314610283578063081812fc14610298575b600080fd5b61025961025436600461342e565b6105d3565b60405190151581526020015b60405180910390f35b61028161027c366004613581565b6105e4565b005b61028b61093b565b6040516102659190613690565b6102ab6102a63660046136a3565b6109cd565b60405173ffffffffffffffffffffffffffffffffffffffff9091168152602001610265565b6102816102de3660046136bc565b610aa7565b6102ec600d5481565b604051908152602001610265565b6102816103083660046136e6565b610c34565b6102ec61031b3660046136a3565b60009081526008602052604090206001015490565b61028161033e366004613722565b610cd5565b61025961035136600461374e565b600c6020526000908152604090205460ff1681565b610281610374366004613722565b610cfa565b61038c610387366004613769565b610dad565b60405161026591906138a3565b61028161116a565b6102816103af3660046136e6565b611180565b61028b61119b565b60075460ff16610259565b6102ab6103d53660046136a3565b611229565b6102ec6103e836600461374e565b6112db565b6102ec6103fb3660046136a3565b6113a9565b61028b61040e3660046139ad565b6113c4565b61028b6104213660046139ad565b61153a565b61028161161d565b61025961043c366004613722565b600091825260086020908152604080842073ffffffffffffffffffffffffffffffffffffffff93909316845291905290205460ff1690565b610487610482366004613722565b611630565b6040516102659c9b9a99989796959493929190613a04565b61028b611843565b6102ec600081565b6102816104bd366004613aa2565b611852565b6102816104d0366004613ade565b61185d565b6102596104e33660046136bc565b600a60209081526000928352604080842090915290825290205460ff1681565b61028b6105113660046136a3565b611905565b6102ec7f9f2df0fed2c77648de5860a4cc508cd0818c85b8b8a1ab4ceeef8d981c8956a681565b61028161054b366004613722565b611910565b61028b61055e3660046139ad565b611935565b6102ec7f65d7a28e3265b37a6474929f336521b332c1681b933f6cb9f3376673440d862a81565b610259610598366004613b4e565b73ffffffffffffffffffffffffffffffffffffffff918216600090815260056020908152604080832093909416825291909152205460ff1690565b60006105de82611a18565b92915050565b7f9f2df0fed2c77648de5860a4cc508cd0818c85b8b8a1ab4ceeef8d981c8956a661060e81611a6e565b3360009081527f5eff886ea0ce6ca488a3d6e336d6c0f75f46d19b42c06ce5ee98e42c96d256c7602052604090205460ff16158015610692575073ffffffffffffffffffffffffffffffffffffffff851660009081527f5eff886ea0ce6ca488a3d6e336d6c0f75f46d19b42c06ce5ee98e42c96d256c7602052604090205460ff16155b15610710576106a0336112db565b600d541015610710576040517f08c379a000000000000000000000000000000000000000000000000000000000815260206004820152601c60248201527f526563656976657220486173205265616368204d6178204c696d69740000000060448201526064015b60405180910390fd5b600061071b60095490565b6000818152600b6020908152604080832073ffffffffffffffffffffffffffffffffffffffff8b168452909152902090915061075b600980546001019055565b6107658783611a78565b6107f982600e805461077690613b78565b80601f01602080910402602001604051908101604052809291908181526020018280546107a290613b78565b80156107ef5780601f106107c4576101008083540402835291602001916107ef565b820191906000526020600020905b8154815290600101906020018083116107d257829003601f168201915b5050505050611a92565b73ffffffffffffffffffffffffffffffffffffffff87166000818152600a602090815260408083208684528252808320805460017fffffffffffffffffffffffffffffffffffffffffffffffffffffffffffffff009182168117909255858552600c84529190932080549091168317905583547fffffffffffffffffffffffff000000000000000000000000000000000000000016909217835587516108a59291840191890190613367565b5084516108bb9060028301906020880190613367565b5083516108d19060038301906020870190613367565b503360009081527f5eff886ea0ce6ca488a3d6e336d6c0f75f46d19b42c06ce5ee98e42c96d256c7602052604090205460ff16610932576109327f9f2df0fed2c77648de5860a4cc508cd0818c85b8b8a1ab4ceeef8d981c8956a633611b62565b50505050505050565b60606000805461094a90613b78565b80601f016020809104026020016040519081016040528092919081815260200182805461097690613b78565b80156109c35780601f10610998576101008083540402835291602001916109c3565b820191906000526020600020905b8154815290600101906020018083116109a657829003601f168201915b5050505050905090565b60008181526002602052604081205473ffffffffffffffffffffffffffffffffffffffff16610a7e576040517f08c379a000000000000000000000000000000000000000000000000000000000815260206004820152602c60248201527f4552433732313a20617070726f76656420717565727920666f72206e6f6e657860448201527f697374656e7420746f6b656e00000000000000000000000000000000000000006064820152608401610707565b5060009081526004602052604090205473ffffffffffffffffffffffffffffffffffffffff1690565b6000610ab282611229565b90508073ffffffffffffffffffffffffffffffffffffffff168373ffffffffffffffffffffffffffffffffffffffff161415610b70576040517f08c379a000000000000000000000000000000000000000000000000000000000815260206004820152602160248201527f4552433732313a20617070726f76616c20746f2063757272656e74206f776e6560448201527f72000000000000000000000000000000000000000000000000000000000000006064820152608401610707565b3373ffffffffffffffffffffffffffffffffffffffff82161480610b995750610b998133610598565b610c25576040517f08c379a000000000000000000000000000000000000000000000000000000000815260206004820152603860248201527f4552433732313a20617070726f76652063616c6c6572206973206e6f74206f7760448201527f6e6572206e6f7220617070726f76656420666f7220616c6c00000000000000006064820152608401610707565b610c2f8383611c1d565b505050565b610c3e3382611cbd565b610cca576040517f08c379a000000000000000000000000000000000000000000000000000000000815260206004820152603160248201527f4552433732313a207472616e736665722063616c6c6572206973206e6f74206f60448201527f776e6572206e6f7220617070726f7665640000000000000000000000000000006064820152608401610707565b610c2f838383611e2d565b600082815260086020526040902060010154610cf081611a6e565b610c2f838361209f565b73ffffffffffffffffffffffffffffffffffffffff81163314610d9f576040517f08c379a000000000000000000000000000000000000000000000000000000000815260206004820152602f60248201527f416363657373436f6e74726f6c3a2063616e206f6e6c792072656e6f756e636560448201527f20726f6c657320666f722073656c6600000000000000000000000000000000006064820152608401610707565b610da98282611b62565b5050565b610e27604051806101800160405280600073ffffffffffffffffffffffffffffffffffffffff16815260200160608152602001606081526020016060815260200160008152602001600081526020016000815260200160008152602001600081526020016000815260200160008152602001600081525090565b6000610e3281611a6e565b6000858152600b6020908152604080832073ffffffffffffffffffffffffffffffffffffffff881684529091529020608084015115610e7657608084015160048201555b60a084015115610e8b5760a084015160058201555b60c084015115610ea05760c084015160068201555b60e084015115610eb55760e084015160078201555b61010084015115610ecc5761010084015160088201555b61012084015115610ee35761012084015160098201555b61014084015115610efa57610140840151600a8201555b61016084015115610f1157610160840151600b8201555b6000868152600b6020908152604080832073ffffffffffffffffffffffffffffffffffffffff808a168552908352928190208151610180810190925280549093168152600183018054919392840191610f6990613b78565b80601f0160208091040260200160405190810160405280929190818152602001828054610f9590613b78565b8015610fe25780601f10610fb757610100808354040283529160200191610fe2565b820191906000526020600020905b815481529060010190602001808311610fc557829003601f168201915b50505050508152602001600282018054610ffb90613b78565b80601f016020809104026020016040519081016040528092919081815260200182805461102790613b78565b80156110745780601f1061104957610100808354040283529160200191611074565b820191906000526020600020905b81548152906001019060200180831161105757829003601f168201915b5050505050815260200160038201805461108d90613b78565b80601f01602080910402602001604051908101604052809291908181526020018280546110b990613b78565b80156111065780601f106110db57610100808354040283529160200191611106565b820191906000526020600020905b8154815290600101906020018083116110e957829003601f168201915b50505050508152602001600482015481526020016005820154815260200160068201548152602001600782015481526020016008820154815260200160098201548152602001600a8201548152602001600b82015481525050925050509392505050565b600061117581611a6e565b61117d612193565b50565b610c2f8383836040518060200160405280600081525061185d565b600e80546111a890613b78565b80601f01602080910402602001604051908101604052809291908181526020018280546111d490613b78565b80156112215780601f106111f657610100808354040283529160200191611221565b820191906000526020600020905b81548152906001019060200180831161120457829003601f168201915b505050505081565b60008181526002602052604081205473ffffffffffffffffffffffffffffffffffffffff16806105de576040517f08c379a000000000000000000000000000000000000000000000000000000000815260206004820152602960248201527f4552433732313a206f776e657220717565727920666f72206e6f6e657869737460448201527f656e7420746f6b656e00000000000000000000000000000000000000000000006064820152608401610707565b600073ffffffffffffffffffffffffffffffffffffffff8216611380576040517f08c379a000000000000000000000000000000000000000000000000000000000815260206004820152602a60248201527f4552433732313a2062616c616e636520717565727920666f7220746865207a6560448201527f726f2061646472657373000000000000000000000000000000000000000000006064820152608401610707565b5073ffffffffffffffffffffffffffffffffffffffff1660009081526003602052604090205490565b6000806113b581611a6e565b82600d81905591505b50919050565b60608273ffffffffffffffffffffffffffffffffffffffff166113e685611229565b73ffffffffffffffffffffffffffffffffffffffff1614611463576040517f08c379a000000000000000000000000000000000000000000000000000000000815260206004820152601560248201527f55736572204e6f742041637475616c204f776e657200000000000000000000006044820152606401610707565b6000848152600b6020908152604080832073ffffffffffffffffffffffffffffffffffffffff871684528252909120835190916114a7916003840191860190613367565b80546114b290613b78565b80601f01602080910402602001604051908101604052809291908181526020018280546114de90613b78565b801561152b5780601f106115005761010080835404028352916020019161152b565b820191906000526020600020905b81548152906001019060200180831161150e57829003601f168201915b50505050509150509392505050565b60608273ffffffffffffffffffffffffffffffffffffffff1661155c85611229565b73ffffffffffffffffffffffffffffffffffffffff16146115d9576040517f08c379a000000000000000000000000000000000000000000000000000000000815260206004820152601560248201527f55736572204e6f742041637475616c204f776e657200000000000000000000006044820152606401610707565b6000848152600b6020908152604080832073ffffffffffffffffffffffffffffffffffffffff871684528252909120835190916114a7916001840191860190613367565b600061162881611a6e565b61117d612274565b600b6020908152600092835260408084209091529082529020805460018201805473ffffffffffffffffffffffffffffffffffffffff909216929161167490613b78565b80601f01602080910402602001604051908101604052809291908181526020018280546116a090613b78565b80156116ed5780601f106116c2576101008083540402835291602001916116ed565b820191906000526020600020905b8154815290600101906020018083116116d057829003601f168201915b50505050509080600201805461170290613b78565b80601f016020809104026020016040519081016040528092919081815260200182805461172e90613b78565b801561177b5780601f106117505761010080835404028352916020019161177b565b820191906000526020600020905b81548152906001019060200180831161175e57829003601f168201915b50505050509080600301805461179090613b78565b80601f01602080910402602001604051908101604052809291908181526020018280546117bc90613b78565b80156118095780601f106117de57610100808354040283529160200191611809565b820191906000526020600020905b8154815290600101906020018083116117ec57829003601f168201915b50505050509080600401549080600501549080600601549080600701549080600801549080600901549080600a01549080600b015490508c565b60606001805461094a90613b78565b610da9338383612334565b6118673383611cbd565b6118f3576040517f08c379a000000000000000000000000000000000000000000000000000000000815260206004820152603160248201527f4552433732313a207472616e736665722063616c6c6572206973206e6f74206f60448201527f776e6572206e6f7220617070726f7665640000000000000000000000000000006064820152608401610707565b6118ff84848484612462565b50505050565b60606105de82612505565b60008281526008602052604090206001015461192b81611a6e565b610c2f8383611b62565b60608273ffffffffffffffffffffffffffffffffffffffff1661195785611229565b73ffffffffffffffffffffffffffffffffffffffff16146119d4576040517f08c379a000000000000000000000000000000000000000000000000000000000815260206004820152601560248201527f55736572204e6f742041637475616c204f776e657200000000000000000000006044820152606401610707565b6000848152600b6020908152604080832073ffffffffffffffffffffffffffffffffffffffff871684528252909120835190916114a7916002840191860190613367565b60007fffffffff0000000000000000000000000000000000000000000000000000000082167f7965db0b0000000000000000000000000000000000000000000000000000000014806105de57506105de826126b7565b61117d813361279a565b610da982826040518060200160405280600081525061286c565b60008281526002602052604090205473ffffffffffffffffffffffffffffffffffffffff16611b43576040517f08c379a000000000000000000000000000000000000000000000000000000000815260206004820152602e60248201527f45524337323155524953746f726167653a2055524920736574206f66206e6f6e60448201527f6578697374656e7420746f6b656e0000000000000000000000000000000000006064820152608401610707565b60008281526006602090815260409091208251610c2f92840190613367565b600082815260086020908152604080832073ffffffffffffffffffffffffffffffffffffffff8516845290915290205460ff1615610da957600082815260086020908152604080832073ffffffffffffffffffffffffffffffffffffffff8516808552925280832080547fffffffffffffffffffffffffffffffffffffffffffffffffffffffffffffff0016905551339285917ff6391f5c32d9c69d2a47ea670b442974b53935d1edc7fd64eb21e047a839171b9190a45050565b600081815260046020526040902080547fffffffffffffffffffffffff00000000000000000000000000000000000000001673ffffffffffffffffffffffffffffffffffffffff84169081179091558190611c7782611229565b73ffffffffffffffffffffffffffffffffffffffff167f8c5be1e5ebec7d5bd14f71427d1e84f3dd0314c0f7b2291e5b200ac8c7c3b92560405160405180910390a45050565b60008181526002602052604081205473ffffffffffffffffffffffffffffffffffffffff16611d6e576040517f08c379a000000000000000000000000000000000000000000000000000000000815260206004820152602c60248201527f4552433732313a206f70657261746f7220717565727920666f72206e6f6e657860448201527f697374656e7420746f6b656e00000000000000000000000000000000000000006064820152608401610707565b6000611d7983611229565b90508073ffffffffffffffffffffffffffffffffffffffff168473ffffffffffffffffffffffffffffffffffffffff161480611de7575073ffffffffffffffffffffffffffffffffffffffff80821660009081526005602090815260408083209388168352929052205460ff165b80611e2557508373ffffffffffffffffffffffffffffffffffffffff16611e0d846109cd565b73ffffffffffffffffffffffffffffffffffffffff16145b949350505050565b8273ffffffffffffffffffffffffffffffffffffffff16611e4d82611229565b73ffffffffffffffffffffffffffffffffffffffff1614611ef0576040517f08c379a000000000000000000000000000000000000000000000000000000000815260206004820152602560248201527f4552433732313a207472616e736665722066726f6d20696e636f72726563742060448201527f6f776e65720000000000000000000000000000000000000000000000000000006064820152608401610707565b73ffffffffffffffffffffffffffffffffffffffff8216611f92576040517f08c379a0000000000000000000000000000000000000000000000000000000008152602060048201526024808201527f4552433732313a207472616e7366657220746f20746865207a65726f2061646460448201527f72657373000000000000000000000000000000000000000000000000000000006064820152608401610707565b611f9d83838361290f565b611fa8600082611c1d565b73ffffffffffffffffffffffffffffffffffffffff83166000908152600360205260408120805460019290611fde908490613bf5565b909155505073ffffffffffffffffffffffffffffffffffffffff82166000908152600360205260408120805460019290612019908490613c0c565b909155505060008181526002602052604080822080547fffffffffffffffffffffffff00000000000000000000000000000000000000001673ffffffffffffffffffffffffffffffffffffffff86811691821790925591518493918716917fddf252ad1be2c89b69c2b068fc378daa952ba7f163c4a11628f55a4df523b3ef91a4505050565b600082815260086020908152604080832073ffffffffffffffffffffffffffffffffffffffff8516845290915290205460ff16610da957600082815260086020908152604080832073ffffffffffffffffffffffffffffffffffffffff85168452909152902080547fffffffffffffffffffffffffffffffffffffffffffffffffffffffffffffff001660011790556121353390565b73ffffffffffffffffffffffffffffffffffffffff168173ffffffffffffffffffffffffffffffffffffffff16837f2f8788117e7eff1d82e926ec794901d17c78024a50270940304540a733656f0d60405160405180910390a45050565b60075460ff166121ff576040517f08c379a000000000000000000000000000000000000000000000000000000000815260206004820152601460248201527f5061757361626c653a206e6f74207061757365640000000000000000000000006044820152606401610707565b600780547fffffffffffffffffffffffffffffffffffffffffffffffffffffffffffffff001690557f5db9ee0a495bf2e6ff9c91a7834c1ba4fdd244a5e8aa4e537bd38aeae4b073aa335b60405173ffffffffffffffffffffffffffffffffffffffff909116815260200160405180910390a1565b60075460ff16156122e1576040517f08c379a000000000000000000000000000000000000000000000000000000000815260206004820152601060248201527f5061757361626c653a20706175736564000000000000000000000000000000006044820152606401610707565b600780547fffffffffffffffffffffffffffffffffffffffffffffffffffffffffffffff001660011790557f62e78cea01bee320cd4e420270b5ea74000d11b0c9f74754ebdbfc544b05a25861224a3390565b8173ffffffffffffffffffffffffffffffffffffffff168373ffffffffffffffffffffffffffffffffffffffff1614156123ca576040517f08c379a000000000000000000000000000000000000000000000000000000000815260206004820152601960248201527f4552433732313a20617070726f766520746f2063616c6c6572000000000000006044820152606401610707565b73ffffffffffffffffffffffffffffffffffffffff83811660008181526005602090815260408083209487168084529482529182902080547fffffffffffffffffffffffffffffffffffffffffffffffffffffffffffffff001686151590811790915591519182527f17307eab39ab6107e8899845ad3d59bd9653f200f220920489ca2b5937696c31910160405180910390a3505050565b61246d848484611e2d565b61247984848484612b17565b6118ff576040517f08c379a000000000000000000000000000000000000000000000000000000000815260206004820152603260248201527f4552433732313a207472616e7366657220746f206e6f6e20455243373231526560448201527f63656976657220696d706c656d656e74657200000000000000000000000000006064820152608401610707565b60008181526002602052604090205460609073ffffffffffffffffffffffffffffffffffffffff166125b9576040517f08c379a000000000000000000000000000000000000000000000000000000000815260206004820152603160248201527f45524337323155524953746f726167653a2055524920717565727920666f722060448201527f6e6f6e6578697374656e7420746f6b656e0000000000000000000000000000006064820152608401610707565b600082815260066020526040812080546125d290613b78565b80601f01602080910402602001604051908101604052809291908181526020018280546125fe90613b78565b801561264b5780601f106126205761010080835404028352916020019161264b565b820191906000526020600020905b81548152906001019060200180831161262e57829003601f168201915b50505050509050600061266960408051602081019091526000815290565b905080516000141561267c575092915050565b8151156126ae578082604051602001612696929190613c24565b60405160208183030381529060405292505050919050565b611e2584612d07565b60007fffffffff0000000000000000000000000000000000000000000000000000000082167f80ac58cd00000000000000000000000000000000000000000000000000000000148061274a57507fffffffff0000000000000000000000000000000000000000000000000000000082167f5b5e139f00000000000000000000000000000000000000000000000000000000145b806105de57507f01ffc9a7000000000000000000000000000000000000000000000000000000007fffffffff000000000000000000000000000000000000000000000000000000008316146105de565b600082815260086020908152604080832073ffffffffffffffffffffffffffffffffffffffff8516845290915290205460ff16610da9576127f28173ffffffffffffffffffffffffffffffffffffffff166014612e24565b6127fd836020612e24565b60405160200161280e929190613c53565b604080517fffffffffffffffffffffffffffffffffffffffffffffffffffffffffffffffe0818403018152908290527f08c379a000000000000000000000000000000000000000000000000000000000825261070791600401613690565b6128768383613067565b6128836000848484612b17565b610c2f576040517f08c379a000000000000000000000000000000000000000000000000000000000815260206004820152603260248201527f4552433732313a207472616e7366657220746f206e6f6e20455243373231526560448201527f63656976657220696d706c656d656e74657200000000000000000000000000006064820152608401610707565b60075460ff161561297c576040517f08c379a000000000000000000000000000000000000000000000000000000000815260206004820152601060248201527f5061757361626c653a20706175736564000000000000000000000000000000006044820152606401610707565b73ffffffffffffffffffffffffffffffffffffffff821660009081527f5eff886ea0ce6ca488a3d6e336d6c0f75f46d19b42c06ce5ee98e42c96d256c7602052604090205460ff16612a3c576129d1336112db565b600d541015612a3c576040517f08c379a000000000000000000000000000000000000000000000000000000000815260206004820152601c60248201527f526563656976657220486173205265616368204d6178204c696d6974000000006044820152606401610707565b6000818152600b6020908152604080832073ffffffffffffffffffffffffffffffffffffffff80871680865291845282852080547fffffffffffffffffffffffff0000000000000000000000000000000000000000168317905587168452600c80845282852080547fffffffffffffffffffffffffffffffffffffffffffffffffffffffffffffff00908116909155600a8086528487208888528652848720805483169055928652908452828520805482166001908117909155918452828520868652909352922080549091169091179055610c2f83838383565b600073ffffffffffffffffffffffffffffffffffffffff84163b15612cfc576040517f150b7a0200000000000000000000000000000000000000000000000000000000815273ffffffffffffffffffffffffffffffffffffffff85169063150b7a0290612b8e903390899088908890600401613cd4565b6020604051808303816000875af1925050508015612be7575060408051601f3d9081017fffffffffffffffffffffffffffffffffffffffffffffffffffffffffffffffe0168201909252612be491810190613d1d565b60015b612cb1573d808015612c15576040519150601f19603f3d011682016040523d82523d6000602084013e612c1a565b606091505b508051612ca9576040517f08c379a000000000000000000000000000000000000000000000000000000000815260206004820152603260248201527f4552433732313a207472616e7366657220746f206e6f6e20455243373231526560448201527f63656976657220696d706c656d656e74657200000000000000000000000000006064820152608401610707565b805181602001fd5b7fffffffff00000000000000000000000000000000000000000000000000000000167f150b7a0200000000000000000000000000000000000000000000000000000000149050611e25565b506001949350505050565b60008181526002602052604090205460609073ffffffffffffffffffffffffffffffffffffffff16612dbb576040517f08c379a000000000000000000000000000000000000000000000000000000000815260206004820152602f60248201527f4552433732314d657461646174613a2055524920717565727920666f72206e6f60448201527f6e6578697374656e7420746f6b656e00000000000000000000000000000000006064820152608401610707565b6000612dd260408051602081019091526000815290565b90506000815111612df25760405180602001604052806000815250612e1d565b80612dfc84613235565b604051602001612e0d929190613c24565b6040516020818303038152906040525b9392505050565b60606000612e33836002613d3a565b612e3e906002613c0c565b67ffffffffffffffff811115612e5657612e56613474565b6040519080825280601f01601f191660200182016040528015612e80576020820181803683370190505b5090507f300000000000000000000000000000000000000000000000000000000000000081600081518110612eb757612eb7613d77565b60200101907effffffffffffffffffffffffffffffffffffffffffffffffffffffffffffff1916908160001a9053507f780000000000000000000000000000000000000000000000000000000000000081600181518110612f1a57612f1a613d77565b60200101907effffffffffffffffffffffffffffffffffffffffffffffffffffffffffffff1916908160001a9053506000612f56846002613d3a565b612f61906001613c0c565b90505b6001811115612ffe577f303132333435363738396162636465660000000000000000000000000000000085600f1660108110612fa257612fa2613d77565b1a60f81b828281518110612fb857612fb8613d77565b60200101907effffffffffffffffffffffffffffffffffffffffffffffffffffffffffffff1916908160001a90535060049490941c93612ff781613da6565b9050612f64565b508315612e1d576040517f08c379a000000000000000000000000000000000000000000000000000000000815260206004820181905260248201527f537472696e67733a20686578206c656e67746820696e73756666696369656e746044820152606401610707565b73ffffffffffffffffffffffffffffffffffffffff82166130e4576040517f08c379a000000000000000000000000000000000000000000000000000000000815260206004820181905260248201527f4552433732313a206d696e7420746f20746865207a65726f20616464726573736044820152606401610707565b60008181526002602052604090205473ffffffffffffffffffffffffffffffffffffffff1615613170576040517f08c379a000000000000000000000000000000000000000000000000000000000815260206004820152601c60248201527f4552433732313a20746f6b656e20616c7265616479206d696e746564000000006044820152606401610707565b61317c6000838361290f565b73ffffffffffffffffffffffffffffffffffffffff821660009081526003602052604081208054600192906131b2908490613c0c565b909155505060008181526002602052604080822080547fffffffffffffffffffffffff00000000000000000000000000000000000000001673ffffffffffffffffffffffffffffffffffffffff861690811790915590518392907fddf252ad1be2c89b69c2b068fc378daa952ba7f163c4a11628f55a4df523b3ef908290a45050565b60608161327557505060408051808201909152600181527f3000000000000000000000000000000000000000000000000000000000000000602082015290565b8160005b811561329f578061328981613ddb565b91506132989050600a83613e43565b9150613279565b60008167ffffffffffffffff8111156132ba576132ba613474565b6040519080825280601f01601f1916602001820160405280156132e4576020820181803683370190505b5090505b8415611e25576132f9600183613bf5565b9150613306600a86613e57565b613311906030613c0c565b60f81b81838151811061332657613326613d77565b60200101907effffffffffffffffffffffffffffffffffffffffffffffffffffffffffffff1916908160001a905350613360600a86613e43565b94506132e8565b82805461337390613b78565b90600052602060002090601f01602090048101928261339557600085556133db565b82601f106133ae57805160ff19168380011785556133db565b828001600101855582156133db579182015b828111156133db5782518255916020019190600101906133c0565b506133e79291506133eb565b5090565b5b808211156133e757600081556001016133ec565b7fffffffff000000000000000000000000000000000000000000000000000000008116811461117d57600080fd5b60006020828403121561344057600080fd5b8135612e1d81613400565b803573ffffffffffffffffffffffffffffffffffffffff8116811461346f57600080fd5b919050565b7f4e487b7100000000000000000000000000000000000000000000000000000000600052604160045260246000fd5b604051610180810167ffffffffffffffff811182821017156134c7576134c7613474565b60405290565b600067ffffffffffffffff808411156134e8576134e8613474565b604051601f85017fffffffffffffffffffffffffffffffffffffffffffffffffffffffffffffffe0908116603f0116810190828211818310171561352e5761352e613474565b8160405280935085815286868601111561354757600080fd5b858560208301376000602087830101525050509392505050565b600082601f83011261357257600080fd5b612e1d838335602085016134cd565b6000806000806080858703121561359757600080fd5b6135a08561344b565b9350602085013567ffffffffffffffff808211156135bd57600080fd5b6135c988838901613561565b945060408701359150808211156135df57600080fd5b6135eb88838901613561565b9350606087013591508082111561360157600080fd5b5061360e87828801613561565b91505092959194509250565b60005b8381101561363557818101518382015260200161361d565b838111156118ff5750506000910152565b6000815180845261365e81602086016020860161361a565b601f017fffffffffffffffffffffffffffffffffffffffffffffffffffffffffffffffe0169290920160200192915050565b602081526000612e1d6020830184613646565b6000602082840312156136b557600080fd5b5035919050565b600080604083850312156136cf57600080fd5b6136d88361344b565b946020939093013593505050565b6000806000606084860312156136fb57600080fd5b6137048461344b565b92506137126020850161344b565b9150604084013590509250925092565b6000806040838503121561373557600080fd5b823591506137456020840161344b565b90509250929050565b60006020828403121561376057600080fd5b612e1d8261344b565b60008060006060848603121561377e57600080fd5b8335925061378e6020850161344b565b9150604084013567ffffffffffffffff808211156137ab57600080fd5b9085019061018082880312156137c057600080fd5b6137c86134a3565b6137d18361344b565b81526020830135828111156137e557600080fd5b6137f189828601613561565b60208301525060408301358281111561380957600080fd5b61381589828601613561565b60408301525060608301358281111561382d57600080fd5b61383989828601613561565b6060830152506080838101359082015260a0808401359082015260c0808401359082015260e0808401359082015261010080840135908201526101208084013590820152610140808401359082015261016092830135928101929092525092959194509192509050565b602081526138ca60208201835173ffffffffffffffffffffffffffffffffffffffff169052565b600060208301516101808060408501526138e86101a0850183613646565b915060408501517fffffffffffffffffffffffffffffffffffffffffffffffffffffffffffffffe0808685030160608701526139248483613646565b93506060870151915080868503016080870152506139428382613646565b608087015160a08781019190915287015160c08088019190915287015160e08088019190915287015161010080880191909152870151610120808801919091528701516101408088019190915287015161016080880191909152909601519190940152509192915050565b6000806000606084860312156139c257600080fd5b833592506139d26020850161344b565b9150604084013567ffffffffffffffff8111156139ee57600080fd5b6139fa86828701613561565b9150509250925092565b600061018073ffffffffffffffffffffffffffffffffffffffff8f168352806020840152613a348184018f613646565b90508281036040840152613a48818e613646565b90508281036060840152613a5c818d613646565b608084019b909b52505060a081019790975260c087019590955260e086019390935261010085019190915261012084015261014083015261016090910152949350505050565b60008060408385031215613ab557600080fd5b613abe8361344b565b915060208301358015158114613ad357600080fd5b809150509250929050565b60008060008060808587031215613af457600080fd5b613afd8561344b565b9350613b0b6020860161344b565b925060408501359150606085013567ffffffffffffffff811115613b2e57600080fd5b8501601f81018713613b3f57600080fd5b61360e878235602084016134cd565b60008060408385031215613b6157600080fd5b613b6a8361344b565b91506137456020840161344b565b600181811c90821680613b8c57607f821691505b602082108114156113be577f4e487b7100000000000000000000000000000000000000000000000000000000600052602260045260246000fd5b7f4e487b7100000000000000000000000000000000000000000000000000000000600052601160045260246000fd5b600082821015613c0757613c07613bc6565b500390565b60008219821115613c1f57613c1f613bc6565b500190565b60008351613c3681846020880161361a565b835190830190613c4a81836020880161361a565b01949350505050565b7f416363657373436f6e74726f6c3a206163636f756e7420000000000000000000815260008351613c8b81601785016020880161361a565b7f206973206d697373696e6720726f6c65200000000000000000000000000000006017918401918201528351613cc881602884016020880161361a565b01602801949350505050565b600073ffffffffffffffffffffffffffffffffffffffff808716835280861660208401525083604083015260806060830152613d136080830184613646565b9695505050505050565b600060208284031215613d2f57600080fd5b8151612e1d81613400565b6000817fffffffffffffffffffffffffffffffffffffffffffffffffffffffffffffffff0483118215151615613d7257613d72613bc6565b500290565b7f4e487b7100000000000000000000000000000000000000000000000000000000600052603260045260246000fd5b600081613db557613db5613bc6565b507fffffffffffffffffffffffffffffffffffffffffffffffffffffffffffffffff0190565b60007fffffffffffffffffffffffffffffffffffffffffffffffffffffffffffffffff821415613e0d57613e0d613bc6565b5060010190565b7f4e487b7100000000000000000000000000000000000000000000000000000000600052601260045260246000fd5b600082613e5257613e52613e14565b500490565b600082613e6657613e66613e14565b50069056fea2646970667358221220723b01e70396d2e6e8f93c76dbc024a087400c8a6d62dbe1b6c936ac2c3b47ac64736f6c634300080b0033",
  "linkReferences": {},
  "deployedLinkReferences": {}
}