{
  "_format": "hh-sol-artifact-1",
  "contractName": "MemberShip",
  "sourceName": "contracts/MemberShip.sol",
  "abi": [
    {
      "inputs": [
        {
          "internalType": "address",
          "name": "_gnosis",
          "type": "address"
        },
        {
          "internalType": "address",
          "name": "_oracle",
          "type": "address"
        }
      ],
      "stateMutability": "nonpayable",
      "type": "constructor"
    },
    {
      "anonymous": false,
      "inputs": [
        {
          "indexed": true,
          "internalType": "address",
          "name": "owner",
          "type": "address"
        },
        {
          "indexed": true,
          "internalType": "address",
          "name": "approved",
          "type": "address"
        },
        {
          "indexed": true,
          "internalType": "uint256",
          "name": "tokenId",
          "type": "uint256"
        }
      ],
      "name": "Approval",
      "type": "event"
    },
    {
      "anonymous": false,
      "inputs": [
        {
          "indexed": true,
          "internalType": "address",
          "name": "owner",
          "type": "address"
        },
        {
          "indexed": true,
          "internalType": "address",
          "name": "operator",
          "type": "address"
        },
        {
          "indexed": false,
          "internalType": "bool",
          "name": "approved",
          "type": "bool"
        }
      ],
      "name": "ApprovalForAll",
      "type": "event"
    },
    {
      "anonymous": false,
      "inputs": [
        {
          "indexed": false,
          "internalType": "address",
          "name": "account",
          "type": "address"
        }
      ],
      "name": "Paused",
      "type": "event"
    },
    {
      "anonymous": false,
      "inputs": [
        {
          "indexed": true,
          "internalType": "bytes32",
          "name": "role",
          "type": "bytes32"
        },
        {
          "indexed": true,
          "internalType": "bytes32",
          "name": "previousAdminRole",
          "type": "bytes32"
        },
        {
          "indexed": true,
          "internalType": "bytes32",
          "name": "newAdminRole",
          "type": "bytes32"
        }
      ],
      "name": "RoleAdminChanged",
      "type": "event"
    },
    {
      "anonymous": false,
      "inputs": [
        {
          "indexed": true,
          "internalType": "bytes32",
          "name": "role",
          "type": "bytes32"
        },
        {
          "indexed": true,
          "internalType": "address",
          "name": "account",
          "type": "address"
        },
        {
          "indexed": true,
          "internalType": "address",
          "name": "sender",
          "type": "address"
        }
      ],
      "name": "RoleGranted",
      "type": "event"
    },
    {
      "anonymous": false,
      "inputs": [
        {
          "indexed": true,
          "internalType": "bytes32",
          "name": "role",
          "type": "bytes32"
        },
        {
          "indexed": true,
          "internalType": "address",
          "name": "account",
          "type": "address"
        },
        {
          "indexed": true,
          "internalType": "address",
          "name": "sender",
          "type": "address"
        }
      ],
      "name": "RoleRevoked",
      "type": "event"
    },
    {
      "anonymous": false,
      "inputs": [
        {
          "indexed": true,
          "internalType": "address",
          "name": "from",
          "type": "address"
        },
        {
          "indexed": true,
          "internalType": "address",
          "name": "to",
          "type": "address"
        },
        {
          "indexed": true,
          "internalType": "uint256",
          "name": "tokenId",
          "type": "uint256"
        }
      ],
      "name": "Transfer",
      "type": "event"
    },
    {
      "anonymous": false,
      "inputs": [
        {
          "indexed": false,
          "internalType": "address",
          "name": "account",
          "type": "address"
        }
      ],
      "name": "Unpaused",
      "type": "event"
    },
    {
      "inputs": [],
      "name": "DEFAULT_ADMIN_ROLE",
      "outputs": [
        {
          "internalType": "bytes32",
          "name": "",
          "type": "bytes32"
        }
      ],
      "stateMutability": "view",
      "type": "function"
    },
    {
      "inputs": [],
      "name": "MINTER_ROLE",
      "outputs": [
        {
          "internalType": "bytes32",
          "name": "",
          "type": "bytes32"
        }
      ],
      "stateMutability": "view",
      "type": "function"
    },
    {
      "inputs": [],
      "name": "PAUSER_ROLE",
      "outputs": [
        {
          "internalType": "bytes32",
          "name": "",
          "type": "bytes32"
        }
      ],
      "stateMutability": "view",
      "type": "function"
    },
    {
      "inputs": [
        {
          "internalType": "address",
          "name": "to",
          "type": "address"
        },
        {
          "internalType": "uint256",
          "name": "tokenId",
          "type": "uint256"
        }
      ],
      "name": "approve",
      "outputs": [],
      "stateMutability": "nonpayable",
      "type": "function"
    },
    {
      "inputs": [
        {
          "internalType": "address",
          "name": "owner",
          "type": "address"
        }
      ],
      "name": "balanceOf",
      "outputs": [
        {
          "internalType": "uint256",
          "name": "",
          "type": "uint256"
        }
      ],
      "stateMutability": "view",
      "type": "function"
    },
    {
      "inputs": [
        {
          "internalType": "uint256",
          "name": "_oldUserIndex",
          "type": "uint256"
        }
      ],
      "name": "deleteFromMemberList",
      "outputs": [
        {
          "internalType": "address[]",
          "name": "",
          "type": "address[]"
        }
      ],
      "stateMutability": "nonpayable",
      "type": "function"
    },
    {
      "inputs": [
        {
          "internalType": "address",
          "name": "_userToFind",
          "type": "address"
        }
      ],
      "name": "findUserMemberListIndex",
      "outputs": [
        {
          "internalType": "int256",
          "name": "",
          "type": "int256"
        }
      ],
      "stateMutability": "view",
      "type": "function"
    },
    {
      "inputs": [
        {
          "internalType": "uint256",
          "name": "tokenId",
          "type": "uint256"
        }
      ],
      "name": "getApproved",
      "outputs": [
        {
          "internalType": "address",
          "name": "",
          "type": "address"
        }
      ],
      "stateMutability": "view",
      "type": "function"
    },
    {
      "inputs": [
        {
          "internalType": "bytes32",
          "name": "role",
          "type": "bytes32"
        }
      ],
      "name": "getRoleAdmin",
      "outputs": [
        {
          "internalType": "bytes32",
          "name": "",
          "type": "bytes32"
        }
      ],
      "stateMutability": "view",
      "type": "function"
    },
    {
      "inputs": [
        {
          "internalType": "bytes32",
          "name": "role",
          "type": "bytes32"
        },
        {
          "internalType": "address",
          "name": "account",
          "type": "address"
        }
      ],
      "name": "grantRole",
      "outputs": [],
      "stateMutability": "nonpayable",
      "type": "function"
    },
    {
      "inputs": [
        {
          "internalType": "bytes32",
          "name": "role",
          "type": "bytes32"
        },
        {
          "internalType": "address",
          "name": "account",
          "type": "address"
        }
      ],
      "name": "hasRole",
      "outputs": [
        {
          "internalType": "bool",
          "name": "",
          "type": "bool"
        }
      ],
      "stateMutability": "view",
      "type": "function"
    },
    {
      "inputs": [
        {
          "internalType": "address",
          "name": "owner",
          "type": "address"
        },
        {
          "internalType": "address",
          "name": "operator",
          "type": "address"
        }
      ],
      "name": "isApprovedForAll",
      "outputs": [
        {
          "internalType": "bool",
          "name": "",
          "type": "bool"
        }
      ],
      "stateMutability": "view",
      "type": "function"
    },
    {
      "inputs": [
        {
          "internalType": "address",
          "name": "",
          "type": "address"
        }
      ],
      "name": "isOwner",
      "outputs": [
        {
          "internalType": "bool",
          "name": "",
          "type": "bool"
        }
      ],
      "stateMutability": "view",
      "type": "function"
    },
    {
      "inputs": [
        {
          "internalType": "address",
          "name": "",
          "type": "address"
        },
        {
          "internalType": "uint256",
          "name": "",
          "type": "uint256"
        }
      ],
      "name": "isOwnerOf",
      "outputs": [
        {
          "internalType": "bool",
          "name": "",
          "type": "bool"
        }
      ],
      "stateMutability": "view",
      "type": "function"
    },
    {
      "inputs": [],
      "name": "maxCap",
      "outputs": [
        {
          "internalType": "uint256",
          "name": "",
          "type": "uint256"
        }
      ],
      "stateMutability": "view",
      "type": "function"
    },
    {
      "inputs": [
        {
          "internalType": "uint256",
          "name": "",
          "type": "uint256"
        }
      ],
      "name": "memberList",
      "outputs": [
        {
          "internalType": "address",
          "name": "",
          "type": "address"
        }
      ],
      "stateMutability": "view",
      "type": "function"
    },
    {
      "inputs": [],
      "name": "membershipUri",
      "outputs": [
        {
          "internalType": "string",
          "name": "",
          "type": "string"
        }
      ],
      "stateMutability": "view",
      "type": "function"
    },
    {
      "inputs": [],
      "name": "name",
      "outputs": [
        {
          "internalType": "string",
          "name": "",
          "type": "string"
        }
      ],
      "stateMutability": "view",
      "type": "function"
    },
    {
      "inputs": [
        {
          "internalType": "uint256",
          "name": "tokenId",
          "type": "uint256"
        }
      ],
      "name": "ownerOf",
      "outputs": [
        {
          "internalType": "address",
          "name": "",
          "type": "address"
        }
      ],
      "stateMutability": "view",
      "type": "function"
    },
    {
      "inputs": [],
      "name": "pause",
      "outputs": [],
      "stateMutability": "nonpayable",
      "type": "function"
    },
    {
      "inputs": [],
      "name": "paused",
      "outputs": [
        {
          "internalType": "bool",
          "name": "",
          "type": "bool"
        }
      ],
      "stateMutability": "view",
      "type": "function"
    },
    {
      "inputs": [
        {
          "internalType": "bytes32",
          "name": "role",
          "type": "bytes32"
        },
        {
          "internalType": "address",
          "name": "account",
          "type": "address"
        }
      ],
      "name": "renounceRole",
      "outputs": [],
      "stateMutability": "nonpayable",
      "type": "function"
    },
    {
      "inputs": [],
      "name": "retrieveMembersAddress",
      "outputs": [
        {
          "internalType": "address[]",
          "name": "",
          "type": "address[]"
        }
      ],
      "stateMutability": "view",
      "type": "function"
    },
    {
      "inputs": [
        {
          "internalType": "bytes32",
          "name": "role",
          "type": "bytes32"
        },
        {
          "internalType": "address",
          "name": "account",
          "type": "address"
        }
      ],
      "name": "revokeRole",
      "outputs": [],
      "stateMutability": "nonpayable",
      "type": "function"
    },
    {
      "inputs": [
        {
          "internalType": "address",
          "name": "_to",
          "type": "address"
        },
        {
          "internalType": "string",
          "name": "_userName",
          "type": "string"
        },
        {
          "internalType": "string",
          "name": "_email",
          "type": "string"
        },
        {
          "internalType": "string",
          "name": "_twitterUserName",
          "type": "string"
        }
      ],
      "name": "safeMint",
      "outputs": [
        {
          "components": [
            {
              "internalType": "address",
              "name": "owner",
              "type": "address"
            },
            {
              "internalType": "string",
              "name": "userName",
              "type": "string"
            },
            {
              "internalType": "string",
              "name": "email",
              "type": "string"
            },
            {
              "internalType": "string",
              "name": "twitterUserName",
              "type": "string"
            },
            {
              "internalType": "uint256",
              "name": "experience",
              "type": "uint256"
            },
            {
              "internalType": "uint256",
              "name": "questAccepted",
              "type": "uint256"
            },
            {
              "internalType": "uint256",
              "name": "questCompleted",
              "type": "uint256"
            },
            {
              "internalType": "uint256",
              "name": "daoProposalCreated",
              "type": "uint256"
            },
            {
              "internalType": "uint256",
              "name": "daoProposalCreatedAccepted",
              "type": "uint256"
            },
            {
              "internalType": "uint256",
              "name": "daoProposalVoted",
              "type": "uint256"
            },
            {
              "internalType": "uint256",
              "name": "challengeReceived",
              "type": "uint256"
            },
            {
              "internalType": "uint256",
              "name": "friendChallenged",
              "type": "uint256"
            }
          ],
          "internalType": "struct MemberShip.UserProfil",
          "name": "",
          "type": "tuple"
        }
      ],
      "stateMutability": "nonpayable",
      "type": "function"
    },
    {
      "inputs": [
        {
          "internalType": "address",
          "name": "from",
          "type": "address"
        },
        {
          "internalType": "address",
          "name": "to",
          "type": "address"
        },
        {
          "internalType": "uint256",
          "name": "tokenId",
          "type": "uint256"
        }
      ],
      "name": "safeTransferFrom",
      "outputs": [],
      "stateMutability": "nonpayable",
      "type": "function"
    },
    {
      "inputs": [
        {
          "internalType": "address",
          "name": "from",
          "type": "address"
        },
        {
          "internalType": "address",
          "name": "to",
          "type": "address"
        },
        {
          "internalType": "uint256",
          "name": "tokenId",
          "type": "uint256"
        },
        {
          "internalType": "bytes",
          "name": "_data",
          "type": "bytes"
        }
      ],
      "name": "safeTransferFrom",
      "outputs": [],
      "stateMutability": "nonpayable",
      "type": "function"
    },
    {
      "inputs": [
        {
          "internalType": "address",
          "name": "operator",
          "type": "address"
        },
        {
          "internalType": "bool",
          "name": "approved",
          "type": "bool"
        }
      ],
      "name": "setApprovalForAll",
      "outputs": [],
      "stateMutability": "nonpayable",
      "type": "function"
    },
    {
      "inputs": [
        {
          "internalType": "uint256",
          "name": "_newMaxCap",
          "type": "uint256"
        }
      ],
      "name": "setMaxCap",
      "outputs": [
        {
          "internalType": "uint256",
          "name": "",
          "type": "uint256"
        }
      ],
      "stateMutability": "nonpayable",
      "type": "function"
    },
    {
      "inputs": [
        {
          "internalType": "bytes4",
          "name": "interfaceId",
          "type": "bytes4"
        }
      ],
      "name": "supportsInterface",
      "outputs": [
        {
          "internalType": "bool",
          "name": "",
          "type": "bool"
        }
      ],
      "stateMutability": "view",
      "type": "function"
    },
    {
      "inputs": [],
      "name": "symbol",
      "outputs": [
        {
          "internalType": "string",
          "name": "",
          "type": "string"
        }
      ],
      "stateMutability": "view",
      "type": "function"
    },
    {
      "inputs": [
        {
          "internalType": "uint256",
          "name": "tokenId",
          "type": "uint256"
        }
      ],
      "name": "tokenURI",
      "outputs": [
        {
          "internalType": "string",
          "name": "",
          "type": "string"
        }
      ],
      "stateMutability": "view",
      "type": "function"
    },
    {
      "inputs": [
        {
          "internalType": "address",
          "name": "from",
          "type": "address"
        },
        {
          "internalType": "address",
          "name": "to",
          "type": "address"
        },
        {
          "internalType": "uint256",
          "name": "tokenId",
          "type": "uint256"
        }
      ],
      "name": "transferFrom",
      "outputs": [],
      "stateMutability": "nonpayable",
      "type": "function"
    },
    {
      "inputs": [],
      "name": "unpause",
      "outputs": [],
      "stateMutability": "nonpayable",
      "type": "function"
    },
    {
      "inputs": [
        {
          "internalType": "uint256",
          "name": "_tokenId",
          "type": "uint256"
        },
        {
          "internalType": "address",
          "name": "_user",
          "type": "address"
        },
        {
          "internalType": "string",
          "name": "_newEmail",
          "type": "string"
        }
      ],
      "name": "updateEmail",
      "outputs": [
        {
          "internalType": "string",
          "name": "",
          "type": "string"
        }
      ],
      "stateMutability": "nonpayable",
      "type": "function"
    },
    {
      "inputs": [
        {
          "internalType": "uint256",
          "name": "_tokenId",
          "type": "uint256"
        },
        {
          "internalType": "address",
          "name": "_user",
          "type": "address"
        },
        {
          "internalType": "string",
          "name": "_newTwitterUserName",
          "type": "string"
        }
      ],
      "name": "updateTwitterUserName",
      "outputs": [
        {
          "internalType": "string",
          "name": "",
          "type": "string"
        }
      ],
      "stateMutability": "nonpayable",
      "type": "function"
    },
    {
      "inputs": [
        {
          "internalType": "uint256",
          "name": "_tokenId",
          "type": "uint256"
        },
        {
          "internalType": "address",
          "name": "_user",
          "type": "address"
        },
        {
          "internalType": "string",
          "name": "_newUserName",
          "type": "string"
        }
      ],
      "name": "updateUserName",
      "outputs": [
        {
          "internalType": "string",
          "name": "",
          "type": "string"
        }
      ],
      "stateMutability": "nonpayable",
      "type": "function"
    },
    {
      "inputs": [
        {
          "internalType": "uint256",
          "name": "_tokenId",
          "type": "uint256"
        },
        {
          "internalType": "address",
          "name": "_user",
          "type": "address"
        },
        {
          "components": [
            {
              "internalType": "address",
              "name": "owner",
              "type": "address"
            },
            {
              "internalType": "string",
              "name": "userName",
              "type": "string"
            },
            {
              "internalType": "string",
              "name": "email",
              "type": "string"
            },
            {
              "internalType": "string",
              "name": "twitterUserName",
              "type": "string"
            },
            {
              "internalType": "uint256",
              "name": "experience",
              "type": "uint256"
            },
            {
              "internalType": "uint256",
              "name": "questAccepted",
              "type": "uint256"
            },
            {
              "internalType": "uint256",
              "name": "questCompleted",
              "type": "uint256"
            },
            {
              "internalType": "uint256",
              "name": "daoProposalCreated",
              "type": "uint256"
            },
            {
              "internalType": "uint256",
              "name": "daoProposalCreatedAccepted",
              "type": "uint256"
            },
            {
              "internalType": "uint256",
              "name": "daoProposalVoted",
              "type": "uint256"
            },
            {
              "internalType": "uint256",
              "name": "challengeReceived",
              "type": "uint256"
            },
            {
              "internalType": "uint256",
              "name": "friendChallenged",
              "type": "uint256"
            }
          ],
          "internalType": "struct MemberShip.UserProfil",
          "name": "_newProfil",
          "type": "tuple"
        }
      ],
      "name": "updateUserProfil",
      "outputs": [
        {
          "components": [
            {
              "internalType": "address",
              "name": "owner",
              "type": "address"
            },
            {
              "internalType": "string",
              "name": "userName",
              "type": "string"
            },
            {
              "internalType": "string",
              "name": "email",
              "type": "string"
            },
            {
              "internalType": "string",
              "name": "twitterUserName",
              "type": "string"
            },
            {
              "internalType": "uint256",
              "name": "experience",
              "type": "uint256"
            },
            {
              "internalType": "uint256",
              "name": "questAccepted",
              "type": "uint256"
            },
            {
              "internalType": "uint256",
              "name": "questCompleted",
              "type": "uint256"
            },
            {
              "internalType": "uint256",
              "name": "daoProposalCreated",
              "type": "uint256"
            },
            {
              "internalType": "uint256",
              "name": "daoProposalCreatedAccepted",
              "type": "uint256"
            },
            {
              "internalType": "uint256",
              "name": "daoProposalVoted",
              "type": "uint256"
            },
            {
              "internalType": "uint256",
              "name": "challengeReceived",
              "type": "uint256"
            },
            {
              "internalType": "uint256",
              "name": "friendChallenged",
              "type": "uint256"
            }
          ],
          "internalType": "struct MemberShip.UserProfil",
          "name": "",
          "type": "tuple"
        }
      ],
      "stateMutability": "nonpayable",
      "type": "function"
    },
    {
      "inputs": [
        {
          "internalType": "uint256",
          "name": "",
          "type": "uint256"
        },
        {
          "internalType": "address",
          "name": "",
          "type": "address"
        }
      ],
      "name": "userProfil",
      "outputs": [
        {
          "internalType": "address",
          "name": "owner",
          "type": "address"
        },
        {
          "internalType": "string",
          "name": "userName",
          "type": "string"
        },
        {
          "internalType": "string",
          "name": "email",
          "type": "string"
        },
        {
          "internalType": "string",
          "name": "twitterUserName",
          "type": "string"
        },
        {
          "internalType": "uint256",
          "name": "experience",
          "type": "uint256"
        },
        {
          "internalType": "uint256",
          "name": "questAccepted",
          "type": "uint256"
        },
        {
          "internalType": "uint256",
          "name": "questCompleted",
          "type": "uint256"
        },
        {
          "internalType": "uint256",
          "name": "daoProposalCreated",
          "type": "uint256"
        },
        {
          "internalType": "uint256",
          "name": "daoProposalCreatedAccepted",
          "type": "uint256"
        },
        {
          "internalType": "uint256",
          "name": "daoProposalVoted",
          "type": "uint256"
        },
        {
          "internalType": "uint256",
          "name": "challengeReceived",
          "type": "uint256"
        },
        {
          "internalType": "uint256",
          "name": "friendChallenged",
          "type": "uint256"
        }
      ],
      "stateMutability": "view",
      "type": "function"
    }
  ],
  "bytecode": "0x60806040523480156200001157600080fd5b50604051620047e3380380620047e38339810160408190526200003491620002e4565b604080518082018252600e81526d0506f4c2d4d656d626572736869760941b602080830191825283518085019094526004845263504f4c4d60e01b908401528151919291620000869160009162000221565b5080516200009c90600190602084019062000221565b50506007805460ff1916905550620000b66000836200017c565b620000c36000826200017c565b620000d06000306200017c565b620000fc7f65d7a28e3265b37a6474929f336521b332c1681b933f6cb9f3376673440d862a836200017c565b620001287f9f2df0fed2c77648de5860a4cc508cd0818c85b8b8a1ab4ceeef8d981c8956a6836200017c565b6001600e556040805180820190915260168082527f557269546573744e6565644772617068697374653c330000000000000000000060209092019182526200017391600f9162000221565b50505062000359565b60008281526008602090815260408083206001600160a01b038516845290915290205460ff166200021d5760008281526008602090815260408083206001600160a01b03851684529091529020805460ff19166001179055620001dc3390565b6001600160a01b0316816001600160a01b0316837f2f8788117e7eff1d82e926ec794901d17c78024a50270940304540a733656f0d60405160405180910390a45b5050565b8280546200022f906200031c565b90600052602060002090601f0160209004810192826200025357600085556200029e565b82601f106200026e57805160ff19168380011785556200029e565b828001600101855582156200029e579182015b828111156200029e57825182559160200191906001019062000281565b50620002ac929150620002b0565b5090565b5b80821115620002ac5760008155600101620002b1565b80516001600160a01b0381168114620002df57600080fd5b919050565b60008060408385031215620002f857600080fd5b6200030383620002c7565b91506200031360208401620002c7565b90509250929050565b600181811c908216806200033157607f821691505b602082108114156200035357634e487b7160e01b600052602260045260246000fd5b50919050565b61447a80620003696000396000f3fe608060405234801561001057600080fd5b50600436106102ad5760003560e01c806370a082311161017b578063b307fc6d116100d8578063d53913931161008c578063d5c4d5d611610071578063d5c4d5d61461060a578063e63ab1e91461061d578063e985e9c51461064457600080fd5b8063d5391393146105d0578063d547741f146105f757600080fd5b8063c5222e37116100bd578063c5222e371461057c578063c5b8f7721461058f578063c87b56dd146105bd57600080fd5b8063b307fc6d14610556578063b88d4fde1461056957600080fd5b806391d148541161012f57806395d89b411161011457806395d89b4114610533578063a217fddf1461053b578063a22cb4651461054357600080fd5b806391d14854146104c2578063942ee8ba1461050857600080fd5b80637e8139c4116101605780637e8139c414610494578063843d579d146104a75780638456cb59146104ba57600080fd5b806370a082311461046e578063763265de1461048157600080fd5b80632f2ff15d1161022957806342842e0e116101dd57806353d831b1116101c257806353d831b1146104485780635c975abb146104505780636352211e1461045b57600080fd5b806342842e0e1461042d5780634fbfd7a81461044057600080fd5b806336568abe1161020e57806336568abe146103ff5780633e81d91e146104125780633f4ba83a1461042557600080fd5b80632f2ff15d146103c95780632f54bf6e146103dc57600080fd5b8063081812fc1161028057806323548b8b1161026557806323548b8b1461037c57806323b872dd14610393578063248a9ca3146103a657600080fd5b8063081812fc1461032f578063095ea7b31461036757600080fd5b806301ffc9a7146102b257806303a80dfb146102da57806306d3aa7a146102fa57806306fdde031461031a575b600080fd5b6102c56102c036600461397e565b61068d565b60405190151581526020015b60405180910390f35b6102ed6102e8366004613ad1565b61069e565b6040516102d19190613be0565b61030d610308366004613cea565b610b8c565b6040516102d19190613d03565b610322610d12565b6040516102d19190613d5d565b61034261033d366004613cea565b610da4565b60405173ffffffffffffffffffffffffffffffffffffffff90911681526020016102d1565b61037a610375366004613d70565b610e83565b005b610385600e5481565b6040519081526020016102d1565b61037a6103a1366004613d9a565b611010565b6103856103b4366004613cea565b60009081526008602052604090206001015490565b61037a6103d7366004613dd6565b6110b1565b6102c56103ea366004613e02565b600c6020526000908152604090205460ff1681565b61037a61040d366004613dd6565b6110d6565b6102ed610420366004613e1d565b611189565b61037a611546565b61037a61043b366004613d9a565b61155c565b610322611577565b61030d611605565b60075460ff166102c5565b610342610469366004613cea565b611673565b61038561047c366004613e02565b611725565b61038561048f366004613cea565b6117f3565b6103226104a2366004613f57565b611809565b6103226104b5366004613f57565b61197f565b61037a611a62565b6102c56104d0366004613dd6565b600091825260086020908152604080842073ffffffffffffffffffffffffffffffffffffffff93909316845291905290205460ff1690565b61051b610516366004613dd6565b611a75565b6040516102d19c9b9a99989796959493929190613fae565b610322611c88565b610385600081565b61037a61055136600461404c565b611c97565b610342610564366004613cea565b611ca2565b61037a610577366004614088565b611cd9565b61038561058a366004613e02565b611d81565b6102c561059d366004613d70565b600a60209081526000928352604080842090915290825290205460ff1681565b6103226105cb366004613cea565b611e21565b6103857f9f2df0fed2c77648de5860a4cc508cd0818c85b8b8a1ab4ceeef8d981c8956a681565b61037a610605366004613dd6565b611e2c565b610322610618366004613f57565b611e51565b6103857f65d7a28e3265b37a6474929f336521b332c1681b933f6cb9f3376673440d862a81565b6102c56106523660046140f8565b73ffffffffffffffffffffffffffffffffffffffff918216600090815260056020908152604080832093909416825291909152205460ff1690565b600061069882611f34565b92915050565b610718604051806101800160405280600073ffffffffffffffffffffffffffffffffffffffff16815260200160608152602001606081526020016060815260200160008152602001600081526020016000815260200160008152602001600081526020016000815260200160008152602001600081525090565b600061072360095490565b6000818152600b6020908152604080832073ffffffffffffffffffffffffffffffffffffffff8b1684529091529020909150610763600980546001019055565b61076d8783611f8a565b61080182600f805461077e90614122565b80601f01602080910402602001604051908101604052809291908181526020018280546107aa90614122565b80156107f75780601f106107cc576101008083540402835291602001916107f7565b820191906000526020600020905b8154815290600101906020018083116107da57829003601f168201915b5050505050611fa4565b73ffffffffffffffffffffffffffffffffffffffff87166000818152600a602090815260408083208684528252808320805460017fffffffffffffffffffffffffffffffffffffffffffffffffffffffffffffff009182168117909255858552600c84529190932080549091168317905583547fffffffffffffffffffffffff000000000000000000000000000000000000000016909217835587516108ad92918401918901906138b7565b5084516108c390600283019060208801906138b7565b5083516108d990600383019060208701906138b7565b50600d805460018082019092557fd7b6990105719101dabeb77144f2a3385c8033acd3af97e9423a695e81ad1eb50180547fffffffffffffffffffffffff00000000000000000000000000000000000000001673ffffffffffffffffffffffffffffffffffffffff8a81169182179092556000858152600b602090815260408083209383529281529082902082516101808101909352805490931682529282018054919384019161098990614122565b80601f01602080910402602001604051908101604052809291908181526020018280546109b590614122565b8015610a025780601f106109d757610100808354040283529160200191610a02565b820191906000526020600020905b8154815290600101906020018083116109e557829003601f168201915b50505050508152602001600282018054610a1b90614122565b80601f0160208091040260200160405190810160405280929190818152602001828054610a4790614122565b8015610a945780601f10610a6957610100808354040283529160200191610a94565b820191906000526020600020905b815481529060010190602001808311610a7757829003601f168201915b50505050508152602001600382018054610aad90614122565b80601f0160208091040260200160405190810160405280929190818152602001828054610ad990614122565b8015610b265780601f10610afb57610100808354040283529160200191610b26565b820191906000526020600020905b815481529060010190602001808311610b0957829003601f168201915b50505050508152602001600482015481526020016005820154815260200160068201548152602001600782015481526020016008820154815260200160098201548152602001600a8201548152602001600b82015481525050925050505b949350505050565b60606000610b9981612074565b600d8054610ba99060019061419f565b81548110610bb957610bb96141b6565b600091825260209091200154600d805473ffffffffffffffffffffffffffffffffffffffff9092169185908110610bf257610bf26141b6565b9060005260206000200160006101000a81548173ffffffffffffffffffffffffffffffffffffffff021916908373ffffffffffffffffffffffffffffffffffffffff160217905550600d805480610c4b57610c4b6141e5565b600082815260209081902082017fffffffffffffffffffffffffffffffffffffffffffffffffffffffffffffffff90810180547fffffffffffffffffffffffff0000000000000000000000000000000000000000169055909101909155600d8054604080518285028101850190915281815292830182828015610d0457602002820191906000526020600020905b815473ffffffffffffffffffffffffffffffffffffffff168152600190910190602001808311610cd9575b505050505091505b50919050565b606060008054610d2190614122565b80601f0160208091040260200160405190810160405280929190818152602001828054610d4d90614122565b8015610d9a5780601f10610d6f57610100808354040283529160200191610d9a565b820191906000526020600020905b815481529060010190602001808311610d7d57829003601f168201915b5050505050905090565b60008181526002602052604081205473ffffffffffffffffffffffffffffffffffffffff16610e5a576040517f08c379a000000000000000000000000000000000000000000000000000000000815260206004820152602c60248201527f4552433732313a20617070726f76656420717565727920666f72206e6f6e657860448201527f697374656e7420746f6b656e000000000000000000000000000000000000000060648201526084015b60405180910390fd5b5060009081526004602052604090205473ffffffffffffffffffffffffffffffffffffffff1690565b6000610e8e82611673565b90508073ffffffffffffffffffffffffffffffffffffffff168373ffffffffffffffffffffffffffffffffffffffff161415610f4c576040517f08c379a000000000000000000000000000000000000000000000000000000000815260206004820152602160248201527f4552433732313a20617070726f76616c20746f2063757272656e74206f776e6560448201527f72000000000000000000000000000000000000000000000000000000000000006064820152608401610e51565b3373ffffffffffffffffffffffffffffffffffffffff82161480610f755750610f758133610652565b611001576040517f08c379a000000000000000000000000000000000000000000000000000000000815260206004820152603860248201527f4552433732313a20617070726f76652063616c6c6572206973206e6f74206f7760448201527f6e6572206e6f7220617070726f76656420666f7220616c6c00000000000000006064820152608401610e51565b61100b838361207e565b505050565b61101a338261211e565b6110a6576040517f08c379a000000000000000000000000000000000000000000000000000000000815260206004820152603160248201527f4552433732313a207472616e736665722063616c6c6572206973206e6f74206f60448201527f776e6572206e6f7220617070726f7665640000000000000000000000000000006064820152608401610e51565b61100b83838361228d565b6000828152600860205260409020600101546110cc81612074565b61100b83836124ff565b73ffffffffffffffffffffffffffffffffffffffff8116331461117b576040517f08c379a000000000000000000000000000000000000000000000000000000000815260206004820152602f60248201527f416363657373436f6e74726f6c3a2063616e206f6e6c792072656e6f756e636560448201527f20726f6c657320666f722073656c6600000000000000000000000000000000006064820152608401610e51565b61118582826125f3565b5050565b611203604051806101800160405280600073ffffffffffffffffffffffffffffffffffffffff16815260200160608152602001606081526020016060815260200160008152602001600081526020016000815260200160008152602001600081526020016000815260200160008152602001600081525090565b600061120e81612074565b6000858152600b6020908152604080832073ffffffffffffffffffffffffffffffffffffffff88168452909152902060808401511561125257608084015160048201555b60a0840151156112675760a084015160058201555b60c08401511561127c5760c084015160068201555b60e0840151156112915760e084015160078201555b610100840151156112a85761010084015160088201555b610120840151156112bf5761012084015160098201555b610140840151156112d657610140840151600a8201555b610160840151156112ed57610160840151600b8201555b6000868152600b6020908152604080832073ffffffffffffffffffffffffffffffffffffffff808a16855290835292819020815161018081019092528054909316815260018301805491939284019161134590614122565b80601f016020809104026020016040519081016040528092919081815260200182805461137190614122565b80156113be5780601f10611393576101008083540402835291602001916113be565b820191906000526020600020905b8154815290600101906020018083116113a157829003601f168201915b505050505081526020016002820180546113d790614122565b80601f016020809104026020016040519081016040528092919081815260200182805461140390614122565b80156114505780601f1061142557610100808354040283529160200191611450565b820191906000526020600020905b81548152906001019060200180831161143357829003601f168201915b5050505050815260200160038201805461146990614122565b80601f016020809104026020016040519081016040528092919081815260200182805461149590614122565b80156114e25780601f106114b7576101008083540402835291602001916114e2565b820191906000526020600020905b8154815290600101906020018083116114c557829003601f168201915b50505050508152602001600482015481526020016005820154815260200160068201548152602001600782015481526020016008820154815260200160098201548152602001600a8201548152602001600b82015481525050925050509392505050565b600061155181612074565b6115596126ae565b50565b61100b83838360405180602001604052806000815250611cd9565b600f805461158490614122565b80601f01602080910402602001604051908101604052809291908181526020018280546115b090614122565b80156115fd5780601f106115d2576101008083540402835291602001916115fd565b820191906000526020600020905b8154815290600101906020018083116115e057829003601f168201915b505050505081565b6060600d805480602002602001604051908101604052809291908181526020018280548015610d9a57602002820191906000526020600020905b815473ffffffffffffffffffffffffffffffffffffffff16815260019091019060200180831161163f575050505050905090565b60008181526002602052604081205473ffffffffffffffffffffffffffffffffffffffff1680610698576040517f08c379a000000000000000000000000000000000000000000000000000000000815260206004820152602960248201527f4552433732313a206f776e657220717565727920666f72206e6f6e657869737460448201527f656e7420746f6b656e00000000000000000000000000000000000000000000006064820152608401610e51565b600073ffffffffffffffffffffffffffffffffffffffff82166117ca576040517f08c379a000000000000000000000000000000000000000000000000000000000815260206004820152602a60248201527f4552433732313a2062616c616e636520717565727920666f7220746865207a6560448201527f726f2061646472657373000000000000000000000000000000000000000000006064820152608401610e51565b5073ffffffffffffffffffffffffffffffffffffffff1660009081526003602052604090205490565b6000806117ff81612074565b5050600e81905590565b60608273ffffffffffffffffffffffffffffffffffffffff1661182b85611673565b73ffffffffffffffffffffffffffffffffffffffff16146118a8576040517f08c379a000000000000000000000000000000000000000000000000000000000815260206004820152601560248201527f55736572204e6f742041637475616c204f776e657200000000000000000000006044820152606401610e51565b6000848152600b6020908152604080832073ffffffffffffffffffffffffffffffffffffffff871684528252909120835190916118ec9160038401918601906138b7565b80546118f790614122565b80601f016020809104026020016040519081016040528092919081815260200182805461192390614122565b80156119705780601f1061194557610100808354040283529160200191611970565b820191906000526020600020905b81548152906001019060200180831161195357829003601f168201915b50505050509150509392505050565b60608273ffffffffffffffffffffffffffffffffffffffff166119a185611673565b73ffffffffffffffffffffffffffffffffffffffff1614611a1e576040517f08c379a000000000000000000000000000000000000000000000000000000000815260206004820152601560248201527f55736572204e6f742041637475616c204f776e657200000000000000000000006044820152606401610e51565b6000848152600b6020908152604080832073ffffffffffffffffffffffffffffffffffffffff871684528252909120835190916118ec9160018401918601906138b7565b6000611a6d81612074565b61155961278f565b600b6020908152600092835260408084209091529082529020805460018201805473ffffffffffffffffffffffffffffffffffffffff9092169291611ab990614122565b80601f0160208091040260200160405190810160405280929190818152602001828054611ae590614122565b8015611b325780601f10611b0757610100808354040283529160200191611b32565b820191906000526020600020905b815481529060010190602001808311611b1557829003601f168201915b505050505090806002018054611b4790614122565b80601f0160208091040260200160405190810160405280929190818152602001828054611b7390614122565b8015611bc05780601f10611b9557610100808354040283529160200191611bc0565b820191906000526020600020905b815481529060010190602001808311611ba357829003601f168201915b505050505090806003018054611bd590614122565b80601f0160208091040260200160405190810160405280929190818152602001828054611c0190614122565b8015611c4e5780601f10611c2357610100808354040283529160200191611c4e565b820191906000526020600020905b815481529060010190602001808311611c3157829003601f168201915b50505050509080600401549080600501549080600601549080600701549080600801549080600901549080600a01549080600b015490508c565b606060018054610d2190614122565b61118533838361284f565b600d8181548110611cb257600080fd5b60009182526020909120015473ffffffffffffffffffffffffffffffffffffffff16905081565b611ce3338361211e565b611d6f576040517f08c379a000000000000000000000000000000000000000000000000000000000815260206004820152603160248201527f4552433732313a207472616e736665722063616c6c6572206973206e6f74206f60448201527f776e6572206e6f7220617070726f7665640000000000000000000000000000006064820152608401610e51565b611d7b8484848461297d565b50505050565b6000805b600d54811015611df9578273ffffffffffffffffffffffffffffffffffffffff16600d8281548110611db957611db96141b6565b60009182526020909120015473ffffffffffffffffffffffffffffffffffffffff161415611de75792915050565b80611df181614214565b915050611d85565b507fffffffffffffffffffffffffffffffffffffffffffffffffffffffffffffffff92915050565b606061069882612a20565b600082815260086020526040902060010154611e4781612074565b61100b83836125f3565b60608273ffffffffffffffffffffffffffffffffffffffff16611e7385611673565b73ffffffffffffffffffffffffffffffffffffffff1614611ef0576040517f08c379a000000000000000000000000000000000000000000000000000000000815260206004820152601560248201527f55736572204e6f742041637475616c204f776e657200000000000000000000006044820152606401610e51565b6000848152600b6020908152604080832073ffffffffffffffffffffffffffffffffffffffff871684528252909120835190916118ec9160028401918601906138b7565b60007fffffffff0000000000000000000000000000000000000000000000000000000082167f7965db0b000000000000000000000000000000000000000000000000000000001480610698575061069882612bd2565b611185828260405180602001604052806000815250612cb5565b60008281526002602052604090205473ffffffffffffffffffffffffffffffffffffffff16612055576040517f08c379a000000000000000000000000000000000000000000000000000000000815260206004820152602e60248201527f45524337323155524953746f726167653a2055524920736574206f66206e6f6e60448201527f6578697374656e7420746f6b656e0000000000000000000000000000000000006064820152608401610e51565b6000828152600660209081526040909120825161100b928401906138b7565b6115598133612d58565b600081815260046020526040902080547fffffffffffffffffffffffff00000000000000000000000000000000000000001673ffffffffffffffffffffffffffffffffffffffff841690811790915581906120d882611673565b73ffffffffffffffffffffffffffffffffffffffff167f8c5be1e5ebec7d5bd14f71427d1e84f3dd0314c0f7b2291e5b200ac8c7c3b92560405160405180910390a45050565b60008181526002602052604081205473ffffffffffffffffffffffffffffffffffffffff166121cf576040517f08c379a000000000000000000000000000000000000000000000000000000000815260206004820152602c60248201527f4552433732313a206f70657261746f7220717565727920666f72206e6f6e657860448201527f697374656e7420746f6b656e00000000000000000000000000000000000000006064820152608401610e51565b60006121da83611673565b90508073ffffffffffffffffffffffffffffffffffffffff168473ffffffffffffffffffffffffffffffffffffffff161480612248575073ffffffffffffffffffffffffffffffffffffffff80821660009081526005602090815260408083209388168352929052205460ff165b80610b8457508373ffffffffffffffffffffffffffffffffffffffff1661226e84610da4565b73ffffffffffffffffffffffffffffffffffffffff1614949350505050565b8273ffffffffffffffffffffffffffffffffffffffff166122ad82611673565b73ffffffffffffffffffffffffffffffffffffffff1614612350576040517f08c379a000000000000000000000000000000000000000000000000000000000815260206004820152602560248201527f4552433732313a207472616e736665722066726f6d20696e636f72726563742060448201527f6f776e65720000000000000000000000000000000000000000000000000000006064820152608401610e51565b73ffffffffffffffffffffffffffffffffffffffff82166123f2576040517f08c379a0000000000000000000000000000000000000000000000000000000008152602060048201526024808201527f4552433732313a207472616e7366657220746f20746865207a65726f2061646460448201527f72657373000000000000000000000000000000000000000000000000000000006064820152608401610e51565b6123fd838383612e2a565b61240860008261207e565b73ffffffffffffffffffffffffffffffffffffffff8316600090815260036020526040812080546001929061243e90849061419f565b909155505073ffffffffffffffffffffffffffffffffffffffff8216600090815260036020526040812080546001929061247990849061424d565b909155505060008181526002602052604080822080547fffffffffffffffffffffffff00000000000000000000000000000000000000001673ffffffffffffffffffffffffffffffffffffffff86811691821790925591518493918716917fddf252ad1be2c89b69c2b068fc378daa952ba7f163c4a11628f55a4df523b3ef91a4505050565b600082815260086020908152604080832073ffffffffffffffffffffffffffffffffffffffff8516845290915290205460ff1661118557600082815260086020908152604080832073ffffffffffffffffffffffffffffffffffffffff85168452909152902080547fffffffffffffffffffffffffffffffffffffffffffffffffffffffffffffff001660011790556125953390565b73ffffffffffffffffffffffffffffffffffffffff168173ffffffffffffffffffffffffffffffffffffffff16837f2f8788117e7eff1d82e926ec794901d17c78024a50270940304540a733656f0d60405160405180910390a45050565b600082815260086020908152604080832073ffffffffffffffffffffffffffffffffffffffff8516845290915290205460ff161561118557600082815260086020908152604080832073ffffffffffffffffffffffffffffffffffffffff8516808552925280832080547fffffffffffffffffffffffffffffffffffffffffffffffffffffffffffffff0016905551339285917ff6391f5c32d9c69d2a47ea670b442974b53935d1edc7fd64eb21e047a839171b9190a45050565b60075460ff1661271a576040517f08c379a000000000000000000000000000000000000000000000000000000000815260206004820152601460248201527f5061757361626c653a206e6f74207061757365640000000000000000000000006044820152606401610e51565b600780547fffffffffffffffffffffffffffffffffffffffffffffffffffffffffffffff001690557f5db9ee0a495bf2e6ff9c91a7834c1ba4fdd244a5e8aa4e537bd38aeae4b073aa335b60405173ffffffffffffffffffffffffffffffffffffffff909116815260200160405180910390a1565b60075460ff16156127fc576040517f08c379a000000000000000000000000000000000000000000000000000000000815260206004820152601060248201527f5061757361626c653a20706175736564000000000000000000000000000000006044820152606401610e51565b600780547fffffffffffffffffffffffffffffffffffffffffffffffffffffffffffffff001660011790557f62e78cea01bee320cd4e420270b5ea74000d11b0c9f74754ebdbfc544b05a2586127653390565b8173ffffffffffffffffffffffffffffffffffffffff168373ffffffffffffffffffffffffffffffffffffffff1614156128e5576040517f08c379a000000000000000000000000000000000000000000000000000000000815260206004820152601960248201527f4552433732313a20617070726f766520746f2063616c6c6572000000000000006044820152606401610e51565b73ffffffffffffffffffffffffffffffffffffffff83811660008181526005602090815260408083209487168084529482529182902080547fffffffffffffffffffffffffffffffffffffffffffffffffffffffffffffff001686151590811790915591519182527f17307eab39ab6107e8899845ad3d59bd9653f200f220920489ca2b5937696c31910160405180910390a3505050565b61298884848461228d565b6129948484848461306a565b611d7b576040517f08c379a000000000000000000000000000000000000000000000000000000000815260206004820152603260248201527f4552433732313a207472616e7366657220746f206e6f6e20455243373231526560448201527f63656976657220696d706c656d656e74657200000000000000000000000000006064820152608401610e51565b60008181526002602052604090205460609073ffffffffffffffffffffffffffffffffffffffff16612ad4576040517f08c379a000000000000000000000000000000000000000000000000000000000815260206004820152603160248201527f45524337323155524953746f726167653a2055524920717565727920666f722060448201527f6e6f6e6578697374656e7420746f6b656e0000000000000000000000000000006064820152608401610e51565b60008281526006602052604081208054612aed90614122565b80601f0160208091040260200160405190810160405280929190818152602001828054612b1990614122565b8015612b665780601f10612b3b57610100808354040283529160200191612b66565b820191906000526020600020905b815481529060010190602001808311612b4957829003601f168201915b505050505090506000612b8460408051602081019091526000815290565b9050805160001415612b97575092915050565b815115612bc9578082604051602001612bb1929190614265565b60405160208183030381529060405292505050919050565b610b8484613257565b60007fffffffff0000000000000000000000000000000000000000000000000000000082167f80ac58cd000000000000000000000000000000000000000000000000000000001480612c6557507fffffffff0000000000000000000000000000000000000000000000000000000082167f5b5e139f00000000000000000000000000000000000000000000000000000000145b8061069857507f01ffc9a7000000000000000000000000000000000000000000000000000000007fffffffff00000000000000000000000000000000000000000000000000000000831614610698565b612cbf8383613374565b612ccc600084848461306a565b61100b576040517f08c379a000000000000000000000000000000000000000000000000000000000815260206004820152603260248201527f4552433732313a207472616e7366657220746f206e6f6e20455243373231526560448201527f63656976657220696d706c656d656e74657200000000000000000000000000006064820152608401610e51565b600082815260086020908152604080832073ffffffffffffffffffffffffffffffffffffffff8516845290915290205460ff1661118557612db08173ffffffffffffffffffffffffffffffffffffffff166014613542565b612dbb836020613542565b604051602001612dcc929190614294565b604080517fffffffffffffffffffffffffffffffffffffffffffffffffffffffffffffffe0818403018152908290527f08c379a0000000000000000000000000000000000000000000000000000000008252610e5191600401613d5d565b60075460ff1615612e97576040517f08c379a000000000000000000000000000000000000000000000000000000000815260206004820152601060248201527f5061757361626c653a20706175736564000000000000000000000000000000006044820152606401610e51565b73ffffffffffffffffffffffffffffffffffffffff821660009081527f5eff886ea0ce6ca488a3d6e336d6c0f75f46d19b42c06ce5ee98e42c96d256c7602052604090205460ff16612f5757612eec33611725565b600e541015612f57576040517f08c379a000000000000000000000000000000000000000000000000000000000815260206004820152601c60248201527f526563656976657220486173205265616368204d6178204c696d6974000000006044820152606401610e51565b6000818152600b6020908152604080832073ffffffffffffffffffffffffffffffffffffffff80871680865291845282852080547fffffffffffffffffffffffff0000000000000000000000000000000000000000168317905587168452600c80845282852080547fffffffffffffffffffffffffffffffffffffffffffffffffffffffffffffff00908116909155600a8086528487208888528652848720805483169055928652908452828520805482166001908117909155918452828520868652909352908320805490921617905561303184611d81565b9050807fffffffffffffffffffffffffffffffffffffffffffffffffffffffffffffffff146130655761306381610b8c565b505b611d7b565b600073ffffffffffffffffffffffffffffffffffffffff84163b1561324f576040517f150b7a0200000000000000000000000000000000000000000000000000000000815273ffffffffffffffffffffffffffffffffffffffff85169063150b7a02906130e1903390899088908890600401614315565b6020604051808303816000875af192505050801561313a575060408051601f3d9081017fffffffffffffffffffffffffffffffffffffffffffffffffffffffffffffffe01682019092526131379181019061435e565b60015b613204573d808015613168576040519150601f19603f3d011682016040523d82523d6000602084013e61316d565b606091505b5080516131fc576040517f08c379a000000000000000000000000000000000000000000000000000000000815260206004820152603260248201527f4552433732313a207472616e7366657220746f206e6f6e20455243373231526560448201527f63656976657220696d706c656d656e74657200000000000000000000000000006064820152608401610e51565b805181602001fd5b7fffffffff00000000000000000000000000000000000000000000000000000000167f150b7a0200000000000000000000000000000000000000000000000000000000149050610b84565b506001610b84565b60008181526002602052604090205460609073ffffffffffffffffffffffffffffffffffffffff1661330b576040517f08c379a000000000000000000000000000000000000000000000000000000000815260206004820152602f60248201527f4552433732314d657461646174613a2055524920717565727920666f72206e6f60448201527f6e6578697374656e7420746f6b656e00000000000000000000000000000000006064820152608401610e51565b600061332260408051602081019091526000815290565b90506000815111613342576040518060200160405280600081525061336d565b8061334c84613785565b60405160200161335d929190614265565b6040516020818303038152906040525b9392505050565b73ffffffffffffffffffffffffffffffffffffffff82166133f1576040517f08c379a000000000000000000000000000000000000000000000000000000000815260206004820181905260248201527f4552433732313a206d696e7420746f20746865207a65726f20616464726573736044820152606401610e51565b60008181526002602052604090205473ffffffffffffffffffffffffffffffffffffffff161561347d576040517f08c379a000000000000000000000000000000000000000000000000000000000815260206004820152601c60248201527f4552433732313a20746f6b656e20616c7265616479206d696e746564000000006044820152606401610e51565b61348960008383612e2a565b73ffffffffffffffffffffffffffffffffffffffff821660009081526003602052604081208054600192906134bf90849061424d565b909155505060008181526002602052604080822080547fffffffffffffffffffffffff00000000000000000000000000000000000000001673ffffffffffffffffffffffffffffffffffffffff861690811790915590518392907fddf252ad1be2c89b69c2b068fc378daa952ba7f163c4a11628f55a4df523b3ef908290a45050565b6060600061355183600261437b565b61355c90600261424d565b67ffffffffffffffff811115613574576135746139c4565b6040519080825280601f01601f19166020018201604052801561359e576020820181803683370190505b5090507f3000000000000000000000000000000000000000000000000000000000000000816000815181106135d5576135d56141b6565b60200101907effffffffffffffffffffffffffffffffffffffffffffffffffffffffffffff1916908160001a9053507f780000000000000000000000000000000000000000000000000000000000000081600181518110613638576136386141b6565b60200101907effffffffffffffffffffffffffffffffffffffffffffffffffffffffffffff1916908160001a905350600061367484600261437b565b61367f90600161424d565b90505b600181111561371c577f303132333435363738396162636465660000000000000000000000000000000085600f16601081106136c0576136c06141b6565b1a60f81b8282815181106136d6576136d66141b6565b60200101907effffffffffffffffffffffffffffffffffffffffffffffffffffffffffffff1916908160001a90535060049490941c93613715816143b8565b9050613682565b50831561336d576040517f08c379a000000000000000000000000000000000000000000000000000000000815260206004820181905260248201527f537472696e67733a20686578206c656e67746820696e73756666696369656e746044820152606401610e51565b6060816137c557505060408051808201909152600181527f3000000000000000000000000000000000000000000000000000000000000000602082015290565b8160005b81156137ef57806137d981614214565b91506137e89050600a8361441c565b91506137c9565b60008167ffffffffffffffff81111561380a5761380a6139c4565b6040519080825280601f01601f191660200182016040528015613834576020820181803683370190505b5090505b8415610b845761384960018361419f565b9150613856600a86614430565b61386190603061424d565b60f81b818381518110613876576138766141b6565b60200101907effffffffffffffffffffffffffffffffffffffffffffffffffffffffffffff1916908160001a9053506138b0600a8661441c565b9450613838565b8280546138c390614122565b90600052602060002090601f0160209004810192826138e5576000855561392b565b82601f106138fe57805160ff191683800117855561392b565b8280016001018555821561392b579182015b8281111561392b578251825591602001919060010190613910565b5061393792915061393b565b5090565b5b80821115613937576000815560010161393c565b7fffffffff000000000000000000000000000000000000000000000000000000008116811461155957600080fd5b60006020828403121561399057600080fd5b813561336d81613950565b803573ffffffffffffffffffffffffffffffffffffffff811681146139bf57600080fd5b919050565b7f4e487b7100000000000000000000000000000000000000000000000000000000600052604160045260246000fd5b604051610180810167ffffffffffffffff81118282101715613a1757613a176139c4565b60405290565b600067ffffffffffffffff80841115613a3857613a386139c4565b604051601f85017fffffffffffffffffffffffffffffffffffffffffffffffffffffffffffffffe0908116603f01168101908282118183101715613a7e57613a7e6139c4565b81604052809350858152868686011115613a9757600080fd5b858560208301376000602087830101525050509392505050565b600082601f830112613ac257600080fd5b61336d83833560208501613a1d565b60008060008060808587031215613ae757600080fd5b613af08561399b565b9350602085013567ffffffffffffffff80821115613b0d57600080fd5b613b1988838901613ab1565b94506040870135915080821115613b2f57600080fd5b613b3b88838901613ab1565b93506060870135915080821115613b5157600080fd5b50613b5e87828801613ab1565b91505092959194509250565b60005b83811015613b85578181015183820152602001613b6d565b83811115611d7b5750506000910152565b60008151808452613bae816020860160208601613b6a565b601f017fffffffffffffffffffffffffffffffffffffffffffffffffffffffffffffffe0169290920160200192915050565b60208152613c0760208201835173ffffffffffffffffffffffffffffffffffffffff169052565b60006020830151610180806040850152613c256101a0850183613b96565b915060408501517fffffffffffffffffffffffffffffffffffffffffffffffffffffffffffffffe080868503016060870152613c618483613b96565b9350606087015191508086850301608087015250613c7f8382613b96565b608087015160a08781019190915287015160c08088019190915287015160e08088019190915287015161010080880191909152870151610120808801919091528701516101408088019190915287015161016080880191909152909601519190940152509192915050565b600060208284031215613cfc57600080fd5b5035919050565b6020808252825182820181905260009190848201906040850190845b81811015613d5157835173ffffffffffffffffffffffffffffffffffffffff1683529284019291840191600101613d1f565b50909695505050505050565b60208152600061336d6020830184613b96565b60008060408385031215613d8357600080fd5b613d8c8361399b565b946020939093013593505050565b600080600060608486031215613daf57600080fd5b613db88461399b565b9250613dc66020850161399b565b9150604084013590509250925092565b60008060408385031215613de957600080fd5b82359150613df96020840161399b565b90509250929050565b600060208284031215613e1457600080fd5b61336d8261399b565b600080600060608486031215613e3257600080fd5b83359250613e426020850161399b565b9150604084013567ffffffffffffffff80821115613e5f57600080fd5b908501906101808288031215613e7457600080fd5b613e7c6139f3565b613e858361399b565b8152602083013582811115613e9957600080fd5b613ea589828601613ab1565b602083015250604083013582811115613ebd57600080fd5b613ec989828601613ab1565b604083015250606083013582811115613ee157600080fd5b613eed89828601613ab1565b6060830152506080838101359082015260a0808401359082015260c0808401359082015260e0808401359082015261010080840135908201526101208084013590820152610140808401359082015261016092830135928101929092525092959194509192509050565b600080600060608486031215613f6c57600080fd5b83359250613f7c6020850161399b565b9150604084013567ffffffffffffffff811115613f9857600080fd5b613fa486828701613ab1565b9150509250925092565b600061018073ffffffffffffffffffffffffffffffffffffffff8f168352806020840152613fde8184018f613b96565b90508281036040840152613ff2818e613b96565b90508281036060840152614006818d613b96565b608084019b909b52505060a081019790975260c087019590955260e086019390935261010085019190915261012084015261014083015261016090910152949350505050565b6000806040838503121561405f57600080fd5b6140688361399b565b91506020830135801515811461407d57600080fd5b809150509250929050565b6000806000806080858703121561409e57600080fd5b6140a78561399b565b93506140b56020860161399b565b925060408501359150606085013567ffffffffffffffff8111156140d857600080fd5b8501601f810187136140e957600080fd5b613b5e87823560208401613a1d565b6000806040838503121561410b57600080fd5b6141148361399b565b9150613df96020840161399b565b600181811c9082168061413657607f821691505b60208210811415610d0c577f4e487b7100000000000000000000000000000000000000000000000000000000600052602260045260246000fd5b7f4e487b7100000000000000000000000000000000000000000000000000000000600052601160045260246000fd5b6000828210156141b1576141b1614170565b500390565b7f4e487b7100000000000000000000000000000000000000000000000000000000600052603260045260246000fd5b7f4e487b7100000000000000000000000000000000000000000000000000000000600052603160045260246000fd5b60007fffffffffffffffffffffffffffffffffffffffffffffffffffffffffffffffff82141561424657614246614170565b5060010190565b6000821982111561426057614260614170565b500190565b60008351614277818460208801613b6a565b83519083019061428b818360208801613b6a565b01949350505050565b7f416363657373436f6e74726f6c3a206163636f756e74200000000000000000008152600083516142cc816017850160208801613b6a565b7f206973206d697373696e6720726f6c65200000000000000000000000000000006017918401918201528351614309816028840160208801613b6a565b01602801949350505050565b600073ffffffffffffffffffffffffffffffffffffffff8087168352808616602084015250836040830152608060608301526143546080830184613b96565b9695505050505050565b60006020828403121561437057600080fd5b815161336d81613950565b6000817fffffffffffffffffffffffffffffffffffffffffffffffffffffffffffffffff04831182151516156143b3576143b3614170565b500290565b6000816143c7576143c7614170565b507fffffffffffffffffffffffffffffffffffffffffffffffffffffffffffffffff0190565b7f4e487b7100000000000000000000000000000000000000000000000000000000600052601260045260246000fd5b60008261442b5761442b6143ed565b500490565b60008261443f5761443f6143ed565b50069056fea26469706673582212203c29378d4340095a1c5671c2a062f595e9e2ac80271de303e45c6cefc17dd53664736f6c634300080b0033",
  "linkReferences": {},
  "deployedLinkReferences": {}
}