{
  "_format": "hh-sol-artifact-1",
  "contractName": "PolRegistry",
  "sourceName": "contracts/PolRegistry.sol",
  "abi": [
    {
      "inputs": [
        {
          "internalType": "address",
          "name": "gnosis",
          "type": "address"
        }
      ],
      "stateMutability": "nonpayable",
      "type": "constructor"
    },
    {
      "anonymous": false,
      "inputs": [
        {
          "indexed": true,
          "internalType": "bytes32",
          "name": "role",
          "type": "bytes32"
        },
        {
          "indexed": true,
          "internalType": "bytes32",
          "name": "previousAdminRole",
          "type": "bytes32"
        },
        {
          "indexed": true,
          "internalType": "bytes32",
          "name": "newAdminRole",
          "type": "bytes32"
        }
      ],
      "name": "RoleAdminChanged",
      "type": "event"
    },
    {
      "anonymous": false,
      "inputs": [
        {
          "indexed": true,
          "internalType": "bytes32",
          "name": "role",
          "type": "bytes32"
        },
        {
          "indexed": true,
          "internalType": "address",
          "name": "account",
          "type": "address"
        },
        {
          "indexed": true,
          "internalType": "address",
          "name": "sender",
          "type": "address"
        }
      ],
      "name": "RoleGranted",
      "type": "event"
    },
    {
      "anonymous": false,
      "inputs": [
        {
          "indexed": true,
          "internalType": "bytes32",
          "name": "role",
          "type": "bytes32"
        },
        {
          "indexed": true,
          "internalType": "address",
          "name": "account",
          "type": "address"
        },
        {
          "indexed": true,
          "internalType": "address",
          "name": "sender",
          "type": "address"
        }
      ],
      "name": "RoleRevoked",
      "type": "event"
    },
    {
      "inputs": [],
      "name": "DEFAULT_ADMIN_ROLE",
      "outputs": [
        {
          "internalType": "bytes32",
          "name": "",
          "type": "bytes32"
        }
      ],
      "stateMutability": "view",
      "type": "function"
    },
    {
      "inputs": [
        {
          "internalType": "uint256",
          "name": "",
          "type": "uint256"
        }
      ],
      "name": "activeQuests",
      "outputs": [
        {
          "internalType": "address",
          "name": "",
          "type": "address"
        }
      ],
      "stateMutability": "view",
      "type": "function"
    },
    {
      "inputs": [
        {
          "internalType": "address[]",
          "name": "_newQuestToPush",
          "type": "address[]"
        }
      ],
      "name": "addActiveQuests",
      "outputs": [
        {
          "internalType": "address[]",
          "name": "",
          "type": "address[]"
        }
      ],
      "stateMutability": "nonpayable",
      "type": "function"
    },
    {
      "inputs": [
        {
          "internalType": "address[]",
          "name": "_newQuestToPush",
          "type": "address[]"
        }
      ],
      "name": "addListedQuests",
      "outputs": [
        {
          "internalType": "address[]",
          "name": "",
          "type": "address[]"
        }
      ],
      "stateMutability": "nonpayable",
      "type": "function"
    },
    {
      "inputs": [
        {
          "internalType": "uint256",
          "name": "",
          "type": "uint256"
        }
      ],
      "name": "allListedQuests",
      "outputs": [
        {
          "internalType": "address",
          "name": "",
          "type": "address"
        }
      ],
      "stateMutability": "view",
      "type": "function"
    },
    {
      "inputs": [
        {
          "internalType": "uint256",
          "name": "_tokenIndex",
          "type": "uint256"
        }
      ],
      "name": "deleteActiveQuests",
      "outputs": [
        {
          "internalType": "address[]",
          "name": "",
          "type": "address[]"
        }
      ],
      "stateMutability": "nonpayable",
      "type": "function"
    },
    {
      "inputs": [
        {
          "internalType": "uint256",
          "name": "_tokenIndex",
          "type": "uint256"
        }
      ],
      "name": "deleteListedQuests",
      "outputs": [
        {
          "internalType": "address[]",
          "name": "",
          "type": "address[]"
        }
      ],
      "stateMutability": "nonpayable",
      "type": "function"
    },
    {
      "inputs": [],
      "name": "getActiveQuests",
      "outputs": [
        {
          "internalType": "address[]",
          "name": "",
          "type": "address[]"
        }
      ],
      "stateMutability": "view",
      "type": "function"
    },
    {
      "inputs": [],
      "name": "getAllListedQuests",
      "outputs": [
        {
          "internalType": "address[]",
          "name": "",
          "type": "address[]"
        }
      ],
      "stateMutability": "view",
      "type": "function"
    },
    {
      "inputs": [
        {
          "internalType": "bytes32",
          "name": "role",
          "type": "bytes32"
        }
      ],
      "name": "getRoleAdmin",
      "outputs": [
        {
          "internalType": "bytes32",
          "name": "",
          "type": "bytes32"
        }
      ],
      "stateMutability": "view",
      "type": "function"
    },
    {
      "inputs": [
        {
          "internalType": "bytes32",
          "name": "role",
          "type": "bytes32"
        },
        {
          "internalType": "address",
          "name": "account",
          "type": "address"
        }
      ],
      "name": "grantRole",
      "outputs": [],
      "stateMutability": "nonpayable",
      "type": "function"
    },
    {
      "inputs": [
        {
          "internalType": "bytes32",
          "name": "role",
          "type": "bytes32"
        },
        {
          "internalType": "address",
          "name": "account",
          "type": "address"
        }
      ],
      "name": "hasRole",
      "outputs": [
        {
          "internalType": "bool",
          "name": "",
          "type": "bool"
        }
      ],
      "stateMutability": "view",
      "type": "function"
    },
    {
      "inputs": [
        {
          "internalType": "bytes32",
          "name": "role",
          "type": "bytes32"
        },
        {
          "internalType": "address",
          "name": "account",
          "type": "address"
        }
      ],
      "name": "renounceRole",
      "outputs": [],
      "stateMutability": "nonpayable",
      "type": "function"
    },
    {
      "inputs": [
        {
          "internalType": "bytes32",
          "name": "role",
          "type": "bytes32"
        },
        {
          "internalType": "address",
          "name": "account",
          "type": "address"
        }
      ],
      "name": "revokeRole",
      "outputs": [],
      "stateMutability": "nonpayable",
      "type": "function"
    },
    {
      "inputs": [
        {
          "internalType": "bytes4",
          "name": "interfaceId",
          "type": "bytes4"
        }
      ],
      "name": "supportsInterface",
      "outputs": [
        {
          "internalType": "bool",
          "name": "",
          "type": "bool"
        }
      ],
      "stateMutability": "view",
      "type": "function"
    }
  ],
  "bytecode": "0x608060405234801561001057600080fd5b5060405161151b38038061151b83398101604081905261002f916100df565b61003a600082610040565b5061010f565b6000828152602081815260408083206001600160a01b038516845290915290205460ff166100db576000828152602081815260408083206001600160a01b03851684529091529020805460ff1916600117905561009a3390565b6001600160a01b0316816001600160a01b0316837f2f8788117e7eff1d82e926ec794901d17c78024a50270940304540a733656f0d60405160405180910390a45b5050565b6000602082840312156100f157600080fd5b81516001600160a01b038116811461010857600080fd5b9392505050565b6113fd8061011e6000396000f3fe608060405234801561001057600080fd5b50600436106100f55760003560e01c806391d1485411610097578063a217fddf11610066578063a217fddf1461024d578063b2f1d59014610255578063d08f573c14610268578063d547741f1461027b57600080fd5b806391d14854146101d057806394006d9e146102145780639b0a139c146102275780639bf4840e1461023a57600080fd5b80632f2ff15d116100d35780632f2ff15d1461016857806336568abe1461017d57806357e1ea4f146101905780635e2ad3131461019857600080fd5b806301ffc9a7146100fa578063029a8c5814610122578063248a9ca314610137575b600080fd5b61010d610108366004610f42565b61028e565b60405190151581526020015b60405180910390f35b61012a610327565b6040516101199190610f84565b61015a610145366004610fde565b60009081526020819052604090206001015490565b604051908152602001610119565b61017b610176366004611020565b610396565b005b61017b61018b366004611020565b6103c0565b61012a610478565b6101ab6101a6366004610fde565b6104e5565b60405173ffffffffffffffffffffffffffffffffffffffff9091168152602001610119565b61010d6101de366004611020565b60009182526020828152604080842073ffffffffffffffffffffffffffffffffffffffff93909316845291905290205460ff1690565b61012a61022236600461107b565b61051c565b6101ab610235366004610fde565b61062c565b61012a61024836600461107b565b61063c565b61015a600081565b61012a610263366004610fde565b61074a565b61012a610276366004610fde565b6108cd565b61017b610289366004611020565b610a4f565b60007fffffffff0000000000000000000000000000000000000000000000000000000082167f7965db0b00000000000000000000000000000000000000000000000000000000148061032157507f01ffc9a7000000000000000000000000000000000000000000000000000000007fffffffff000000000000000000000000000000000000000000000000000000008316145b92915050565b6060600280548060200260200160405190810160405280929190818152602001828054801561038c57602002820191906000526020600020905b815473ffffffffffffffffffffffffffffffffffffffff168152600190910190602001808311610361575b5050505050905090565b6000828152602081905260409020600101546103b181610a74565b6103bb8383610a81565b505050565b73ffffffffffffffffffffffffffffffffffffffff8116331461046a576040517f08c379a000000000000000000000000000000000000000000000000000000000815260206004820152602f60248201527f416363657373436f6e74726f6c3a2063616e206f6e6c792072656e6f756e636560448201527f20726f6c657320666f722073656c66000000000000000000000000000000000060648201526084015b60405180910390fd5b6104748282610b71565b5050565b6060600180548060200260200160405190810160405280929190818152602001828054801561038c5760200282019190600052602060002090815473ffffffffffffffffffffffffffffffffffffffff168152600190910190602001808311610361575050505050905090565b600181815481106104f557600080fd5b60009182526020909120015473ffffffffffffffffffffffffffffffffffffffff16905081565b6060600061052981610a74565b60005b83518110156105bb5760028482815181106105495761054961115e565b60209081029190910181015182546001810184556000938452919092200180547fffffffffffffffffffffffff00000000000000000000000000000000000000001673ffffffffffffffffffffffffffffffffffffffff909216919091179055806105b3816111bc565b91505061052c565b50600280548060200260200160405190810160405280929190818152602001828054801561061f57602002820191906000526020600020905b815473ffffffffffffffffffffffffffffffffffffffff1681526001909101906020018083116105f4575b5050505050915050919050565b600281815481106104f557600080fd5b6060600061064981610a74565b60005b83518110156106db5760018482815181106106695761066961115e565b60209081029190910181015182546001810184556000938452919092200180547fffffffffffffffffffffffff00000000000000000000000000000000000000001673ffffffffffffffffffffffffffffffffffffffff909216919091179055806106d3816111bc565b91505061064c565b50600180548060200260200160405190810160405280929190818152602001828054801561061f5760200282019190600052602060002090815473ffffffffffffffffffffffffffffffffffffffff1681526001909101906020018083116105f4575050505050915050919050565b6060600061075781610a74565b60028054610767906001906111f5565b815481106107775761077761115e565b6000918252602090912001546002805473ffffffffffffffffffffffffffffffffffffffff90921691859081106107b0576107b061115e565b9060005260206000200160006101000a81548173ffffffffffffffffffffffffffffffffffffffff021916908373ffffffffffffffffffffffffffffffffffffffff16021790555060028054806108095761080961120c565b600082815260209081902082017fffffffffffffffffffffffffffffffffffffffffffffffffffffffffffffffff90810180547fffffffffffffffffffffffff00000000000000000000000000000000000000001690559091019091556002805460408051828502810185019091528181529283018282801561061f5760200282019190600052602060002090815473ffffffffffffffffffffffffffffffffffffffff1681526001909101906020018083116105f4575050505050915050919050565b606060006108da81610a74565b600180546108e99082906111f5565b815481106108f9576108f961115e565b6000918252602090912001546001805473ffffffffffffffffffffffffffffffffffffffff90921691859081106109325761093261115e565b9060005260206000200160006101000a81548173ffffffffffffffffffffffffffffffffffffffff021916908373ffffffffffffffffffffffffffffffffffffffff160217905550600180548061098b5761098b61120c565b600082815260209081902082017fffffffffffffffffffffffffffffffffffffffffffffffffffffffffffffffff90810180547fffffffffffffffffffffffff00000000000000000000000000000000000000001690559091019091556001805460408051828502810185019091528181529283018282801561061f5760200282019190600052602060002090815473ffffffffffffffffffffffffffffffffffffffff1681526001909101906020018083116105f4575050505050915050919050565b600082815260208190526040902060010154610a6a81610a74565b6103bb8383610b71565b610a7e8133610c28565b50565b60008281526020818152604080832073ffffffffffffffffffffffffffffffffffffffff8516845290915290205460ff166104745760008281526020818152604080832073ffffffffffffffffffffffffffffffffffffffff85168452909152902080547fffffffffffffffffffffffffffffffffffffffffffffffffffffffffffffff00166001179055610b133390565b73ffffffffffffffffffffffffffffffffffffffff168173ffffffffffffffffffffffffffffffffffffffff16837f2f8788117e7eff1d82e926ec794901d17c78024a50270940304540a733656f0d60405160405180910390a45050565b60008281526020818152604080832073ffffffffffffffffffffffffffffffffffffffff8516845290915290205460ff16156104745760008281526020818152604080832073ffffffffffffffffffffffffffffffffffffffff8516808552925280832080547fffffffffffffffffffffffffffffffffffffffffffffffffffffffffffffff0016905551339285917ff6391f5c32d9c69d2a47ea670b442974b53935d1edc7fd64eb21e047a839171b9190a45050565b60008281526020818152604080832073ffffffffffffffffffffffffffffffffffffffff8516845290915290205460ff1661047457610c7e8173ffffffffffffffffffffffffffffffffffffffff166014610cf8565b610c89836020610cf8565b604051602001610c9a92919061126b565b604080517fffffffffffffffffffffffffffffffffffffffffffffffffffffffffffffffe0818403018152908290527f08c379a0000000000000000000000000000000000000000000000000000000008252610461916004016112ec565b60606000610d0783600261133d565b610d1290600261137a565b67ffffffffffffffff811115610d2a57610d2a61104c565b6040519080825280601f01601f191660200182016040528015610d54576020820181803683370190505b5090507f300000000000000000000000000000000000000000000000000000000000000081600081518110610d8b57610d8b61115e565b60200101907effffffffffffffffffffffffffffffffffffffffffffffffffffffffffffff1916908160001a9053507f780000000000000000000000000000000000000000000000000000000000000081600181518110610dee57610dee61115e565b60200101907effffffffffffffffffffffffffffffffffffffffffffffffffffffffffffff1916908160001a9053506000610e2a84600261133d565b610e3590600161137a565b90505b6001811115610ed2577f303132333435363738396162636465660000000000000000000000000000000085600f1660108110610e7657610e7661115e565b1a60f81b828281518110610e8c57610e8c61115e565b60200101907effffffffffffffffffffffffffffffffffffffffffffffffffffffffffffff1916908160001a90535060049490941c93610ecb81611392565b9050610e38565b508315610f3b576040517f08c379a000000000000000000000000000000000000000000000000000000000815260206004820181905260248201527f537472696e67733a20686578206c656e67746820696e73756666696369656e746044820152606401610461565b9392505050565b600060208284031215610f5457600080fd5b81357fffffffff0000000000000000000000000000000000000000000000000000000081168114610f3b57600080fd5b6020808252825182820181905260009190848201906040850190845b81811015610fd257835173ffffffffffffffffffffffffffffffffffffffff1683529284019291840191600101610fa0565b50909695505050505050565b600060208284031215610ff057600080fd5b5035919050565b803573ffffffffffffffffffffffffffffffffffffffff8116811461101b57600080fd5b919050565b6000806040838503121561103357600080fd5b8235915061104360208401610ff7565b90509250929050565b7f4e487b7100000000000000000000000000000000000000000000000000000000600052604160045260246000fd5b6000602080838503121561108e57600080fd5b823567ffffffffffffffff808211156110a657600080fd5b818501915085601f8301126110ba57600080fd5b8135818111156110cc576110cc61104c565b8060051b6040517fffffffffffffffffffffffffffffffffffffffffffffffffffffffffffffffe0603f8301168101818110858211171561110f5761110f61104c565b60405291825284820192508381018501918883111561112d57600080fd5b938501935b828510156111525761114385610ff7565b84529385019392850192611132565b98975050505050505050565b7f4e487b7100000000000000000000000000000000000000000000000000000000600052603260045260246000fd5b7f4e487b7100000000000000000000000000000000000000000000000000000000600052601160045260246000fd5b60007fffffffffffffffffffffffffffffffffffffffffffffffffffffffffffffffff8214156111ee576111ee61118d565b5060010190565b6000828210156112075761120761118d565b500390565b7f4e487b7100000000000000000000000000000000000000000000000000000000600052603160045260246000fd5b60005b8381101561125657818101518382015260200161123e565b83811115611265576000848401525b50505050565b7f416363657373436f6e74726f6c3a206163636f756e74200000000000000000008152600083516112a381601785016020880161123b565b7f206973206d697373696e6720726f6c652000000000000000000000000000000060179184019182015283516112e081602884016020880161123b565b01602801949350505050565b602081526000825180602084015261130b81604085016020870161123b565b601f017fffffffffffffffffffffffffffffffffffffffffffffffffffffffffffffffe0169190910160400192915050565b6000817fffffffffffffffffffffffffffffffffffffffffffffffffffffffffffffffff04831182151516156113755761137561118d565b500290565b6000821982111561138d5761138d61118d565b500190565b6000816113a1576113a161118d565b507fffffffffffffffffffffffffffffffffffffffffffffffffffffffffffffffff019056fea264697066735822122062a1042600b5f451f547de1c751756a430ba9a488390c9abe38b7bbb9df01ec664736f6c634300080b0033",
  "linkReferences": {},
  "deployedLinkReferences": {}
}