{
  "_format": "hh-sol-artifact-1",
  "contractName": "TwitterQuest",
  "sourceName": "contracts/TwitterQuest.sol",
  "abi": [
    {
      "inputs": [
        {
          "internalType": "address",
          "name": "_gnosis",
          "type": "address"
        },
        {
          "internalType": "address",
          "name": "_oracle",
          "type": "address"
        }
      ],
      "stateMutability": "nonpayable",
      "type": "constructor"
    },
    {
      "anonymous": false,
      "inputs": [
        {
          "indexed": false,
          "internalType": "uint256",
          "name": "_questEntryCost",
          "type": "uint256"
        },
        {
          "indexed": false,
          "internalType": "uint256",
          "name": "_fees",
          "type": "uint256"
        },
        {
          "indexed": false,
          "internalType": "uint256",
          "name": "_delayPeriod",
          "type": "uint256"
        },
        {
          "indexed": true,
          "internalType": "address",
          "name": "_token",
          "type": "address"
        },
        {
          "indexed": true,
          "internalType": "address",
          "name": "_memberShipAddress",
          "type": "address"
        }
      ],
      "name": "Initialized",
      "type": "event"
    },
    {
      "anonymous": false,
      "inputs": [
        {
          "indexed": true,
          "internalType": "address",
          "name": "_user",
          "type": "address"
        },
        {
          "indexed": false,
          "internalType": "uint256",
          "name": "date",
          "type": "uint256"
        }
      ],
      "name": "MemberUnRegisterFromWaitingList",
      "type": "event"
    },
    {
      "anonymous": false,
      "inputs": [
        {
          "indexed": false,
          "internalType": "uint256",
          "name": "",
          "type": "uint256"
        }
      ],
      "name": "NewCycle",
      "type": "event"
    },
    {
      "anonymous": false,
      "inputs": [
        {
          "indexed": true,
          "internalType": "address",
          "name": "_user",
          "type": "address"
        },
        {
          "indexed": false,
          "internalType": "uint256",
          "name": "_date",
          "type": "uint256"
        }
      ],
      "name": "NewMemberRegisterToWaitingList",
      "type": "event"
    },
    {
      "anonymous": false,
      "inputs": [
        {
          "indexed": true,
          "internalType": "address",
          "name": "_user",
          "type": "address"
        },
        {
          "indexed": false,
          "internalType": "uint256",
          "name": "_amount",
          "type": "uint256"
        },
        {
          "indexed": false,
          "internalType": "uint256",
          "name": "_weeklyAverage",
          "type": "uint256"
        },
        {
          "indexed": false,
          "internalType": "address",
          "name": "_token",
          "type": "address"
        },
        {
          "indexed": false,
          "internalType": "uint256",
          "name": "_date",
          "type": "uint256"
        }
      ],
      "name": "NewMemberSubscribeToQuest",
      "type": "event"
    },
    {
      "anonymous": false,
      "inputs": [
        {
          "indexed": true,
          "internalType": "address",
          "name": "_user",
          "type": "address"
        },
        {
          "indexed": false,
          "internalType": "uint256",
          "name": "_date",
          "type": "uint256"
        }
      ],
      "name": "NewWinnerUpdated",
      "type": "event"
    },
    {
      "anonymous": false,
      "inputs": [
        {
          "indexed": true,
          "internalType": "bytes32",
          "name": "role",
          "type": "bytes32"
        },
        {
          "indexed": true,
          "internalType": "bytes32",
          "name": "previousAdminRole",
          "type": "bytes32"
        },
        {
          "indexed": true,
          "internalType": "bytes32",
          "name": "newAdminRole",
          "type": "bytes32"
        }
      ],
      "name": "RoleAdminChanged",
      "type": "event"
    },
    {
      "anonymous": false,
      "inputs": [
        {
          "indexed": true,
          "internalType": "bytes32",
          "name": "role",
          "type": "bytes32"
        },
        {
          "indexed": true,
          "internalType": "address",
          "name": "account",
          "type": "address"
        },
        {
          "indexed": true,
          "internalType": "address",
          "name": "sender",
          "type": "address"
        }
      ],
      "name": "RoleGranted",
      "type": "event"
    },
    {
      "anonymous": false,
      "inputs": [
        {
          "indexed": true,
          "internalType": "bytes32",
          "name": "role",
          "type": "bytes32"
        },
        {
          "indexed": true,
          "internalType": "address",
          "name": "account",
          "type": "address"
        },
        {
          "indexed": true,
          "internalType": "address",
          "name": "sender",
          "type": "address"
        }
      ],
      "name": "RoleRevoked",
      "type": "event"
    },
    {
      "anonymous": false,
      "inputs": [
        {
          "indexed": true,
          "internalType": "address",
          "name": "_user",
          "type": "address"
        },
        {
          "indexed": true,
          "internalType": "address",
          "name": "_token",
          "type": "address"
        },
        {
          "indexed": false,
          "internalType": "uint256",
          "name": "_amount",
          "type": "uint256"
        },
        {
          "indexed": false,
          "internalType": "uint256",
          "name": "_date",
          "type": "uint256"
        }
      ],
      "name": "SupplyToPool",
      "type": "event"
    },
    {
      "anonymous": false,
      "inputs": [
        {
          "indexed": true,
          "internalType": "address",
          "name": "_user",
          "type": "address"
        },
        {
          "indexed": true,
          "internalType": "address",
          "name": "_token",
          "type": "address"
        },
        {
          "indexed": false,
          "internalType": "uint256",
          "name": "_amount",
          "type": "uint256"
        },
        {
          "indexed": false,
          "internalType": "uint256",
          "name": "_date",
          "type": "uint256"
        }
      ],
      "name": "WithdrawFromPool",
      "type": "event"
    },
    {
      "inputs": [],
      "name": "DEFAULT_ADMIN_ROLE",
      "outputs": [
        {
          "internalType": "bytes32",
          "name": "",
          "type": "bytes32"
        }
      ],
      "stateMutability": "view",
      "type": "function"
    },
    {
      "inputs": [],
      "name": "adminAddress",
      "outputs": [
        {
          "internalType": "address",
          "name": "",
          "type": "address"
        }
      ],
      "stateMutability": "view",
      "type": "function"
    },
    {
      "inputs": [],
      "name": "delayPeriod",
      "outputs": [
        {
          "internalType": "uint256",
          "name": "",
          "type": "uint256"
        }
      ],
      "stateMutability": "view",
      "type": "function"
    },
    {
      "inputs": [
        {
          "internalType": "address",
          "name": "_token",
          "type": "address"
        }
      ],
      "name": "deleteToken",
      "outputs": [
        {
          "internalType": "bool",
          "name": "",
          "type": "bool"
        }
      ],
      "stateMutability": "nonpayable",
      "type": "function"
    },
    {
      "inputs": [],
      "name": "endPeriod",
      "outputs": [
        {
          "internalType": "uint256",
          "name": "",
          "type": "uint256"
        }
      ],
      "stateMutability": "view",
      "type": "function"
    },
    {
      "inputs": [],
      "name": "fees",
      "outputs": [
        {
          "internalType": "uint256",
          "name": "",
          "type": "uint256"
        }
      ],
      "stateMutability": "view",
      "type": "function"
    },
    {
      "inputs": [],
      "name": "getAllParticipants",
      "outputs": [
        {
          "internalType": "address[]",
          "name": "",
          "type": "address[]"
        }
      ],
      "stateMutability": "view",
      "type": "function"
    },
    {
      "inputs": [],
      "name": "getAllSubscribed",
      "outputs": [
        {
          "internalType": "address[]",
          "name": "",
          "type": "address[]"
        }
      ],
      "stateMutability": "view",
      "type": "function"
    },
    {
      "inputs": [],
      "name": "getQuestSummarize",
      "outputs": [
        {
          "internalType": "address",
          "name": "lessTokenAddress",
          "type": "address"
        },
        {
          "internalType": "address",
          "name": "memberShipTokenAddress",
          "type": "address"
        },
        {
          "internalType": "address",
          "name": "entryToken",
          "type": "address"
        },
        {
          "internalType": "uint256",
          "name": "entryCost",
          "type": "uint256"
        },
        {
          "internalType": "uint256",
          "name": "amountLessReward",
          "type": "uint256"
        },
        {
          "internalType": "uint256",
          "name": "actualFees",
          "type": "uint256"
        },
        {
          "internalType": "uint256",
          "name": "actualQuestBalance",
          "type": "uint256"
        },
        {
          "internalType": "uint256",
          "name": "durationPeriod",
          "type": "uint256"
        },
        {
          "internalType": "uint256",
          "name": "cycleStartAt",
          "type": "uint256"
        },
        {
          "internalType": "uint256",
          "name": "cycleEndAt",
          "type": "uint256"
        },
        {
          "internalType": "uint256",
          "name": "actualParticipantsNumber",
          "type": "uint256"
        },
        {
          "internalType": "uint256",
          "name": "actualWaitingListNumber",
          "type": "uint256"
        },
        {
          "internalType": "address[]",
          "name": "actualQuestParticipantsAddress",
          "type": "address[]"
        },
        {
          "internalType": "address[]",
          "name": "actualWaitingListSubscribeAddress",
          "type": "address[]"
        }
      ],
      "stateMutability": "view",
      "type": "function"
    },
    {
      "inputs": [
        {
          "internalType": "bytes32",
          "name": "role",
          "type": "bytes32"
        }
      ],
      "name": "getRoleAdmin",
      "outputs": [
        {
          "internalType": "bytes32",
          "name": "",
          "type": "bytes32"
        }
      ],
      "stateMutability": "view",
      "type": "function"
    },
    {
      "inputs": [
        {
          "internalType": "address",
          "name": "_user",
          "type": "address"
        }
      ],
      "name": "getUserWaitingListId",
      "outputs": [
        {
          "internalType": "uint256",
          "name": "i",
          "type": "uint256"
        }
      ],
      "stateMutability": "view",
      "type": "function"
    },
    {
      "inputs": [
        {
          "internalType": "bytes32",
          "name": "role",
          "type": "bytes32"
        },
        {
          "internalType": "address",
          "name": "account",
          "type": "address"
        }
      ],
      "name": "grantRole",
      "outputs": [],
      "stateMutability": "nonpayable",
      "type": "function"
    },
    {
      "inputs": [
        {
          "internalType": "address",
          "name": "",
          "type": "address"
        }
      ],
      "name": "hasBeenSubscribed",
      "outputs": [
        {
          "internalType": "bool",
          "name": "",
          "type": "bool"
        }
      ],
      "stateMutability": "view",
      "type": "function"
    },
    {
      "inputs": [
        {
          "internalType": "bytes32",
          "name": "role",
          "type": "bytes32"
        },
        {
          "internalType": "address",
          "name": "account",
          "type": "address"
        }
      ],
      "name": "hasRole",
      "outputs": [
        {
          "internalType": "bool",
          "name": "",
          "type": "bool"
        }
      ],
      "stateMutability": "view",
      "type": "function"
    },
    {
      "inputs": [
        {
          "internalType": "uint256",
          "name": "_entryCost",
          "type": "uint256"
        },
        {
          "internalType": "uint256",
          "name": "_fees",
          "type": "uint256"
        },
        {
          "internalType": "uint256",
          "name": "_delayPeriod",
          "type": "uint256"
        },
        {
          "internalType": "address",
          "name": "_token",
          "type": "address"
        },
        {
          "internalType": "address",
          "name": "_memberShipAddress",
          "type": "address"
        },
        {
          "internalType": "address",
          "name": "_lessAddress",
          "type": "address"
        }
      ],
      "name": "initialize",
      "outputs": [],
      "stateMutability": "nonpayable",
      "type": "function"
    },
    {
      "inputs": [
        {
          "internalType": "address",
          "name": "_user",
          "type": "address"
        },
        {
          "internalType": "uint256",
          "name": "_tokenId",
          "type": "uint256"
        }
      ],
      "name": "isOwnerOf",
      "outputs": [
        {
          "internalType": "bool",
          "name": "",
          "type": "bool"
        }
      ],
      "stateMutability": "view",
      "type": "function"
    },
    {
      "inputs": [],
      "name": "lessAddress",
      "outputs": [
        {
          "internalType": "address",
          "name": "",
          "type": "address"
        }
      ],
      "stateMutability": "view",
      "type": "function"
    },
    {
      "inputs": [],
      "name": "lessReward",
      "outputs": [
        {
          "internalType": "uint256",
          "name": "",
          "type": "uint256"
        }
      ],
      "stateMutability": "view",
      "type": "function"
    },
    {
      "inputs": [
        {
          "internalType": "address",
          "name": "_token",
          "type": "address"
        }
      ],
      "name": "listNewToken",
      "outputs": [
        {
          "internalType": "bool",
          "name": "",
          "type": "bool"
        }
      ],
      "stateMutability": "nonpayable",
      "type": "function"
    },
    {
      "inputs": [
        {
          "internalType": "address",
          "name": "",
          "type": "address"
        }
      ],
      "name": "listedToken",
      "outputs": [
        {
          "internalType": "bool",
          "name": "",
          "type": "bool"
        }
      ],
      "stateMutability": "view",
      "type": "function"
    },
    {
      "inputs": [
        {
          "internalType": "address[]",
          "name": "_user",
          "type": "address[]"
        },
        {
          "internalType": "uint256[]",
          "name": "_userSubscribeIndexId",
          "type": "uint256[]"
        },
        {
          "internalType": "uint256[]",
          "name": "_userTokenId",
          "type": "uint256[]"
        },
        {
          "internalType": "uint256[]",
          "name": "_amount",
          "type": "uint256[]"
        },
        {
          "internalType": "uint256[]",
          "name": "_weeklyAverage",
          "type": "uint256[]"
        },
        {
          "internalType": "address[]",
          "name": "_token",
          "type": "address[]"
        }
      ],
      "name": "lockEntryFunds",
      "outputs": [],
      "stateMutability": "payable",
      "type": "function"
    },
    {
      "inputs": [],
      "name": "memberShipAddress",
      "outputs": [
        {
          "internalType": "address",
          "name": "",
          "type": "address"
        }
      ],
      "stateMutability": "view",
      "type": "function"
    },
    {
      "inputs": [
        {
          "internalType": "address",
          "name": "_token",
          "type": "address"
        }
      ],
      "name": "newCycle",
      "outputs": [],
      "stateMutability": "payable",
      "type": "function"
    },
    {
      "inputs": [
        {
          "internalType": "uint256",
          "name": "",
          "type": "uint256"
        }
      ],
      "name": "participants",
      "outputs": [
        {
          "internalType": "address",
          "name": "",
          "type": "address"
        }
      ],
      "stateMutability": "view",
      "type": "function"
    },
    {
      "inputs": [
        {
          "internalType": "address",
          "name": "",
          "type": "address"
        }
      ],
      "name": "poolBalance",
      "outputs": [
        {
          "internalType": "uint256",
          "name": "",
          "type": "uint256"
        }
      ],
      "stateMutability": "view",
      "type": "function"
    },
    {
      "inputs": [
        {
          "internalType": "address",
          "name": "",
          "type": "address"
        }
      ],
      "name": "questBalance",
      "outputs": [
        {
          "internalType": "uint256",
          "name": "",
          "type": "uint256"
        }
      ],
      "stateMutability": "view",
      "type": "function"
    },
    {
      "inputs": [],
      "name": "questEntryCost",
      "outputs": [
        {
          "internalType": "uint256",
          "name": "",
          "type": "uint256"
        }
      ],
      "stateMutability": "view",
      "type": "function"
    },
    {
      "inputs": [],
      "name": "questEntryToken",
      "outputs": [
        {
          "internalType": "address",
          "name": "",
          "type": "address"
        }
      ],
      "stateMutability": "view",
      "type": "function"
    },
    {
      "inputs": [],
      "name": "registerToWaitingList",
      "outputs": [
        {
          "internalType": "bool",
          "name": "",
          "type": "bool"
        }
      ],
      "stateMutability": "nonpayable",
      "type": "function"
    },
    {
      "inputs": [
        {
          "internalType": "bytes32",
          "name": "role",
          "type": "bytes32"
        },
        {
          "internalType": "address",
          "name": "account",
          "type": "address"
        }
      ],
      "name": "renounceRole",
      "outputs": [],
      "stateMutability": "nonpayable",
      "type": "function"
    },
    {
      "inputs": [
        {
          "internalType": "bytes32",
          "name": "role",
          "type": "bytes32"
        },
        {
          "internalType": "address",
          "name": "account",
          "type": "address"
        }
      ],
      "name": "revokeRole",
      "outputs": [],
      "stateMutability": "nonpayable",
      "type": "function"
    },
    {
      "inputs": [
        {
          "internalType": "address",
          "name": "_actualToken",
          "type": "address"
        }
      ],
      "name": "setActualQuestToken",
      "outputs": [
        {
          "internalType": "address",
          "name": "",
          "type": "address"
        }
      ],
      "stateMutability": "nonpayable",
      "type": "function"
    },
    {
      "inputs": [
        {
          "internalType": "uint256",
          "name": "_newPeriod",
          "type": "uint256"
        }
      ],
      "name": "setDelayPeriod",
      "outputs": [
        {
          "internalType": "uint256",
          "name": "",
          "type": "uint256"
        }
      ],
      "stateMutability": "nonpayable",
      "type": "function"
    },
    {
      "inputs": [
        {
          "internalType": "uint256",
          "name": "_newPeriod",
          "type": "uint256"
        }
      ],
      "name": "setEndPeriod",
      "outputs": [
        {
          "internalType": "uint256",
          "name": "",
          "type": "uint256"
        }
      ],
      "stateMutability": "nonpayable",
      "type": "function"
    },
    {
      "inputs": [
        {
          "internalType": "uint256",
          "name": "_newPrice",
          "type": "uint256"
        }
      ],
      "name": "setEntryCost",
      "outputs": [
        {
          "internalType": "uint256",
          "name": "",
          "type": "uint256"
        }
      ],
      "stateMutability": "nonpayable",
      "type": "function"
    },
    {
      "inputs": [
        {
          "internalType": "uint256",
          "name": "_newPrice",
          "type": "uint256"
        }
      ],
      "name": "setFees",
      "outputs": [
        {
          "internalType": "uint256",
          "name": "",
          "type": "uint256"
        }
      ],
      "stateMutability": "nonpayable",
      "type": "function"
    },
    {
      "inputs": [
        {
          "internalType": "address",
          "name": "_token",
          "type": "address"
        }
      ],
      "name": "setLessAddress",
      "outputs": [
        {
          "internalType": "address",
          "name": "",
          "type": "address"
        }
      ],
      "stateMutability": "nonpayable",
      "type": "function"
    },
    {
      "inputs": [
        {
          "internalType": "uint256",
          "name": "_newReward",
          "type": "uint256"
        }
      ],
      "name": "setLessReward",
      "outputs": [
        {
          "internalType": "uint256",
          "name": "",
          "type": "uint256"
        }
      ],
      "stateMutability": "nonpayable",
      "type": "function"
    },
    {
      "inputs": [
        {
          "internalType": "address",
          "name": "_membership",
          "type": "address"
        }
      ],
      "name": "setMemberShipAddress",
      "outputs": [
        {
          "internalType": "address",
          "name": "",
          "type": "address"
        }
      ],
      "stateMutability": "nonpayable",
      "type": "function"
    },
    {
      "inputs": [],
      "name": "startPeriod",
      "outputs": [
        {
          "internalType": "uint256",
          "name": "",
          "type": "uint256"
        }
      ],
      "stateMutability": "view",
      "type": "function"
    },
    {
      "inputs": [
        {
          "internalType": "address",
          "name": "_token",
          "type": "address"
        },
        {
          "internalType": "uint256",
          "name": "_amount",
          "type": "uint256"
        }
      ],
      "name": "supplyToPool",
      "outputs": [
        {
          "internalType": "uint256",
          "name": "",
          "type": "uint256"
        }
      ],
      "stateMutability": "payable",
      "type": "function"
    },
    {
      "inputs": [
        {
          "internalType": "bytes4",
          "name": "interfaceId",
          "type": "bytes4"
        }
      ],
      "name": "supportsInterface",
      "outputs": [
        {
          "internalType": "bool",
          "name": "",
          "type": "bool"
        }
      ],
      "stateMutability": "view",
      "type": "function"
    },
    {
      "inputs": [
        {
          "internalType": "uint256",
          "name": "_userSubscribeIndexId",
          "type": "uint256"
        }
      ],
      "name": "unregisterFromWaitingList",
      "outputs": [
        {
          "internalType": "bool",
          "name": "",
          "type": "bool"
        }
      ],
      "stateMutability": "nonpayable",
      "type": "function"
    },
    {
      "inputs": [
        {
          "internalType": "address",
          "name": "_user",
          "type": "address"
        },
        {
          "internalType": "bool",
          "name": "_hasWin",
          "type": "bool"
        }
      ],
      "name": "updateUserTwitterData",
      "outputs": [
        {
          "components": [
            {
              "internalType": "address",
              "name": "tokenDeposited",
              "type": "address"
            },
            {
              "internalType": "uint256",
              "name": "tokenId",
              "type": "uint256"
            },
            {
              "internalType": "uint256",
              "name": "initialFunds",
              "type": "uint256"
            },
            {
              "internalType": "uint256",
              "name": "weeklyGoalAverage",
              "type": "uint256"
            },
            {
              "internalType": "bool",
              "name": "hasWin",
              "type": "bool"
            }
          ],
          "internalType": "struct TwitterQuest.UserData",
          "name": "",
          "type": "tuple"
        }
      ],
      "stateMutability": "nonpayable",
      "type": "function"
    },
    {
      "inputs": [
        {
          "internalType": "address",
          "name": "",
          "type": "address"
        },
        {
          "internalType": "address",
          "name": "",
          "type": "address"
        }
      ],
      "name": "userPoolShares",
      "outputs": [
        {
          "internalType": "uint256",
          "name": "",
          "type": "uint256"
        }
      ],
      "stateMutability": "view",
      "type": "function"
    },
    {
      "inputs": [
        {
          "internalType": "address",
          "name": "",
          "type": "address"
        }
      ],
      "name": "userTwitterData",
      "outputs": [
        {
          "internalType": "address",
          "name": "tokenDeposited",
          "type": "address"
        },
        {
          "internalType": "uint256",
          "name": "tokenId",
          "type": "uint256"
        },
        {
          "internalType": "uint256",
          "name": "initialFunds",
          "type": "uint256"
        },
        {
          "internalType": "uint256",
          "name": "weeklyGoalAverage",
          "type": "uint256"
        },
        {
          "internalType": "bool",
          "name": "hasWin",
          "type": "bool"
        }
      ],
      "stateMutability": "view",
      "type": "function"
    },
    {
      "inputs": [
        {
          "internalType": "address",
          "name": "",
          "type": "address"
        }
      ],
      "name": "waitingList",
      "outputs": [
        {
          "internalType": "bool",
          "name": "",
          "type": "bool"
        }
      ],
      "stateMutability": "view",
      "type": "function"
    },
    {
      "inputs": [
        {
          "internalType": "uint256",
          "name": "",
          "type": "uint256"
        }
      ],
      "name": "waitingListIndex",
      "outputs": [
        {
          "internalType": "address",
          "name": "",
          "type": "address"
        }
      ],
      "stateMutability": "view",
      "type": "function"
    },
    {
      "inputs": [
        {
          "internalType": "uint256",
          "name": "",
          "type": "uint256"
        }
      ],
      "name": "winners",
      "outputs": [
        {
          "internalType": "address",
          "name": "",
          "type": "address"
        }
      ],
      "stateMutability": "view",
      "type": "function"
    },
    {
      "inputs": [
        {
          "internalType": "uint256",
          "name": "_amount",
          "type": "uint256"
        },
        {
          "internalType": "address",
          "name": "_token",
          "type": "address"
        }
      ],
      "name": "withdrawFromPool",
      "outputs": [
        {
          "internalType": "uint256",
          "name": "",
          "type": "uint256"
        }
      ],
      "stateMutability": "payable",
      "type": "function"
    },
    {
      "stateMutability": "payable",
      "type": "receive"
    }
  ],
  "bytecode": "0x60806040523480156200001157600080fd5b5060405162003f4238038062003f42833981016040819052620000349162000186565b60016000908155620000479083620000e0565b62000054600082620000e0565b62000061600030620000e0565b50600680546001600160a01b039092166001600160a01b031992831617905542600c5560078054909116739aa7fec87ca69695dd1f879567ccf49f3ba417e290811790915560005260166020527f21af9261923f6ab771ebe017d605388e673bc134f891e90c368f22433a9e4158805460ff19166001179055620001be565b60008281526001602090815260408083206001600160a01b038516845290915290205460ff16620001655760008281526001602081815260408084206001600160a01b0386168086529252808420805460ff19169093179092559051339285917f2f8788117e7eff1d82e926ec794901d17c78024a50270940304540a733656f0d9190a45b5050565b80516001600160a01b03811681146200018157600080fd5b919050565b600080604083850312156200019a57600080fd5b620001a58362000169565b9150620001b56020840162000169565b90509250929050565b613d7480620001ce6000396000f3fe60806040526004361061032d5760003560e01c80636caa7ba0116101a5578063b1c94d94116100ec578063d547741f11610095578063f069f7121161006f578063f069f71214610a62578063f616942014610a82578063f9ec83b014610aa2578063fc6f946814610acf57600080fd5b8063d547741f14610a0c578063da22e3d214610a2c578063ec48b5f214610a4257600080fd5b8063c5b8f772116100c6578063c5b8f7721461099f578063cd8d9994146109bf578063d30dc5f3146109ec57600080fd5b8063b1c94d941461093e578063b32e636314610954578063bc8e8c5b1461096757600080fd5b8063a217fddf1161014e578063ac70ef3511610128578063ac70ef35146108de578063ae29f7f9146108f1578063aff62f1f1461091157600080fd5b8063a217fddf14610804578063a2fb117514610819578063a4ca9d8e1461083957600080fd5b8063917886c51161017f578063917886c51461078857806391d148541461079b5780639af1d35a146107ee57600080fd5b80636caa7ba0146107255780636ff35d791461073b5780637f48c9de1461076857600080fd5b806330bfb9bb116102745780633d5721071161021d5780635dd27da3116101f75780635dd27da3146106925780635faa65ff146106b257806368abb5e0146106c85780636b046b3d146106f557600080fd5b80633d572107146105e3578063488e0dfd146106035780635669bc731461067d57600080fd5b806337abc83b1161024e57806337abc83b14610573578063397148d3146105935780633d18678e146105c357600080fd5b806330bfb9bb1461051d57806335c1d3491461053357806336568abe1461055357600080fd5b80631b9be3de116102d657806325f2e320116102b057806325f2e320146104c85780632cbcb1f2146104e85780632f2ff15d146104fb57600080fd5b80631b9be3de1461043957806321c1e11514610469578063248a9ca31461048957600080fd5b80630f6f02bb116103075780630f6f02bb146103d3578063136b5d7c14610402578063195ec9ee1461041757600080fd5b806301ffc9a71461033957806304c4e1991461036e5780630e772618146103b357600080fd5b3661033457005b600080fd5b34801561034557600080fd5b50610359610354366004613479565b610afc565b60405190151581526020015b60405180910390f35b34801561037a57600080fd5b5061038e6103893660046134bb565b610b95565b60405173ffffffffffffffffffffffffffffffffffffffff9091168152602001610365565b3480156103bf57600080fd5b5061038e6103ce3660046134f8565b610bcc565b3480156103df57600080fd5b506103e8610c22565b6040516103659e9d9c9b9a99989796959493929190613564565b34801561040e57600080fd5b50610359610d61565b34801561042357600080fd5b5061042c610e44565b604051610365919061361d565b34801561044557600080fd5b506103596104543660046134f8565b60166020526000908152604090205460ff1681565b34801561047557600080fd5b506103596104843660046134f8565b610eb3565b34801561049557600080fd5b506104ba6104a43660046134bb565b6000908152600160208190526040909120015490565b604051908152602001610365565b3480156104d457600080fd5b506103596104e33660046134bb565b610f14565b6104ba6104f6366004613630565b6110b1565b34801561050757600080fd5b5061051b610516366004613630565b611324565b005b34801561052957600080fd5b506104ba600c5481565b34801561053f57600080fd5b5061038e61054e3660046134bb565b61134f565b34801561055f57600080fd5b5061051b61056e366004613630565b61135f565b34801561057f57600080fd5b506104ba61058e3660046134bb565b611412565b34801561059f57600080fd5b506103596105ae3660046134f8565b60136020526000908152604090205460ff1681565b3480156105cf57600080fd5b506104ba6105de3660046134bb565b61143d565b3480156105ef57600080fd5b506104ba6105fe3660046134bb565b611453565b34801561060f57600080fd5b5061062361061e36600461366a565b611469565b6040516103659190600060a08201905073ffffffffffffffffffffffffffffffffffffffff835116825260208301516020830152604083015160408301526060830151606083015260808301511515608083015292915050565b34801561068957600080fd5b5061042c6115b8565b34801561069e57600080fd5b506104ba6106ad3660046134bb565b611625565b3480156106be57600080fd5b506104ba600d5481565b3480156106d457600080fd5b506104ba6106e33660046134f8565b600f6020526000908152604090205481565b34801561070157600080fd5b506103596107103660046134f8565b60146020526000908152604090205460ff1681565b34801561073157600080fd5b506104ba60095481565b34801561074757600080fd5b5060075461038e9073ffffffffffffffffffffffffffffffffffffffff1681565b34801561077457600080fd5b5061038e6107833660046134f8565b61163b565b6104ba6107963660046136a1565b61168c565b3480156107a757600080fd5b506103596107b6366004613630565b600091825260016020908152604080842073ffffffffffffffffffffffffffffffffffffffff93909316845291905290205460ff1690565b3480156107fa57600080fd5b506104ba600b5481565b34801561081057600080fd5b506104ba600081565b34801561082557600080fd5b5061038e6108343660046134bb565b6118c5565b34801561084557600080fd5b5061089d6108543660046134f8565b6012602052600090815260409020805460018201546002830154600384015460049094015473ffffffffffffffffffffffffffffffffffffffff90931693919290919060ff1685565b6040805173ffffffffffffffffffffffffffffffffffffffff909616865260208601949094529284019190915260608301521515608082015260a001610365565b61051b6108ec36600461383a565b6118d5565b3480156108fd57600080fd5b506104ba61090c3660046134bb565b61212e565b34801561091d57600080fd5b506104ba61092c3660046134f8565b60116020526000908152604090205481565b34801561094a57600080fd5b506104ba600e5481565b61051b6109623660046134f8565b612144565b34801561097357600080fd5b506104ba61098236600461392f565b601060209081526000928352604080842090915290825290205481565b3480156109ab57600080fd5b506103596109ba3660046136a1565b612875565b3480156109cb57600080fd5b5060055461038e9073ffffffffffffffffffffffffffffffffffffffff1681565b3480156109f857600080fd5b506104ba610a073660046134f8565b612918565b348015610a1857600080fd5b5061051b610a27366004613630565b612980565b348015610a3857600080fd5b506104ba600a5481565b348015610a4e57600080fd5b5061038e610a5d3660046134f8565b6129a6565b348015610a6e57600080fd5b50610359610a7d3660046134f8565b612a86565b348015610a8e57600080fd5b5061051b610a9d366004613959565b612ae1565b348015610aae57600080fd5b5060045461038e9073ffffffffffffffffffffffffffffffffffffffff1681565b348015610adb57600080fd5b5060065461038e9073ffffffffffffffffffffffffffffffffffffffff1681565b60007fffffffff0000000000000000000000000000000000000000000000000000000082167f7965db0b000000000000000000000000000000000000000000000000000000001480610b8f57507f01ffc9a7000000000000000000000000000000000000000000000000000000007fffffffff000000000000000000000000000000000000000000000000000000008316145b92915050565b60158181548110610ba557600080fd5b60009182526020909120015473ffffffffffffffffffffffffffffffffffffffff16905081565b600080610bd881612c12565b600580547fffffffffffffffffffffffff00000000000000000000000000000000000000001673ffffffffffffffffffffffffffffffffffffffff85161790558291505b50919050565b600454600554600754600954600a54600b5473ffffffffffffffffffffffffffffffffffffffff93841660008181526011602090815260409182902054600e54600c54600d54600280546015548851828902810189019099528189529e8d169e9c909d169c979b9497939692959194926060928392908690830182828015610ce057602002820191906000526020600020905b815473ffffffffffffffffffffffffffffffffffffffff168152600190910190602001808311610cb5575b505050505091506015805480602002602001604051908101604052809291908181526020018280548015610d4a57602002820191906000526020600020905b815473ffffffffffffffffffffffffffffffffffffffff168152600190910190602001808311610d1f575b50505050509050909192939495969798999a9b9c9d565b3360008181526013602052604080822080547fffffffffffffffffffffffffffffffffffffffffffffffffffffffffffffff0016600190811790915560158054918201815583527f55f448fdea98c4d29eb340757ef0a66cd03dbb9538908a6a81d96026b71ec4750180547fffffffffffffffffffffffff00000000000000000000000000000000000000001684179055519091907f2551bf306f82993a2c550df966019a69e9e20f1857fe36632783abc36b64882490610e259042815260200190565b60405180910390a2503360009081526013602052604090205460ff1690565b60606002805480602002602001604051908101604052809291908181526020018280548015610ea957602002820191906000526020600020905b815473ffffffffffffffffffffffffffffffffffffffff168152600190910190602001808311610e7e575b5050505050905090565b600080610ebf81612c12565b505073ffffffffffffffffffffffffffffffffffffffff16600090815260166020526040902080547fffffffffffffffffffffffffffffffffffffffffffffffffffffffffffffff0016600190811790915590565b33600090815260136020526040812080547fffffffffffffffffffffffffffffffffffffffffffffffffffffffffffffff001690556015548214610ff45760158054610f62906001906139e7565b81548110610f7257610f726139fe565b6000918252602090912001546015805473ffffffffffffffffffffffffffffffffffffffff9092169184908110610fab57610fab6139fe565b9060005260206000200160006101000a81548173ffffffffffffffffffffffffffffffffffffffff021916908373ffffffffffffffffffffffffffffffffffffffff1602179055505b601580548061100557611005613a2d565b60008281526020902081017fffffffffffffffffffffffffffffffffffffffffffffffffffffffffffffffff90810180547fffffffffffffffffffffffff000000000000000000000000000000000000000016905501905560405133907f84a4346a5d805f3f1e56b4ef9ab734c62baad7646e8a12adc91d8ea5b0937806906110919042815260200190565b60405180910390a250503360009081526013602052604090205460ff1690565b600060026000541415611125576040517f08c379a000000000000000000000000000000000000000000000000000000000815260206004820152601f60248201527f5265656e7472616e637947756172643a207265656e7472616e742063616c6c0060448201526064015b60405180910390fd5b6002600090815533815260106020908152604080832073ffffffffffffffffffffffffffffffffffffffff86168452909152902054831180159061118e575073ffffffffffffffffffffffffffffffffffffffff82166000908152600f60205260409020548311155b6111f4576040517f08c379a000000000000000000000000000000000000000000000000000000000815260206004820152601c60248201527f4e6f7420456e6f756768742046756e647320417661696c6169626c6500000000604482015260640161111c565b73ffffffffffffffffffffffffffffffffffffffff82166000908152600f6020526040812080548592906112299084906139e7565b909155505033600090815260106020908152604080832073ffffffffffffffffffffffffffffffffffffffff861684529091528120805485929061126e9084906139e7565b90915550611295905073ffffffffffffffffffffffffffffffffffffffff83163385612c1f565b6040805184815242602082015273ffffffffffffffffffffffffffffffffffffffff84169133917f817b0c0d4788c2aad942468226077f2ecebee8ffc9a58c433b980b15d2679d70910160405180910390a35033600090815260106020908152604080832073ffffffffffffffffffffffffffffffffffffffff85168452909152902054600160005592915050565b6000828152600160208190526040909120015461134081612c12565b61134a8383612cac565b505050565b60028181548110610ba557600080fd5b73ffffffffffffffffffffffffffffffffffffffff81163314611404576040517f08c379a000000000000000000000000000000000000000000000000000000000815260206004820152602f60248201527f416363657373436f6e74726f6c3a2063616e206f6e6c792072656e6f756e636560448201527f20726f6c657320666f722073656c660000000000000000000000000000000000606482015260840161111c565b61140e8282612d6b565b5050565b60008061141e81612c12565b826114305742600d8190559150610c1c565b82600d8190559150610c1c565b60008061144981612c12565b5050600b81905590565b60008061145f81612c12565b5050600e81905590565b6114b36040518060a00160405280600073ffffffffffffffffffffffffffffffffffffffff1681526020016000815260200160008152602001600081526020016000151581525090565b60006114be81612c12565b73ffffffffffffffffffffffffffffffffffffffff84166000818152601260209081526040918290206004810180547fffffffffffffffffffffffffffffffffffffffffffffffffffffffffffffff001688151517905591514281529192917f308c041c1c18db97c5cc15aa678c0d5005acf25a546859a898c80a1b8b059825910160405180910390a25050505073ffffffffffffffffffffffffffffffffffffffff908116600090815260126020908152604091829020825160a08101845281549094168452600181015491840191909152600281015491830191909152600381015460608301526004015460ff161515608082015290565b60606015805480602002602001604051908101604052809291908181526020018280548015610ea95760200282019190600052602060002090815473ffffffffffffffffffffffffffffffffffffffff168152600190910190602001808311610e7e575050505050905090565b60008061163181612c12565b5050600a81905590565b60008061164781612c12565b5050600480547fffffffffffffffffffffffff00000000000000000000000000000000000000001673ffffffffffffffffffffffffffffffffffffffff831617905590565b6000600260005414156116fb576040517f08c379a000000000000000000000000000000000000000000000000000000000815260206004820152601f60248201527f5265656e7472616e637947756172643a207265656e7472616e742063616c6c00604482015260640161111c565b6002600090815573ffffffffffffffffffffffffffffffffffffffff84168152600f6020526040902054611730908390613a5c565b73ffffffffffffffffffffffffffffffffffffffff84166000818152600f60209081526040808320949094553382526010815283822092825291909152205461177a908390613a5c565b33600081815260106020908152604080832073ffffffffffffffffffffffffffffffffffffffff891680855292529182902093909355517f23b872dd0000000000000000000000000000000000000000000000000000000081526004810191909152306024820152604481018490526323b872dd906064016020604051808303816000875af1158015611811573d6000803e3d6000fd5b505050506040513d601f19601f820116820180604052508101906118359190613a74565b506040805183815242602082015273ffffffffffffffffffffffffffffffffffffffff85169133917f19847924cfe7c381901e8df773ec70d38220e578da206a5250ec51cf539aec21910160405180910390a35033600090815260106020908152604080832073ffffffffffffffffffffffffffffffffffffffff86168452909152902054600160005592915050565b60038181548110610ba557600080fd5b60006118e081612c12565b60005b8751811015612124578481815181106118fe576118fe6139fe565b6020026020010151601060008a848151811061191c5761191c6139fe565b602002602001015173ffffffffffffffffffffffffffffffffffffffff1673ffffffffffffffffffffffffffffffffffffffff1681526020019081526020016000206000858481518110611972576119726139fe565b602002602001015173ffffffffffffffffffffffffffffffffffffffff1673ffffffffffffffffffffffffffffffffffffffff1681526020019081526020016000205410611f4f576000601260008a84815181106119d2576119d26139fe565b602002602001015173ffffffffffffffffffffffffffffffffffffffff1673ffffffffffffffffffffffffffffffffffffffff1681526020019081526020016000209050858281518110611a2857611a286139fe565b60200260200101518160020181905550838281518110611a4a57611a4a6139fe565b602090810291909101015181547fffffffffffffffffffffffff00000000000000000000000000000000000000001673ffffffffffffffffffffffffffffffffffffffff9091161781558451859083908110611aa857611aa86139fe565b60200260200101518160030181905550858281518110611aca57611aca6139fe565b602002602001015160116000868581518110611ae857611ae86139fe565b602002602001015173ffffffffffffffffffffffffffffffffffffffff1673ffffffffffffffffffffffffffffffffffffffff16815260200190815260200160002054611b359190613a5c565b60116000868581518110611b4b57611b4b6139fe565b602002602001015173ffffffffffffffffffffffffffffffffffffffff1673ffffffffffffffffffffffffffffffffffffffff16815260200190815260200160002081905550858281518110611ba357611ba36139fe565b6020026020010151600f6000868581518110611bc157611bc16139fe565b602002602001015173ffffffffffffffffffffffffffffffffffffffff1673ffffffffffffffffffffffffffffffffffffffff16815260200190815260200160002054611c0e91906139e7565b600f6000868581518110611c2457611c246139fe565b602002602001015173ffffffffffffffffffffffffffffffffffffffff1673ffffffffffffffffffffffffffffffffffffffff16815260200190815260200160002081905550858281518110611c7c57611c7c6139fe565b6020026020010151601060008b8581518110611c9a57611c9a6139fe565b602002602001015173ffffffffffffffffffffffffffffffffffffffff1673ffffffffffffffffffffffffffffffffffffffff1681526020019081526020016000206000868581518110611cf057611cf06139fe565b602002602001015173ffffffffffffffffffffffffffffffffffffffff1673ffffffffffffffffffffffffffffffffffffffff16815260200190815260200160002054611d3d91906139e7565b601060008b8581518110611d5357611d536139fe565b602002602001015173ffffffffffffffffffffffffffffffffffffffff1673ffffffffffffffffffffffffffffffffffffffff1681526020019081526020016000206000868581518110611da957611da96139fe565b602002602001015173ffffffffffffffffffffffffffffffffffffffff1673ffffffffffffffffffffffffffffffffffffffff168152602001908152602001600020819055506002898381518110611e0357611e036139fe565b60209081029190910181015182546001810184556000938452919092200180547fffffffffffffffffffffffff00000000000000000000000000000000000000001673ffffffffffffffffffffffffffffffffffffffff9092169190911790558851899083908110611e7757611e776139fe565b602002602001015173ffffffffffffffffffffffffffffffffffffffff167f564af6e7f0eec554bc1515f3cbfd9d9a355cf05c4e4358ba5d0977f3c3cd544c878481518110611ec857611ec86139fe565b6020026020010151878581518110611ee257611ee26139fe565b6020026020010151878681518110611efc57611efc6139fe565b602002602001015142604051611f419493929190938452602084019290925273ffffffffffffffffffffffffffffffffffffffff166040830152606082015260800190565b60405180910390a250612112565b6000601360008a8481518110611f6757611f676139fe565b60209081029190910181015173ffffffffffffffffffffffffffffffffffffffff16825281019190915260400160002080547fffffffffffffffffffffffffffffffffffffffffffffffffffffffffffffff00169115159190911790556015548751889083908110611fdb57611fdb6139fe565b6020026020010151146120a85760158054611ff8906001906139e7565b81548110612008576120086139fe565b9060005260206000200160009054906101000a900473ffffffffffffffffffffffffffffffffffffffff166015888381518110612047576120476139fe565b60200260200101518154811061205f5761205f6139fe565b9060005260206000200160006101000a81548173ffffffffffffffffffffffffffffffffffffffff021916908373ffffffffffffffffffffffffffffffffffffffff1602179055505b60158054806120b9576120b9613a2d565b60008281526020902081017fffffffffffffffffffffffffffffffffffffffffffffffffffffffffffffffff90810180547fffffffffffffffffffffffff00000000000000000000000000000000000000001690550190555b8061211c81613a91565b9150506118e3565b5050505050505050565b60008061213a81612c12565b5050600981905590565b600061214f81612c12565b600b5473ffffffffffffffffffffffffffffffffffffffff83166000908152601160205260408120549091612183916139e7565b905060005b60025481101561232257600060126000600284815481106121ab576121ab6139fe565b600091825260208083209091015473ffffffffffffffffffffffffffffffffffffffff1683528201929092526040019020600481015490915060ff161561226257600360028381548110612201576122016139fe565b60009182526020808320909101548354600181018555938352912090910180547fffffffffffffffffffffffff00000000000000000000000000000000000000001673ffffffffffffffffffffffffffffffffffffffff9092169190911790555b6012600060028481548110612279576122796139fe565b600091825260208083209091015473ffffffffffffffffffffffffffffffffffffffff168352820192909252604001812080547fffffffffffffffffffffffff00000000000000000000000000000000000000001681556001810182905560028101829055600381019190915560040180547fffffffffffffffffffffffffffffffffffffffffffffffffffffffffffffff00169055508061231a81613a91565b915050612188565b5061232f60026000613447565b6003541561285b576003546000906123479083613aca565b905060005b60035481101561284c576005546003805473ffffffffffffffffffffffffffffffffffffffff909216918491601091600091908690811061238f5761238f6139fe565b600091825260208083209091015473ffffffffffffffffffffffffffffffffffffffff90811684528382019490945260409283018220938b168252929092529020546123db9190613a5c565b60106000600385815481106123f2576123f26139fe565b600091825260208083209091015473ffffffffffffffffffffffffffffffffffffffff90811684528382019490945260409283018220938b16825292835281812093909355601190915290205461244a9084906139e7565b73ffffffffffffffffffffffffffffffffffffffff8716600090815260116020908152604080832093909355600f90522054612487908490613a5c565b600f60008873ffffffffffffffffffffffffffffffffffffffff1673ffffffffffffffffffffffffffffffffffffffff1681526020019081526020016000208190555061251260405180610100016040528060008152602001600081526020016000815260200160008152602001600081526020016000815260200160008152602001600081525090565b805161251f90600a613a5c565b81526020810151612531906001613a5c565b60208201526040810151612546906001613a5c565b8160400181815250508173ffffffffffffffffffffffffffffffffffffffff16639f70756d6012600060038781548110612582576125826139fe565b600091825260208083209091015473ffffffffffffffffffffffffffffffffffffffff16835282019290925260400190206001015460038054879081106125cb576125cb6139fe565b600091825260209182902001546040805160e086811b7fffffffff00000000000000000000000000000000000000000000000000000000168252600482019590955273ffffffffffffffffffffffffffffffffffffffff909216602483015286516044830152918601516064820152908501516084820152606085015160a4820152608085015160c482015260a085015160e482015260c08501516101048201529084015161012482015261014401610100604051808303816000875af115801561269a573d6000803e3d6000fd5b505050506040513d601f19601f820116820180604052508101906126be9190613b05565b50600a54600480546040517f70a08231000000000000000000000000000000000000000000000000000000008152309281019290925273ffffffffffffffffffffffffffffffffffffffff16906370a0823190602401602060405180830381865afa158015612731573d6000803e3d6000fd5b505050506040513d601f19601f820116820180604052508101906127559190613b95565b1115612837576004546003805473ffffffffffffffffffffffffffffffffffffffff9092169163a9059cbb919086908110612792576127926139fe565b600091825260209091200154600a5460405160e084901b7fffffffff0000000000000000000000000000000000000000000000000000000016815273ffffffffffffffffffffffffffffffffffffffff909216600483015260248201526044016020604051808303816000875af1158015612811573d6000803e3d6000fd5b505050506040513d601f19601f820116820180604052508101906128359190613a74565b505b5050808061284490613a91565b91505061234c565b5061285960036000613447565b505b42600c819055600e5461286d91613a5c565b600d55505050565b6005546040517fc5b8f77200000000000000000000000000000000000000000000000000000000815273ffffffffffffffffffffffffffffffffffffffff848116600483015260248201849052600092169063c5b8f77290604401602060405180830381865afa1580156128ed573d6000803e3d6000fd5b505050506040513d601f19601f820116820180604052508101906129119190613a74565b9392505050565b60005b60155481101561297b5760158181548110612938576129386139fe565b60009182526020909120015473ffffffffffffffffffffffffffffffffffffffff8381169116141561296957919050565b8061297381613a91565b91505061291b565b919050565b6000828152600160208190526040909120015461299c81612c12565b61134a8383612d6b565b6000806129b281612c12565b73ffffffffffffffffffffffffffffffffffffffff831660009081526016602052604090205460ff16612a41576040517f08c379a000000000000000000000000000000000000000000000000000000000815260206004820152601260248201527f546f6b656e204e6f74204c697374656420210000000000000000000000000000604482015260640161111c565b5050600780547fffffffffffffffffffffffff00000000000000000000000000000000000000001673ffffffffffffffffffffffffffffffffffffffff831617905590565b600080612a9281612c12565b505073ffffffffffffffffffffffffffffffffffffffff16600090815260166020526040812080547fffffffffffffffffffffffffffffffffffffffffffffffffffffffffffffff0016905590565b6000612aec81612c12565b6009879055600b86905573ffffffffffffffffffffffffffffffffffffffff8481166000818152601660205260409020805460017fffffffffffffffffffffffffffffffffffffffffffffffffffffffffffffff009091168117909155600780547fffffffffffffffffffffffff0000000000000000000000000000000000000000908116909317905560058054831687851617905560048054909216928516929092179055851415612ba55762278d00600e55612bab565b600e8590555b604080518881526020810188905290810186905273ffffffffffffffffffffffffffffffffffffffff80851691908616907fee08cfb078784d8a182b8270a792d2b387ab3c790855a6862073c5a64d7735299060600160405180910390a350505050505050565b612c1c8133612e26565b50565b6040805173ffffffffffffffffffffffffffffffffffffffff8416602482015260448082018490528251808303909101815260649091019091526020810180517bffffffffffffffffffffffffffffffffffffffffffffffffffffffff167fa9059cbb0000000000000000000000000000000000000000000000000000000017905261134a908490612ef8565b600082815260016020908152604080832073ffffffffffffffffffffffffffffffffffffffff8516845290915290205460ff1661140e57600082815260016020818152604080842073ffffffffffffffffffffffffffffffffffffffff8616808652925280842080547fffffffffffffffffffffffffffffffffffffffffffffffffffffffffffffff00169093179092559051339285917f2f8788117e7eff1d82e926ec794901d17c78024a50270940304540a733656f0d9190a45050565b600082815260016020908152604080832073ffffffffffffffffffffffffffffffffffffffff8516845290915290205460ff161561140e57600082815260016020908152604080832073ffffffffffffffffffffffffffffffffffffffff8516808552925280832080547fffffffffffffffffffffffffffffffffffffffffffffffffffffffffffffff0016905551339285917ff6391f5c32d9c69d2a47ea670b442974b53935d1edc7fd64eb21e047a839171b9190a45050565b600082815260016020908152604080832073ffffffffffffffffffffffffffffffffffffffff8516845290915290205460ff1661140e57612e7e8173ffffffffffffffffffffffffffffffffffffffff166014613004565b612e89836020613004565b604051602001612e9a929190613bde565b604080517fffffffffffffffffffffffffffffffffffffffffffffffffffffffffffffffe0818403018152908290527f08c379a000000000000000000000000000000000000000000000000000000000825261111c91600401613c5f565b6000612f5a826040518060400160405280602081526020017f5361666545524332303a206c6f772d6c6576656c2063616c6c206661696c65648152508573ffffffffffffffffffffffffffffffffffffffff166132479092919063ffffffff16565b80519091501561134a5780806020019051810190612f789190613a74565b61134a576040517f08c379a000000000000000000000000000000000000000000000000000000000815260206004820152602a60248201527f5361666545524332303a204552433230206f7065726174696f6e20646964206e60448201527f6f74207375636365656400000000000000000000000000000000000000000000606482015260840161111c565b60606000613013836002613cb0565b61301e906002613a5c565b67ffffffffffffffff811115613036576130366136cb565b6040519080825280601f01601f191660200182016040528015613060576020820181803683370190505b5090507f300000000000000000000000000000000000000000000000000000000000000081600081518110613097576130976139fe565b60200101907effffffffffffffffffffffffffffffffffffffffffffffffffffffffffffff1916908160001a9053507f7800000000000000000000000000000000000000000000000000000000000000816001815181106130fa576130fa6139fe565b60200101907effffffffffffffffffffffffffffffffffffffffffffffffffffffffffffff1916908160001a9053506000613136846002613cb0565b613141906001613a5c565b90505b60018111156131de577f303132333435363738396162636465660000000000000000000000000000000085600f1660108110613182576131826139fe565b1a60f81b828281518110613198576131986139fe565b60200101907effffffffffffffffffffffffffffffffffffffffffffffffffffffffffffff1916908160001a90535060049490941c936131d781613ced565b9050613144565b508315612911576040517f08c379a000000000000000000000000000000000000000000000000000000000815260206004820181905260248201527f537472696e67733a20686578206c656e67746820696e73756666696369656e74604482015260640161111c565b6060613256848460008561325e565b949350505050565b6060824710156132f0576040517f08c379a000000000000000000000000000000000000000000000000000000000815260206004820152602660248201527f416464726573733a20696e73756666696369656e742062616c616e636520666f60448201527f722063616c6c0000000000000000000000000000000000000000000000000000606482015260840161111c565b73ffffffffffffffffffffffffffffffffffffffff85163b61336e576040517f08c379a000000000000000000000000000000000000000000000000000000000815260206004820152601d60248201527f416464726573733a2063616c6c20746f206e6f6e2d636f6e7472616374000000604482015260640161111c565b6000808673ffffffffffffffffffffffffffffffffffffffff1685876040516133979190613d22565b60006040518083038185875af1925050503d80600081146133d4576040519150601f19603f3d011682016040523d82523d6000602084013e6133d9565b606091505b50915091506133e98282866133f4565b979650505050505050565b60608315613403575081612911565b8251156134135782518084602001fd5b816040517f08c379a000000000000000000000000000000000000000000000000000000000815260040161111c9190613c5f565b5080546000825590600052602060002090810190612c1c91905b808211156134755760008155600101613461565b5090565b60006020828403121561348b57600080fd5b81357fffffffff000000000000000000000000000000000000000000000000000000008116811461291157600080fd5b6000602082840312156134cd57600080fd5b5035919050565b803573ffffffffffffffffffffffffffffffffffffffff8116811461297b57600080fd5b60006020828403121561350a57600080fd5b612911826134d4565b600081518084526020808501945080840160005b8381101561355957815173ffffffffffffffffffffffffffffffffffffffff1687529582019590820190600101613527565b509495945050505050565b73ffffffffffffffffffffffffffffffffffffffff8f811682528e16602082015273ffffffffffffffffffffffffffffffffffffffff8d1660408201528b60608201528a60808201528960a08201528860c08201528760e0820152866101008201528561012082015284610140820152836101608201526101c061018082015260006135f46101c0830185613513565b8281036101a08401526136078185613513565b9150509f9e505050505050505050505050505050565b6020815260006129116020830184613513565b6000806040838503121561364357600080fd5b82359150613653602084016134d4565b90509250929050565b8015158114612c1c57600080fd5b6000806040838503121561367d57600080fd5b613686836134d4565b915060208301356136968161365c565b809150509250929050565b600080604083850312156136b457600080fd5b6136bd836134d4565b946020939093013593505050565b7f4e487b7100000000000000000000000000000000000000000000000000000000600052604160045260246000fd5b604051601f82017fffffffffffffffffffffffffffffffffffffffffffffffffffffffffffffffe016810167ffffffffffffffff81118282101715613741576137416136cb565b604052919050565b600067ffffffffffffffff821115613763576137636136cb565b5060051b60200190565b600082601f83011261377e57600080fd5b8135602061379361378e83613749565b6136fa565b82815260059290921b840181019181810190868411156137b257600080fd5b8286015b848110156137d4576137c7816134d4565b83529183019183016137b6565b509695505050505050565b600082601f8301126137f057600080fd5b8135602061380061378e83613749565b82815260059290921b8401810191818101908684111561381f57600080fd5b8286015b848110156137d45780358352918301918301613823565b60008060008060008060c0878903121561385357600080fd5b863567ffffffffffffffff8082111561386b57600080fd5b6138778a838b0161376d565b9750602089013591508082111561388d57600080fd5b6138998a838b016137df565b965060408901359150808211156138af57600080fd5b6138bb8a838b016137df565b955060608901359150808211156138d157600080fd5b6138dd8a838b016137df565b945060808901359150808211156138f357600080fd5b6138ff8a838b016137df565b935060a089013591508082111561391557600080fd5b5061392289828a0161376d565b9150509295509295509295565b6000806040838503121561394257600080fd5b61394b836134d4565b9150613653602084016134d4565b60008060008060008060c0878903121561397257600080fd5b863595506020870135945060408701359350613990606088016134d4565b925061399e608088016134d4565b91506139ac60a088016134d4565b90509295509295509295565b7f4e487b7100000000000000000000000000000000000000000000000000000000600052601160045260246000fd5b6000828210156139f9576139f96139b8565b500390565b7f4e487b7100000000000000000000000000000000000000000000000000000000600052603260045260246000fd5b7f4e487b7100000000000000000000000000000000000000000000000000000000600052603160045260246000fd5b60008219821115613a6f57613a6f6139b8565b500190565b600060208284031215613a8657600080fd5b81516129118161365c565b60007fffffffffffffffffffffffffffffffffffffffffffffffffffffffffffffffff821415613ac357613ac36139b8565b5060010190565b600082613b00577f4e487b7100000000000000000000000000000000000000000000000000000000600052601260045260246000fd5b500490565b6000610100808385031215613b1957600080fd5b6040519081019067ffffffffffffffff82118183101715613b3c57613b3c6136cb565b81604052835181526020840151602082015260408401516040820152606084015160608201526080840151608082015260a084015160a082015260c084015160c082015260e084015160e0820152809250505092915050565b600060208284031215613ba757600080fd5b5051919050565b60005b83811015613bc9578181015183820152602001613bb1565b83811115613bd8576000848401525b50505050565b7f416363657373436f6e74726f6c3a206163636f756e7420000000000000000000815260008351613c16816017850160208801613bae565b7f206973206d697373696e6720726f6c65200000000000000000000000000000006017918401918201528351613c53816028840160208801613bae565b01602801949350505050565b6020815260008251806020840152613c7e816040850160208701613bae565b601f017fffffffffffffffffffffffffffffffffffffffffffffffffffffffffffffffe0169190910160400192915050565b6000817fffffffffffffffffffffffffffffffffffffffffffffffffffffffffffffffff0483118215151615613ce857613ce86139b8565b500290565b600081613cfc57613cfc6139b8565b507fffffffffffffffffffffffffffffffffffffffffffffffffffffffffffffffff0190565b60008251613d34818460208701613bae565b919091019291505056fea26469706673582212209c57281ebee71c3fdd0f742dc9121f8b9758a73dc57d44013407136c713a04d564736f6c634300080b0033",
  "linkReferences": {},
  "deployedLinkReferences": {}
}