{
  "_format": "hh-sol-artifact-1",
  "contractName": "TwitterQuest",
  "sourceName": "contracts/TwitterQuest.sol",
  "abi": [
    {
      "inputs": [
        {
          "internalType": "address",
          "name": "_gnosis",
          "type": "address"
        },
        {
          "internalType": "address",
          "name": "_oracle",
          "type": "address"
        }
      ],
      "stateMutability": "nonpayable",
      "type": "constructor"
    },
    {
      "anonymous": false,
      "inputs": [
        {
          "indexed": false,
          "internalType": "uint256",
          "name": "_questEntryCost",
          "type": "uint256"
        },
        {
          "indexed": false,
          "internalType": "uint256",
          "name": "_fees",
          "type": "uint256"
        },
        {
          "indexed": false,
          "internalType": "uint256",
          "name": "_delayPeriod",
          "type": "uint256"
        },
        {
          "indexed": true,
          "internalType": "address",
          "name": "_token",
          "type": "address"
        },
        {
          "indexed": true,
          "internalType": "address",
          "name": "_memberShipAddress",
          "type": "address"
        }
      ],
      "name": "Initialized",
      "type": "event"
    },
    {
      "anonymous": false,
      "inputs": [
        {
          "indexed": true,
          "internalType": "address",
          "name": "_user",
          "type": "address"
        },
        {
          "indexed": false,
          "internalType": "uint256",
          "name": "date",
          "type": "uint256"
        }
      ],
      "name": "MemberUnRegisterFromWaitingList",
      "type": "event"
    },
    {
      "anonymous": false,
      "inputs": [
        {
          "indexed": false,
          "internalType": "uint256",
          "name": "",
          "type": "uint256"
        }
      ],
      "name": "NewCycle",
      "type": "event"
    },
    {
      "anonymous": false,
      "inputs": [
        {
          "indexed": true,
          "internalType": "address",
          "name": "_user",
          "type": "address"
        },
        {
          "indexed": false,
          "internalType": "uint256",
          "name": "_date",
          "type": "uint256"
        }
      ],
      "name": "NewMemberRegisterToWaitingList",
      "type": "event"
    },
    {
      "anonymous": false,
      "inputs": [
        {
          "indexed": true,
          "internalType": "address",
          "name": "_user",
          "type": "address"
        },
        {
          "indexed": false,
          "internalType": "uint256",
          "name": "_amount",
          "type": "uint256"
        },
        {
          "indexed": false,
          "internalType": "uint256",
          "name": "_weeklyAverage",
          "type": "uint256"
        },
        {
          "indexed": false,
          "internalType": "address",
          "name": "_token",
          "type": "address"
        },
        {
          "indexed": false,
          "internalType": "uint256",
          "name": "_date",
          "type": "uint256"
        }
      ],
      "name": "NewMemberSubscribeToQuest",
      "type": "event"
    },
    {
      "anonymous": false,
      "inputs": [
        {
          "indexed": true,
          "internalType": "address",
          "name": "_user",
          "type": "address"
        },
        {
          "indexed": false,
          "internalType": "uint256",
          "name": "_date",
          "type": "uint256"
        }
      ],
      "name": "NewWinnerUpdated",
      "type": "event"
    },
    {
      "anonymous": false,
      "inputs": [
        {
          "indexed": true,
          "internalType": "bytes32",
          "name": "role",
          "type": "bytes32"
        },
        {
          "indexed": true,
          "internalType": "bytes32",
          "name": "previousAdminRole",
          "type": "bytes32"
        },
        {
          "indexed": true,
          "internalType": "bytes32",
          "name": "newAdminRole",
          "type": "bytes32"
        }
      ],
      "name": "RoleAdminChanged",
      "type": "event"
    },
    {
      "anonymous": false,
      "inputs": [
        {
          "indexed": true,
          "internalType": "bytes32",
          "name": "role",
          "type": "bytes32"
        },
        {
          "indexed": true,
          "internalType": "address",
          "name": "account",
          "type": "address"
        },
        {
          "indexed": true,
          "internalType": "address",
          "name": "sender",
          "type": "address"
        }
      ],
      "name": "RoleGranted",
      "type": "event"
    },
    {
      "anonymous": false,
      "inputs": [
        {
          "indexed": true,
          "internalType": "bytes32",
          "name": "role",
          "type": "bytes32"
        },
        {
          "indexed": true,
          "internalType": "address",
          "name": "account",
          "type": "address"
        },
        {
          "indexed": true,
          "internalType": "address",
          "name": "sender",
          "type": "address"
        }
      ],
      "name": "RoleRevoked",
      "type": "event"
    },
    {
      "anonymous": false,
      "inputs": [
        {
          "indexed": true,
          "internalType": "address",
          "name": "_user",
          "type": "address"
        },
        {
          "indexed": true,
          "internalType": "address",
          "name": "_token",
          "type": "address"
        },
        {
          "indexed": false,
          "internalType": "uint256",
          "name": "_amount",
          "type": "uint256"
        },
        {
          "indexed": false,
          "internalType": "uint256",
          "name": "_date",
          "type": "uint256"
        }
      ],
      "name": "SupplyToPool",
      "type": "event"
    },
    {
      "anonymous": false,
      "inputs": [
        {
          "indexed": true,
          "internalType": "address",
          "name": "_user",
          "type": "address"
        },
        {
          "indexed": true,
          "internalType": "address",
          "name": "_token",
          "type": "address"
        },
        {
          "indexed": false,
          "internalType": "uint256",
          "name": "_amount",
          "type": "uint256"
        },
        {
          "indexed": false,
          "internalType": "uint256",
          "name": "_date",
          "type": "uint256"
        }
      ],
      "name": "WithdrawFromPool",
      "type": "event"
    },
    {
      "inputs": [],
      "name": "DEFAULT_ADMIN_ROLE",
      "outputs": [
        {
          "internalType": "bytes32",
          "name": "",
          "type": "bytes32"
        }
      ],
      "stateMutability": "view",
      "type": "function"
    },
    {
      "inputs": [],
      "name": "adminAddress",
      "outputs": [
        {
          "internalType": "address",
          "name": "",
          "type": "address"
        }
      ],
      "stateMutability": "view",
      "type": "function"
    },
    {
      "inputs": [],
      "name": "delayPeriod",
      "outputs": [
        {
          "internalType": "uint256",
          "name": "",
          "type": "uint256"
        }
      ],
      "stateMutability": "view",
      "type": "function"
    },
    {
      "inputs": [
        {
          "internalType": "address",
          "name": "_token",
          "type": "address"
        }
      ],
      "name": "deleteToken",
      "outputs": [
        {
          "internalType": "bool",
          "name": "",
          "type": "bool"
        }
      ],
      "stateMutability": "nonpayable",
      "type": "function"
    },
    {
      "inputs": [],
      "name": "endPeriod",
      "outputs": [
        {
          "internalType": "uint256",
          "name": "",
          "type": "uint256"
        }
      ],
      "stateMutability": "view",
      "type": "function"
    },
    {
      "inputs": [],
      "name": "fees",
      "outputs": [
        {
          "internalType": "uint256",
          "name": "",
          "type": "uint256"
        }
      ],
      "stateMutability": "view",
      "type": "function"
    },
    {
      "inputs": [],
      "name": "getAllParticipants",
      "outputs": [
        {
          "internalType": "address[]",
          "name": "",
          "type": "address[]"
        }
      ],
      "stateMutability": "view",
      "type": "function"
    },
    {
      "inputs": [],
      "name": "getAllSubscribed",
      "outputs": [
        {
          "internalType": "address[]",
          "name": "",
          "type": "address[]"
        }
      ],
      "stateMutability": "view",
      "type": "function"
    },
    {
      "inputs": [],
      "name": "getQuestSummarize",
      "outputs": [
        {
          "internalType": "address",
          "name": "lessTokenAddress",
          "type": "address"
        },
        {
          "internalType": "address",
          "name": "memberShipTokenAddress",
          "type": "address"
        },
        {
          "internalType": "address",
          "name": "entryToken",
          "type": "address"
        },
        {
          "internalType": "uint256",
          "name": "entryCost",
          "type": "uint256"
        },
        {
          "internalType": "uint256",
          "name": "amountLessReward",
          "type": "uint256"
        },
        {
          "internalType": "uint256",
          "name": "actualFees",
          "type": "uint256"
        },
        {
          "internalType": "uint256",
          "name": "actualQuestBalance",
          "type": "uint256"
        },
        {
          "internalType": "uint256",
          "name": "durationPeriod",
          "type": "uint256"
        },
        {
          "internalType": "uint256",
          "name": "cycleStartAt",
          "type": "uint256"
        },
        {
          "internalType": "uint256",
          "name": "cycleEndAt",
          "type": "uint256"
        },
        {
          "internalType": "uint256",
          "name": "actualParticipantsNumber",
          "type": "uint256"
        },
        {
          "internalType": "uint256",
          "name": "actualWaitingListNumber",
          "type": "uint256"
        },
        {
          "internalType": "address[]",
          "name": "actualQuestParticipantsAddress",
          "type": "address[]"
        },
        {
          "internalType": "address[]",
          "name": "actualWaitingListSubscribeAddress",
          "type": "address[]"
        }
      ],
      "stateMutability": "view",
      "type": "function"
    },
    {
      "inputs": [
        {
          "internalType": "bytes32",
          "name": "role",
          "type": "bytes32"
        }
      ],
      "name": "getRoleAdmin",
      "outputs": [
        {
          "internalType": "bytes32",
          "name": "",
          "type": "bytes32"
        }
      ],
      "stateMutability": "view",
      "type": "function"
    },
    {
      "inputs": [
        {
          "internalType": "address",
          "name": "_user",
          "type": "address"
        }
      ],
      "name": "getUserWaitingListId",
      "outputs": [
        {
          "internalType": "uint256",
          "name": "i",
          "type": "uint256"
        }
      ],
      "stateMutability": "view",
      "type": "function"
    },
    {
      "inputs": [
        {
          "internalType": "bytes32",
          "name": "role",
          "type": "bytes32"
        },
        {
          "internalType": "address",
          "name": "account",
          "type": "address"
        }
      ],
      "name": "grantRole",
      "outputs": [],
      "stateMutability": "nonpayable",
      "type": "function"
    },
    {
      "inputs": [
        {
          "internalType": "address",
          "name": "",
          "type": "address"
        }
      ],
      "name": "hasBeenSubscribed",
      "outputs": [
        {
          "internalType": "bool",
          "name": "",
          "type": "bool"
        }
      ],
      "stateMutability": "view",
      "type": "function"
    },
    {
      "inputs": [
        {
          "internalType": "bytes32",
          "name": "role",
          "type": "bytes32"
        },
        {
          "internalType": "address",
          "name": "account",
          "type": "address"
        }
      ],
      "name": "hasRole",
      "outputs": [
        {
          "internalType": "bool",
          "name": "",
          "type": "bool"
        }
      ],
      "stateMutability": "view",
      "type": "function"
    },
    {
      "inputs": [
        {
          "internalType": "uint256",
          "name": "_entryCost",
          "type": "uint256"
        },
        {
          "internalType": "uint256",
          "name": "_fees",
          "type": "uint256"
        },
        {
          "internalType": "uint256",
          "name": "_delayPeriod",
          "type": "uint256"
        },
        {
          "internalType": "address",
          "name": "_token",
          "type": "address"
        },
        {
          "internalType": "address",
          "name": "_memberShipAddress",
          "type": "address"
        },
        {
          "internalType": "address",
          "name": "_lessAddress",
          "type": "address"
        }
      ],
      "name": "initialize",
      "outputs": [],
      "stateMutability": "nonpayable",
      "type": "function"
    },
    {
      "inputs": [
        {
          "internalType": "address",
          "name": "_user",
          "type": "address"
        },
        {
          "internalType": "uint256",
          "name": "_tokenId",
          "type": "uint256"
        }
      ],
      "name": "isOwnerOf",
      "outputs": [
        {
          "internalType": "bool",
          "name": "",
          "type": "bool"
        }
      ],
      "stateMutability": "view",
      "type": "function"
    },
    {
      "inputs": [],
      "name": "lessAddress",
      "outputs": [
        {
          "internalType": "address",
          "name": "",
          "type": "address"
        }
      ],
      "stateMutability": "view",
      "type": "function"
    },
    {
      "inputs": [],
      "name": "lessReward",
      "outputs": [
        {
          "internalType": "uint256",
          "name": "",
          "type": "uint256"
        }
      ],
      "stateMutability": "view",
      "type": "function"
    },
    {
      "inputs": [
        {
          "internalType": "address",
          "name": "_token",
          "type": "address"
        }
      ],
      "name": "listNewToken",
      "outputs": [
        {
          "internalType": "bool",
          "name": "",
          "type": "bool"
        }
      ],
      "stateMutability": "nonpayable",
      "type": "function"
    },
    {
      "inputs": [
        {
          "internalType": "address",
          "name": "",
          "type": "address"
        }
      ],
      "name": "listedToken",
      "outputs": [
        {
          "internalType": "bool",
          "name": "",
          "type": "bool"
        }
      ],
      "stateMutability": "view",
      "type": "function"
    },
    {
      "inputs": [
        {
          "internalType": "address[]",
          "name": "_user",
          "type": "address[]"
        },
        {
          "internalType": "uint256[]",
          "name": "_userSubscribeIndexId",
          "type": "uint256[]"
        },
        {
          "internalType": "uint256[]",
          "name": "_userTokenId",
          "type": "uint256[]"
        },
        {
          "internalType": "uint256[]",
          "name": "_amount",
          "type": "uint256[]"
        },
        {
          "internalType": "uint256[]",
          "name": "_weeklyAverage",
          "type": "uint256[]"
        },
        {
          "internalType": "address[]",
          "name": "_token",
          "type": "address[]"
        }
      ],
      "name": "lockEntryFunds",
      "outputs": [],
      "stateMutability": "payable",
      "type": "function"
    },
    {
      "inputs": [],
      "name": "memberShipAddress",
      "outputs": [
        {
          "internalType": "address",
          "name": "",
          "type": "address"
        }
      ],
      "stateMutability": "view",
      "type": "function"
    },
    {
      "inputs": [
        {
          "internalType": "address",
          "name": "_token",
          "type": "address"
        }
      ],
      "name": "newCycle",
      "outputs": [],
      "stateMutability": "payable",
      "type": "function"
    },
    {
      "inputs": [
        {
          "internalType": "uint256",
          "name": "",
          "type": "uint256"
        }
      ],
      "name": "participants",
      "outputs": [
        {
          "internalType": "address",
          "name": "",
          "type": "address"
        }
      ],
      "stateMutability": "view",
      "type": "function"
    },
    {
      "inputs": [
        {
          "internalType": "address",
          "name": "",
          "type": "address"
        }
      ],
      "name": "poolBalance",
      "outputs": [
        {
          "internalType": "uint256",
          "name": "",
          "type": "uint256"
        }
      ],
      "stateMutability": "view",
      "type": "function"
    },
    {
      "inputs": [
        {
          "internalType": "address",
          "name": "",
          "type": "address"
        }
      ],
      "name": "questBalance",
      "outputs": [
        {
          "internalType": "uint256",
          "name": "",
          "type": "uint256"
        }
      ],
      "stateMutability": "view",
      "type": "function"
    },
    {
      "inputs": [],
      "name": "questEntryCost",
      "outputs": [
        {
          "internalType": "uint256",
          "name": "",
          "type": "uint256"
        }
      ],
      "stateMutability": "view",
      "type": "function"
    },
    {
      "inputs": [],
      "name": "questEntryToken",
      "outputs": [
        {
          "internalType": "address",
          "name": "",
          "type": "address"
        }
      ],
      "stateMutability": "view",
      "type": "function"
    },
    {
      "inputs": [],
      "name": "registerToWaitingList",
      "outputs": [
        {
          "internalType": "bool",
          "name": "",
          "type": "bool"
        }
      ],
      "stateMutability": "nonpayable",
      "type": "function"
    },
    {
      "inputs": [
        {
          "internalType": "bytes32",
          "name": "role",
          "type": "bytes32"
        },
        {
          "internalType": "address",
          "name": "account",
          "type": "address"
        }
      ],
      "name": "renounceRole",
      "outputs": [],
      "stateMutability": "nonpayable",
      "type": "function"
    },
    {
      "inputs": [
        {
          "internalType": "bytes32",
          "name": "role",
          "type": "bytes32"
        },
        {
          "internalType": "address",
          "name": "account",
          "type": "address"
        }
      ],
      "name": "revokeRole",
      "outputs": [],
      "stateMutability": "nonpayable",
      "type": "function"
    },
    {
      "inputs": [
        {
          "internalType": "address",
          "name": "_actualToken",
          "type": "address"
        }
      ],
      "name": "setActualQuestToken",
      "outputs": [
        {
          "internalType": "address",
          "name": "",
          "type": "address"
        }
      ],
      "stateMutability": "nonpayable",
      "type": "function"
    },
    {
      "inputs": [
        {
          "internalType": "uint256",
          "name": "_newPeriod",
          "type": "uint256"
        }
      ],
      "name": "setDelayPeriod",
      "outputs": [
        {
          "internalType": "uint256",
          "name": "",
          "type": "uint256"
        }
      ],
      "stateMutability": "nonpayable",
      "type": "function"
    },
    {
      "inputs": [
        {
          "internalType": "uint256",
          "name": "_newPeriod",
          "type": "uint256"
        }
      ],
      "name": "setEndPeriod",
      "outputs": [
        {
          "internalType": "uint256",
          "name": "",
          "type": "uint256"
        }
      ],
      "stateMutability": "nonpayable",
      "type": "function"
    },
    {
      "inputs": [
        {
          "internalType": "uint256",
          "name": "_newPrice",
          "type": "uint256"
        }
      ],
      "name": "setEntryCost",
      "outputs": [
        {
          "internalType": "uint256",
          "name": "",
          "type": "uint256"
        }
      ],
      "stateMutability": "nonpayable",
      "type": "function"
    },
    {
      "inputs": [
        {
          "internalType": "uint256",
          "name": "_newPrice",
          "type": "uint256"
        }
      ],
      "name": "setFees",
      "outputs": [
        {
          "internalType": "uint256",
          "name": "",
          "type": "uint256"
        }
      ],
      "stateMutability": "nonpayable",
      "type": "function"
    },
    {
      "inputs": [
        {
          "internalType": "address",
          "name": "_token",
          "type": "address"
        }
      ],
      "name": "setLessAddress",
      "outputs": [
        {
          "internalType": "address",
          "name": "",
          "type": "address"
        }
      ],
      "stateMutability": "nonpayable",
      "type": "function"
    },
    {
      "inputs": [
        {
          "internalType": "uint256",
          "name": "_newReward",
          "type": "uint256"
        }
      ],
      "name": "setLessReward",
      "outputs": [
        {
          "internalType": "uint256",
          "name": "",
          "type": "uint256"
        }
      ],
      "stateMutability": "nonpayable",
      "type": "function"
    },
    {
      "inputs": [
        {
          "internalType": "address",
          "name": "_membership",
          "type": "address"
        }
      ],
      "name": "setMemberShipAddress",
      "outputs": [
        {
          "internalType": "address",
          "name": "",
          "type": "address"
        }
      ],
      "stateMutability": "nonpayable",
      "type": "function"
    },
    {
      "inputs": [],
      "name": "startPeriod",
      "outputs": [
        {
          "internalType": "uint256",
          "name": "",
          "type": "uint256"
        }
      ],
      "stateMutability": "view",
      "type": "function"
    },
    {
      "inputs": [
        {
          "internalType": "address",
          "name": "_token",
          "type": "address"
        },
        {
          "internalType": "uint256",
          "name": "_amount",
          "type": "uint256"
        }
      ],
      "name": "supplyToPool",
      "outputs": [
        {
          "internalType": "uint256",
          "name": "",
          "type": "uint256"
        }
      ],
      "stateMutability": "payable",
      "type": "function"
    },
    {
      "inputs": [
        {
          "internalType": "bytes4",
          "name": "interfaceId",
          "type": "bytes4"
        }
      ],
      "name": "supportsInterface",
      "outputs": [
        {
          "internalType": "bool",
          "name": "",
          "type": "bool"
        }
      ],
      "stateMutability": "view",
      "type": "function"
    },
    {
      "inputs": [
        {
          "internalType": "uint256",
          "name": "_userSubscribeIndexId",
          "type": "uint256"
        }
      ],
      "name": "unregisterFromWaitingList",
      "outputs": [
        {
          "internalType": "bool",
          "name": "",
          "type": "bool"
        }
      ],
      "stateMutability": "nonpayable",
      "type": "function"
    },
    {
      "inputs": [
        {
          "internalType": "address",
          "name": "_user",
          "type": "address"
        },
        {
          "internalType": "bool",
          "name": "_hasWin",
          "type": "bool"
        }
      ],
      "name": "updateUserTwitterData",
      "outputs": [
        {
          "components": [
            {
              "internalType": "address",
              "name": "tokenDeposited",
              "type": "address"
            },
            {
              "internalType": "uint256",
              "name": "tokenId",
              "type": "uint256"
            },
            {
              "internalType": "uint256",
              "name": "initialFunds",
              "type": "uint256"
            },
            {
              "internalType": "uint256",
              "name": "weeklyGoalAverage",
              "type": "uint256"
            },
            {
              "internalType": "bool",
              "name": "hasWin",
              "type": "bool"
            }
          ],
          "internalType": "struct TwitterQuest.UserData",
          "name": "",
          "type": "tuple"
        }
      ],
      "stateMutability": "nonpayable",
      "type": "function"
    },
    {
      "inputs": [
        {
          "internalType": "address",
          "name": "",
          "type": "address"
        },
        {
          "internalType": "address",
          "name": "",
          "type": "address"
        }
      ],
      "name": "userPoolShares",
      "outputs": [
        {
          "internalType": "uint256",
          "name": "",
          "type": "uint256"
        }
      ],
      "stateMutability": "view",
      "type": "function"
    },
    {
      "inputs": [
        {
          "internalType": "address",
          "name": "",
          "type": "address"
        }
      ],
      "name": "userTwitterData",
      "outputs": [
        {
          "internalType": "address",
          "name": "tokenDeposited",
          "type": "address"
        },
        {
          "internalType": "uint256",
          "name": "tokenId",
          "type": "uint256"
        },
        {
          "internalType": "uint256",
          "name": "initialFunds",
          "type": "uint256"
        },
        {
          "internalType": "uint256",
          "name": "weeklyGoalAverage",
          "type": "uint256"
        },
        {
          "internalType": "bool",
          "name": "hasWin",
          "type": "bool"
        }
      ],
      "stateMutability": "view",
      "type": "function"
    },
    {
      "inputs": [
        {
          "internalType": "address",
          "name": "",
          "type": "address"
        }
      ],
      "name": "waitingList",
      "outputs": [
        {
          "internalType": "bool",
          "name": "",
          "type": "bool"
        }
      ],
      "stateMutability": "view",
      "type": "function"
    },
    {
      "inputs": [
        {
          "internalType": "uint256",
          "name": "",
          "type": "uint256"
        }
      ],
      "name": "waitingListIndex",
      "outputs": [
        {
          "internalType": "address",
          "name": "",
          "type": "address"
        }
      ],
      "stateMutability": "view",
      "type": "function"
    },
    {
      "inputs": [
        {
          "internalType": "uint256",
          "name": "",
          "type": "uint256"
        }
      ],
      "name": "winners",
      "outputs": [
        {
          "internalType": "address",
          "name": "",
          "type": "address"
        }
      ],
      "stateMutability": "view",
      "type": "function"
    },
    {
      "inputs": [
        {
          "internalType": "uint256",
          "name": "_amount",
          "type": "uint256"
        },
        {
          "internalType": "address",
          "name": "_token",
          "type": "address"
        }
      ],
      "name": "withdrawFromPool",
      "outputs": [
        {
          "internalType": "uint256",
          "name": "",
          "type": "uint256"
        }
      ],
      "stateMutability": "payable",
      "type": "function"
    },
    {
      "stateMutability": "payable",
      "type": "receive"
    }
  ],
  "bytecode": "0x60806040523480156200001157600080fd5b506040516200405638038062004056833981016040819052620000349162000186565b60016000908155620000479083620000e0565b62000054600082620000e0565b62000061600030620000e0565b50600680546001600160a01b039092166001600160a01b031992831617905542600c5560078054909116739aa7fec87ca69695dd1f879567ccf49f3ba417e290811790915560005260166020527f21af9261923f6ab771ebe017d605388e673bc134f891e90c368f22433a9e4158805460ff19166001179055620001be565b60008281526001602090815260408083206001600160a01b038516845290915290205460ff16620001655760008281526001602081815260408084206001600160a01b0386168086529252808420805460ff19169093179092559051339285917f2f8788117e7eff1d82e926ec794901d17c78024a50270940304540a733656f0d9190a45b5050565b80516001600160a01b03811681146200018157600080fd5b919050565b600080604083850312156200019a57600080fd5b620001a58362000169565b9150620001b56020840162000169565b90509250929050565b613e8880620001ce6000396000f3fe60806040526004361061032d5760003560e01c80636caa7ba0116101a5578063b1c94d94116100ec578063d547741f11610095578063f069f7121161006f578063f069f71214610a62578063f616942014610a82578063f9ec83b014610aa2578063fc6f946814610acf57600080fd5b8063d547741f14610a0c578063da22e3d214610a2c578063ec48b5f214610a4257600080fd5b8063c5b8f772116100c6578063c5b8f7721461099f578063cd8d9994146109bf578063d30dc5f3146109ec57600080fd5b8063b1c94d941461093e578063b32e636314610954578063bc8e8c5b1461096757600080fd5b8063a217fddf1161014e578063ac70ef3511610128578063ac70ef35146108de578063ae29f7f9146108f1578063aff62f1f1461091157600080fd5b8063a217fddf14610804578063a2fb117514610819578063a4ca9d8e1461083957600080fd5b8063917886c51161017f578063917886c51461078857806391d148541461079b5780639af1d35a146107ee57600080fd5b80636caa7ba0146107255780636ff35d791461073b5780637f48c9de1461076857600080fd5b806330bfb9bb116102745780633d5721071161021d5780635dd27da3116101f75780635dd27da3146106925780635faa65ff146106b257806368abb5e0146106c85780636b046b3d146106f557600080fd5b80633d572107146105e3578063488e0dfd146106035780635669bc731461067d57600080fd5b806337abc83b1161024e57806337abc83b14610573578063397148d3146105935780633d18678e146105c357600080fd5b806330bfb9bb1461051d57806335c1d3491461053357806336568abe1461055357600080fd5b80631b9be3de116102d657806325f2e320116102b057806325f2e320146104c85780632cbcb1f2146104e85780632f2ff15d146104fb57600080fd5b80631b9be3de1461043957806321c1e11514610469578063248a9ca31461048957600080fd5b80630f6f02bb116103075780630f6f02bb146103d3578063136b5d7c14610402578063195ec9ee1461041757600080fd5b806301ffc9a71461033957806304c4e1991461036e5780630e772618146103b357600080fd5b3661033457005b600080fd5b34801561034557600080fd5b5061035961035436600461358d565b610afc565b60405190151581526020015b60405180910390f35b34801561037a57600080fd5b5061038e6103893660046135cf565b610b95565b60405173ffffffffffffffffffffffffffffffffffffffff9091168152602001610365565b3480156103bf57600080fd5b5061038e6103ce36600461360c565b610bcc565b3480156103df57600080fd5b506103e8610c22565b6040516103659e9d9c9b9a99989796959493929190613678565b34801561040e57600080fd5b50610359610d61565b34801561042357600080fd5b5061042c610f35565b6040516103659190613731565b34801561044557600080fd5b5061035961045436600461360c565b60166020526000908152604090205460ff1681565b34801561047557600080fd5b5061035961048436600461360c565b610fa4565b34801561049557600080fd5b506104ba6104a43660046135cf565b6000908152600160208190526040909120015490565b604051908152602001610365565b3480156104d457600080fd5b506103596104e33660046135cf565b611005565b6104ba6104f6366004613744565b6111a2565b34801561050757600080fd5b5061051b610516366004613744565b611410565b005b34801561052957600080fd5b506104ba600c5481565b34801561053f57600080fd5b5061038e61054e3660046135cf565b61143b565b34801561055f57600080fd5b5061051b61056e366004613744565b61144b565b34801561057f57600080fd5b506104ba61058e3660046135cf565b6114fe565b34801561059f57600080fd5b506103596105ae36600461360c565b60136020526000908152604090205460ff1681565b3480156105cf57600080fd5b506104ba6105de3660046135cf565b611529565b3480156105ef57600080fd5b506104ba6105fe3660046135cf565b61153f565b34801561060f57600080fd5b5061062361061e36600461377e565b611555565b6040516103659190600060a08201905073ffffffffffffffffffffffffffffffffffffffff835116825260208301516020830152604083015160408301526060830151606083015260808301511515608083015292915050565b34801561068957600080fd5b5061042c6116a4565b34801561069e57600080fd5b506104ba6106ad3660046135cf565b611711565b3480156106be57600080fd5b506104ba600d5481565b3480156106d457600080fd5b506104ba6106e336600461360c565b600f6020526000908152604090205481565b34801561070157600080fd5b5061035961071036600461360c565b60146020526000908152604090205460ff1681565b34801561073157600080fd5b506104ba60095481565b34801561074757600080fd5b5060075461038e9073ffffffffffffffffffffffffffffffffffffffff1681565b34801561077457600080fd5b5061038e61078336600461360c565b611727565b6104ba6107963660046137b5565b611778565b3480156107a757600080fd5b506103596107b6366004613744565b600091825260016020908152604080842073ffffffffffffffffffffffffffffffffffffffff93909316845291905290205460ff1690565b3480156107fa57600080fd5b506104ba600b5481565b34801561081057600080fd5b506104ba600081565b34801561082557600080fd5b5061038e6108343660046135cf565b6119b1565b34801561084557600080fd5b5061089d61085436600461360c565b6012602052600090815260409020805460018201546002830154600384015460049094015473ffffffffffffffffffffffffffffffffffffffff90931693919290919060ff1685565b6040805173ffffffffffffffffffffffffffffffffffffffff909616865260208601949094529284019190915260608301521515608082015260a001610365565b61051b6108ec36600461394e565b6119c1565b3480156108fd57600080fd5b506104ba61090c3660046135cf565b612242565b34801561091d57600080fd5b506104ba61092c36600461360c565b60116020526000908152604090205481565b34801561094a57600080fd5b506104ba600e5481565b61051b61096236600461360c565b612258565b34801561097357600080fd5b506104ba610982366004613a43565b601060209081526000928352604080842090915290825290205481565b3480156109ab57600080fd5b506103596109ba3660046137b5565b612989565b3480156109cb57600080fd5b5060055461038e9073ffffffffffffffffffffffffffffffffffffffff1681565b3480156109f857600080fd5b506104ba610a0736600461360c565b612a2c565b348015610a1857600080fd5b5061051b610a27366004613744565b612a94565b348015610a3857600080fd5b506104ba600a5481565b348015610a4e57600080fd5b5061038e610a5d36600461360c565b612aba565b348015610a6e57600080fd5b50610359610a7d36600461360c565b612b9a565b348015610a8e57600080fd5b5061051b610a9d366004613a6d565b612bf5565b348015610aae57600080fd5b5060045461038e9073ffffffffffffffffffffffffffffffffffffffff1681565b348015610adb57600080fd5b5060065461038e9073ffffffffffffffffffffffffffffffffffffffff1681565b60007fffffffff0000000000000000000000000000000000000000000000000000000082167f7965db0b000000000000000000000000000000000000000000000000000000001480610b8f57507f01ffc9a7000000000000000000000000000000000000000000000000000000007fffffffff000000000000000000000000000000000000000000000000000000008316145b92915050565b60158181548110610ba557600080fd5b60009182526020909120015473ffffffffffffffffffffffffffffffffffffffff16905081565b600080610bd881612d26565b600580547fffffffffffffffffffffffff00000000000000000000000000000000000000001673ffffffffffffffffffffffffffffffffffffffff85161790558291505b50919050565b600454600554600754600954600a54600b5473ffffffffffffffffffffffffffffffffffffffff93841660008181526011602090815260409182902054600e54600c54600d54600280546015548851828902810189019099528189529e8d169e9c909d169c979b9497939692959194926060928392908690830182828015610ce057602002820191906000526020600020905b815473ffffffffffffffffffffffffffffffffffffffff168152600190910190602001808311610cb5575b505050505091506015805480602002602001604051908101604052809291908181526020018280548015610d4a57602002820191906000526020600020905b815473ffffffffffffffffffffffffffffffffffffffff168152600190910190602001808311610d1f575b50505050509050909192939495969798999a9b9c9d565b60095433600090815260106020908152604080832060075473ffffffffffffffffffffffffffffffffffffffff16845290915281205490911115610e52576040517f08c379a000000000000000000000000000000000000000000000000000000000815260206004820152604260248201527f4e6f7420456e6f7567687420436f6e7465737420436f696e7320496e20506f6f60448201527f6c2042616c616e636520546f204a6f696e205468652057616974696e67204c6960648201527f7374000000000000000000000000000000000000000000000000000000000000608482015260a4015b60405180910390fd5b3360008181526013602052604080822080547fffffffffffffffffffffffffffffffffffffffffffffffffffffffffffffff001660019081179091556015805491820181559092527f55f448fdea98c4d29eb340757ef0a66cd03dbb9538908a6a81d96026b71ec47590910180547fffffffffffffffffffffffff00000000000000000000000000000000000000001683179055517f2551bf306f82993a2c550df966019a69e9e20f1857fe36632783abc36b64882490610f169042815260200190565b60405180910390a2503360009081526013602052604090205460ff1690565b60606002805480602002602001604051908101604052809291908181526020018280548015610f9a57602002820191906000526020600020905b815473ffffffffffffffffffffffffffffffffffffffff168152600190910190602001808311610f6f575b5050505050905090565b600080610fb081612d26565b505073ffffffffffffffffffffffffffffffffffffffff16600090815260166020526040902080547fffffffffffffffffffffffffffffffffffffffffffffffffffffffffffffff0016600190811790915590565b33600090815260136020526040812080547fffffffffffffffffffffffffffffffffffffffffffffffffffffffffffffff0016905560155482146110e5576015805461105390600190613afb565b8154811061106357611063613b12565b6000918252602090912001546015805473ffffffffffffffffffffffffffffffffffffffff909216918490811061109c5761109c613b12565b9060005260206000200160006101000a81548173ffffffffffffffffffffffffffffffffffffffff021916908373ffffffffffffffffffffffffffffffffffffffff1602179055505b60158054806110f6576110f6613b41565b60008281526020902081017fffffffffffffffffffffffffffffffffffffffffffffffffffffffffffffffff90810180547fffffffffffffffffffffffff000000000000000000000000000000000000000016905501905560405133907f84a4346a5d805f3f1e56b4ef9ab734c62baad7646e8a12adc91d8ea5b0937806906111829042815260200190565b60405180910390a250503360009081526013602052604090205460ff1690565b600060026000541415611211576040517f08c379a000000000000000000000000000000000000000000000000000000000815260206004820152601f60248201527f5265656e7472616e637947756172643a207265656e7472616e742063616c6c006044820152606401610e49565b6002600090815533815260106020908152604080832073ffffffffffffffffffffffffffffffffffffffff86168452909152902054831180159061127a575073ffffffffffffffffffffffffffffffffffffffff82166000908152600f60205260409020548311155b6112e0576040517f08c379a000000000000000000000000000000000000000000000000000000000815260206004820152601c60248201527f4e6f7420456e6f756768742046756e647320417661696c6169626c65000000006044820152606401610e49565b73ffffffffffffffffffffffffffffffffffffffff82166000908152600f602052604081208054859290611315908490613afb565b909155505033600090815260106020908152604080832073ffffffffffffffffffffffffffffffffffffffff861684529091528120805485929061135a908490613afb565b90915550611381905073ffffffffffffffffffffffffffffffffffffffff83163385612d33565b6040805184815242602082015273ffffffffffffffffffffffffffffffffffffffff84169133917f817b0c0d4788c2aad942468226077f2ecebee8ffc9a58c433b980b15d2679d70910160405180910390a35033600090815260106020908152604080832073ffffffffffffffffffffffffffffffffffffffff85168452909152902054600160005592915050565b6000828152600160208190526040909120015461142c81612d26565b6114368383612dc0565b505050565b60028181548110610ba557600080fd5b73ffffffffffffffffffffffffffffffffffffffff811633146114f0576040517f08c379a000000000000000000000000000000000000000000000000000000000815260206004820152602f60248201527f416363657373436f6e74726f6c3a2063616e206f6e6c792072656e6f756e636560448201527f20726f6c657320666f722073656c6600000000000000000000000000000000006064820152608401610e49565b6114fa8282612e7f565b5050565b60008061150a81612d26565b8261151c5742600d8190559150610c1c565b82600d8190559150610c1c565b60008061153581612d26565b5050600b81905590565b60008061154b81612d26565b5050600e81905590565b61159f6040518060a00160405280600073ffffffffffffffffffffffffffffffffffffffff1681526020016000815260200160008152602001600081526020016000151581525090565b60006115aa81612d26565b73ffffffffffffffffffffffffffffffffffffffff84166000818152601260209081526040918290206004810180547fffffffffffffffffffffffffffffffffffffffffffffffffffffffffffffff001688151517905591514281529192917f308c041c1c18db97c5cc15aa678c0d5005acf25a546859a898c80a1b8b059825910160405180910390a25050505073ffffffffffffffffffffffffffffffffffffffff908116600090815260126020908152604091829020825160a08101845281549094168452600181015491840191909152600281015491830191909152600381015460608301526004015460ff161515608082015290565b60606015805480602002602001604051908101604052809291908181526020018280548015610f9a5760200282019190600052602060002090815473ffffffffffffffffffffffffffffffffffffffff168152600190910190602001808311610f6f575050505050905090565b60008061171d81612d26565b5050600a81905590565b60008061173381612d26565b5050600480547fffffffffffffffffffffffff00000000000000000000000000000000000000001673ffffffffffffffffffffffffffffffffffffffff831617905590565b6000600260005414156117e7576040517f08c379a000000000000000000000000000000000000000000000000000000000815260206004820152601f60248201527f5265656e7472616e637947756172643a207265656e7472616e742063616c6c006044820152606401610e49565b6002600090815573ffffffffffffffffffffffffffffffffffffffff84168152600f602052604090205461181c908390613b70565b73ffffffffffffffffffffffffffffffffffffffff84166000818152600f602090815260408083209490945533825260108152838220928252919091522054611866908390613b70565b33600081815260106020908152604080832073ffffffffffffffffffffffffffffffffffffffff891680855292529182902093909355517f23b872dd0000000000000000000000000000000000000000000000000000000081526004810191909152306024820152604481018490526323b872dd906064016020604051808303816000875af11580156118fd573d6000803e3d6000fd5b505050506040513d601f19601f820116820180604052508101906119219190613b88565b506040805183815242602082015273ffffffffffffffffffffffffffffffffffffffff85169133917f19847924cfe7c381901e8df773ec70d38220e578da206a5250ec51cf539aec21910160405180910390a35033600090815260106020908152604080832073ffffffffffffffffffffffffffffffffffffffff86168452909152902054600160005592915050565b60038181548110610ba557600080fd5b60006119cc81612d26565b60005b8751811015612238578481815181106119ea576119ea613b12565b6020026020010151601060008a8481518110611a0857611a08613b12565b602002602001015173ffffffffffffffffffffffffffffffffffffffff1673ffffffffffffffffffffffffffffffffffffffff1681526020019081526020016000206000858481518110611a5e57611a5e613b12565b602002602001015173ffffffffffffffffffffffffffffffffffffffff1673ffffffffffffffffffffffffffffffffffffffff168152602001908152602001600020541061206357600954858281518110611abb57611abb613b12565b60200260200101511015611ace57600080fd5b6000601260008a8481518110611ae657611ae6613b12565b602002602001015173ffffffffffffffffffffffffffffffffffffffff1673ffffffffffffffffffffffffffffffffffffffff1681526020019081526020016000209050858281518110611b3c57611b3c613b12565b60200260200101518160020181905550838281518110611b5e57611b5e613b12565b602090810291909101015181547fffffffffffffffffffffffff00000000000000000000000000000000000000001673ffffffffffffffffffffffffffffffffffffffff9091161781558451859083908110611bbc57611bbc613b12565b60200260200101518160030181905550858281518110611bde57611bde613b12565b602002602001015160116000868581518110611bfc57611bfc613b12565b602002602001015173ffffffffffffffffffffffffffffffffffffffff1673ffffffffffffffffffffffffffffffffffffffff16815260200190815260200160002054611c499190613b70565b60116000868581518110611c5f57611c5f613b12565b602002602001015173ffffffffffffffffffffffffffffffffffffffff1673ffffffffffffffffffffffffffffffffffffffff16815260200190815260200160002081905550858281518110611cb757611cb7613b12565b6020026020010151600f6000868581518110611cd557611cd5613b12565b602002602001015173ffffffffffffffffffffffffffffffffffffffff1673ffffffffffffffffffffffffffffffffffffffff16815260200190815260200160002054611d229190613afb565b600f6000868581518110611d3857611d38613b12565b602002602001015173ffffffffffffffffffffffffffffffffffffffff1673ffffffffffffffffffffffffffffffffffffffff16815260200190815260200160002081905550858281518110611d9057611d90613b12565b6020026020010151601060008b8581518110611dae57611dae613b12565b602002602001015173ffffffffffffffffffffffffffffffffffffffff1673ffffffffffffffffffffffffffffffffffffffff1681526020019081526020016000206000868581518110611e0457611e04613b12565b602002602001015173ffffffffffffffffffffffffffffffffffffffff1673ffffffffffffffffffffffffffffffffffffffff16815260200190815260200160002054611e519190613afb565b601060008b8581518110611e6757611e67613b12565b602002602001015173ffffffffffffffffffffffffffffffffffffffff1673ffffffffffffffffffffffffffffffffffffffff1681526020019081526020016000206000868581518110611ebd57611ebd613b12565b602002602001015173ffffffffffffffffffffffffffffffffffffffff1673ffffffffffffffffffffffffffffffffffffffff168152602001908152602001600020819055506002898381518110611f1757611f17613b12565b60209081029190910181015182546001810184556000938452919092200180547fffffffffffffffffffffffff00000000000000000000000000000000000000001673ffffffffffffffffffffffffffffffffffffffff9092169190911790558851899083908110611f8b57611f8b613b12565b602002602001015173ffffffffffffffffffffffffffffffffffffffff167f564af6e7f0eec554bc1515f3cbfd9d9a355cf05c4e4358ba5d0977f3c3cd544c878481518110611fdc57611fdc613b12565b6020026020010151878581518110611ff657611ff6613b12565b602002602001015187868151811061201057612010613b12565b6020026020010151426040516120559493929190938452602084019290925273ffffffffffffffffffffffffffffffffffffffff166040830152606082015260800190565b60405180910390a250612226565b6000601360008a848151811061207b5761207b613b12565b60209081029190910181015173ffffffffffffffffffffffffffffffffffffffff16825281019190915260400160002080547fffffffffffffffffffffffffffffffffffffffffffffffffffffffffffffff001691151591909117905560155487518890839081106120ef576120ef613b12565b6020026020010151146121bc576015805461210c90600190613afb565b8154811061211c5761211c613b12565b9060005260206000200160009054906101000a900473ffffffffffffffffffffffffffffffffffffffff16601588838151811061215b5761215b613b12565b60200260200101518154811061217357612173613b12565b9060005260206000200160006101000a81548173ffffffffffffffffffffffffffffffffffffffff021916908373ffffffffffffffffffffffffffffffffffffffff1602179055505b60158054806121cd576121cd613b41565b60008281526020902081017fffffffffffffffffffffffffffffffffffffffffffffffffffffffffffffffff90810180547fffffffffffffffffffffffff00000000000000000000000000000000000000001690550190555b8061223081613ba5565b9150506119cf565b5050505050505050565b60008061224e81612d26565b5050600981905590565b600061226381612d26565b600b5473ffffffffffffffffffffffffffffffffffffffff8316600090815260116020526040812054909161229791613afb565b905060005b60025481101561243657600060126000600284815481106122bf576122bf613b12565b600091825260208083209091015473ffffffffffffffffffffffffffffffffffffffff1683528201929092526040019020600481015490915060ff16156123765760036002838154811061231557612315613b12565b60009182526020808320909101548354600181018555938352912090910180547fffffffffffffffffffffffff00000000000000000000000000000000000000001673ffffffffffffffffffffffffffffffffffffffff9092169190911790555b601260006002848154811061238d5761238d613b12565b600091825260208083209091015473ffffffffffffffffffffffffffffffffffffffff168352820192909252604001812080547fffffffffffffffffffffffff00000000000000000000000000000000000000001681556001810182905560028101829055600381019190915560040180547fffffffffffffffffffffffffffffffffffffffffffffffffffffffffffffff00169055508061242e81613ba5565b91505061229c565b506124436002600061355b565b6003541561296f5760035460009061245b9083613bde565b905060005b600354811015612960576005546003805473ffffffffffffffffffffffffffffffffffffffff90921691849160109160009190869081106124a3576124a3613b12565b600091825260208083209091015473ffffffffffffffffffffffffffffffffffffffff90811684528382019490945260409283018220938b168252929092529020546124ef9190613b70565b601060006003858154811061250657612506613b12565b600091825260208083209091015473ffffffffffffffffffffffffffffffffffffffff90811684528382019490945260409283018220938b16825292835281812093909355601190915290205461255e908490613afb565b73ffffffffffffffffffffffffffffffffffffffff8716600090815260116020908152604080832093909355600f9052205461259b908490613b70565b600f60008873ffffffffffffffffffffffffffffffffffffffff1673ffffffffffffffffffffffffffffffffffffffff1681526020019081526020016000208190555061262660405180610100016040528060008152602001600081526020016000815260200160008152602001600081526020016000815260200160008152602001600081525090565b805161263390600a613b70565b81526020810151612645906001613b70565b6020820152604081015161265a906001613b70565b8160400181815250508173ffffffffffffffffffffffffffffffffffffffff16639f70756d601260006003878154811061269657612696613b12565b600091825260208083209091015473ffffffffffffffffffffffffffffffffffffffff16835282019290925260400190206001015460038054879081106126df576126df613b12565b600091825260209182902001546040805160e086811b7fffffffff00000000000000000000000000000000000000000000000000000000168252600482019590955273ffffffffffffffffffffffffffffffffffffffff909216602483015286516044830152918601516064820152908501516084820152606085015160a4820152608085015160c482015260a085015160e482015260c08501516101048201529084015161012482015261014401610100604051808303816000875af11580156127ae573d6000803e3d6000fd5b505050506040513d601f19601f820116820180604052508101906127d29190613c19565b50600a54600480546040517f70a08231000000000000000000000000000000000000000000000000000000008152309281019290925273ffffffffffffffffffffffffffffffffffffffff16906370a0823190602401602060405180830381865afa158015612845573d6000803e3d6000fd5b505050506040513d601f19601f820116820180604052508101906128699190613ca9565b111561294b576004546003805473ffffffffffffffffffffffffffffffffffffffff9092169163a9059cbb9190869081106128a6576128a6613b12565b600091825260209091200154600a5460405160e084901b7fffffffff0000000000000000000000000000000000000000000000000000000016815273ffffffffffffffffffffffffffffffffffffffff909216600483015260248201526044016020604051808303816000875af1158015612925573d6000803e3d6000fd5b505050506040513d601f19601f820116820180604052508101906129499190613b88565b505b5050808061295890613ba5565b915050612460565b5061296d6003600061355b565b505b42600c819055600e5461298191613b70565b600d55505050565b6005546040517fc5b8f77200000000000000000000000000000000000000000000000000000000815273ffffffffffffffffffffffffffffffffffffffff848116600483015260248201849052600092169063c5b8f77290604401602060405180830381865afa158015612a01573d6000803e3d6000fd5b505050506040513d601f19601f82011682018060405250810190612a259190613b88565b9392505050565b60005b601554811015612a8f5760158181548110612a4c57612a4c613b12565b60009182526020909120015473ffffffffffffffffffffffffffffffffffffffff83811691161415612a7d57919050565b80612a8781613ba5565b915050612a2f565b919050565b60008281526001602081905260409091200154612ab081612d26565b6114368383612e7f565b600080612ac681612d26565b73ffffffffffffffffffffffffffffffffffffffff831660009081526016602052604090205460ff16612b55576040517f08c379a000000000000000000000000000000000000000000000000000000000815260206004820152601260248201527f546f6b656e204e6f74204c6973746564202100000000000000000000000000006044820152606401610e49565b5050600780547fffffffffffffffffffffffff00000000000000000000000000000000000000001673ffffffffffffffffffffffffffffffffffffffff831617905590565b600080612ba681612d26565b505073ffffffffffffffffffffffffffffffffffffffff16600090815260166020526040812080547fffffffffffffffffffffffffffffffffffffffffffffffffffffffffffffff0016905590565b6000612c0081612d26565b6009879055600b86905573ffffffffffffffffffffffffffffffffffffffff8481166000818152601660205260409020805460017fffffffffffffffffffffffffffffffffffffffffffffffffffffffffffffff009091168117909155600780547fffffffffffffffffffffffff0000000000000000000000000000000000000000908116909317905560058054831687851617905560048054909216928516929092179055851415612cb95762278d00600e55612cbf565b600e8590555b604080518881526020810188905290810186905273ffffffffffffffffffffffffffffffffffffffff80851691908616907fee08cfb078784d8a182b8270a792d2b387ab3c790855a6862073c5a64d7735299060600160405180910390a350505050505050565b612d308133612f3a565b50565b6040805173ffffffffffffffffffffffffffffffffffffffff8416602482015260448082018490528251808303909101815260649091019091526020810180517bffffffffffffffffffffffffffffffffffffffffffffffffffffffff167fa9059cbb0000000000000000000000000000000000000000000000000000000017905261143690849061300c565b600082815260016020908152604080832073ffffffffffffffffffffffffffffffffffffffff8516845290915290205460ff166114fa57600082815260016020818152604080842073ffffffffffffffffffffffffffffffffffffffff8616808652925280842080547fffffffffffffffffffffffffffffffffffffffffffffffffffffffffffffff00169093179092559051339285917f2f8788117e7eff1d82e926ec794901d17c78024a50270940304540a733656f0d9190a45050565b600082815260016020908152604080832073ffffffffffffffffffffffffffffffffffffffff8516845290915290205460ff16156114fa57600082815260016020908152604080832073ffffffffffffffffffffffffffffffffffffffff8516808552925280832080547fffffffffffffffffffffffffffffffffffffffffffffffffffffffffffffff0016905551339285917ff6391f5c32d9c69d2a47ea670b442974b53935d1edc7fd64eb21e047a839171b9190a45050565b600082815260016020908152604080832073ffffffffffffffffffffffffffffffffffffffff8516845290915290205460ff166114fa57612f928173ffffffffffffffffffffffffffffffffffffffff166014613118565b612f9d836020613118565b604051602001612fae929190613cf2565b604080517fffffffffffffffffffffffffffffffffffffffffffffffffffffffffffffffe0818403018152908290527f08c379a0000000000000000000000000000000000000000000000000000000008252610e4991600401613d73565b600061306e826040518060400160405280602081526020017f5361666545524332303a206c6f772d6c6576656c2063616c6c206661696c65648152508573ffffffffffffffffffffffffffffffffffffffff1661335b9092919063ffffffff16565b805190915015611436578080602001905181019061308c9190613b88565b611436576040517f08c379a000000000000000000000000000000000000000000000000000000000815260206004820152602a60248201527f5361666545524332303a204552433230206f7065726174696f6e20646964206e60448201527f6f742073756363656564000000000000000000000000000000000000000000006064820152608401610e49565b60606000613127836002613dc4565b613132906002613b70565b67ffffffffffffffff81111561314a5761314a6137df565b6040519080825280601f01601f191660200182016040528015613174576020820181803683370190505b5090507f3000000000000000000000000000000000000000000000000000000000000000816000815181106131ab576131ab613b12565b60200101907effffffffffffffffffffffffffffffffffffffffffffffffffffffffffffff1916908160001a9053507f78000000000000000000000000000000000000000000000000000000000000008160018151811061320e5761320e613b12565b60200101907effffffffffffffffffffffffffffffffffffffffffffffffffffffffffffff1916908160001a905350600061324a846002613dc4565b613255906001613b70565b90505b60018111156132f2577f303132333435363738396162636465660000000000000000000000000000000085600f166010811061329657613296613b12565b1a60f81b8282815181106132ac576132ac613b12565b60200101907effffffffffffffffffffffffffffffffffffffffffffffffffffffffffffff1916908160001a90535060049490941c936132eb81613e01565b9050613258565b508315612a25576040517f08c379a000000000000000000000000000000000000000000000000000000000815260206004820181905260248201527f537472696e67733a20686578206c656e67746820696e73756666696369656e746044820152606401610e49565b606061336a8484600085613372565b949350505050565b606082471015613404576040517f08c379a000000000000000000000000000000000000000000000000000000000815260206004820152602660248201527f416464726573733a20696e73756666696369656e742062616c616e636520666f60448201527f722063616c6c00000000000000000000000000000000000000000000000000006064820152608401610e49565b73ffffffffffffffffffffffffffffffffffffffff85163b613482576040517f08c379a000000000000000000000000000000000000000000000000000000000815260206004820152601d60248201527f416464726573733a2063616c6c20746f206e6f6e2d636f6e74726163740000006044820152606401610e49565b6000808673ffffffffffffffffffffffffffffffffffffffff1685876040516134ab9190613e36565b60006040518083038185875af1925050503d80600081146134e8576040519150601f19603f3d011682016040523d82523d6000602084013e6134ed565b606091505b50915091506134fd828286613508565b979650505050505050565b60608315613517575081612a25565b8251156135275782518084602001fd5b816040517f08c379a0000000000000000000000000000000000000000000000000000000008152600401610e499190613d73565b5080546000825590600052602060002090810190612d3091905b808211156135895760008155600101613575565b5090565b60006020828403121561359f57600080fd5b81357fffffffff0000000000000000000000000000000000000000000000000000000081168114612a2557600080fd5b6000602082840312156135e157600080fd5b5035919050565b803573ffffffffffffffffffffffffffffffffffffffff81168114612a8f57600080fd5b60006020828403121561361e57600080fd5b612a25826135e8565b600081518084526020808501945080840160005b8381101561366d57815173ffffffffffffffffffffffffffffffffffffffff168752958201959082019060010161363b565b509495945050505050565b73ffffffffffffffffffffffffffffffffffffffff8f811682528e16602082015273ffffffffffffffffffffffffffffffffffffffff8d1660408201528b60608201528a60808201528960a08201528860c08201528760e0820152866101008201528561012082015284610140820152836101608201526101c061018082015260006137086101c0830185613627565b8281036101a084015261371b8185613627565b9150509f9e505050505050505050505050505050565b602081526000612a256020830184613627565b6000806040838503121561375757600080fd5b82359150613767602084016135e8565b90509250929050565b8015158114612d3057600080fd5b6000806040838503121561379157600080fd5b61379a836135e8565b915060208301356137aa81613770565b809150509250929050565b600080604083850312156137c857600080fd5b6137d1836135e8565b946020939093013593505050565b7f4e487b7100000000000000000000000000000000000000000000000000000000600052604160045260246000fd5b604051601f82017fffffffffffffffffffffffffffffffffffffffffffffffffffffffffffffffe016810167ffffffffffffffff81118282101715613855576138556137df565b604052919050565b600067ffffffffffffffff821115613877576138776137df565b5060051b60200190565b600082601f83011261389257600080fd5b813560206138a76138a28361385d565b61380e565b82815260059290921b840181019181810190868411156138c657600080fd5b8286015b848110156138e8576138db816135e8565b83529183019183016138ca565b509695505050505050565b600082601f83011261390457600080fd5b813560206139146138a28361385d565b82815260059290921b8401810191818101908684111561393357600080fd5b8286015b848110156138e85780358352918301918301613937565b60008060008060008060c0878903121561396757600080fd5b863567ffffffffffffffff8082111561397f57600080fd5b61398b8a838b01613881565b975060208901359150808211156139a157600080fd5b6139ad8a838b016138f3565b965060408901359150808211156139c357600080fd5b6139cf8a838b016138f3565b955060608901359150808211156139e557600080fd5b6139f18a838b016138f3565b94506080890135915080821115613a0757600080fd5b613a138a838b016138f3565b935060a0890135915080821115613a2957600080fd5b50613a3689828a01613881565b9150509295509295509295565b60008060408385031215613a5657600080fd5b613a5f836135e8565b9150613767602084016135e8565b60008060008060008060c08789031215613a8657600080fd5b863595506020870135945060408701359350613aa4606088016135e8565b9250613ab2608088016135e8565b9150613ac060a088016135e8565b90509295509295509295565b7f4e487b7100000000000000000000000000000000000000000000000000000000600052601160045260246000fd5b600082821015613b0d57613b0d613acc565b500390565b7f4e487b7100000000000000000000000000000000000000000000000000000000600052603260045260246000fd5b7f4e487b7100000000000000000000000000000000000000000000000000000000600052603160045260246000fd5b60008219821115613b8357613b83613acc565b500190565b600060208284031215613b9a57600080fd5b8151612a2581613770565b60007fffffffffffffffffffffffffffffffffffffffffffffffffffffffffffffffff821415613bd757613bd7613acc565b5060010190565b600082613c14577f4e487b7100000000000000000000000000000000000000000000000000000000600052601260045260246000fd5b500490565b6000610100808385031215613c2d57600080fd5b6040519081019067ffffffffffffffff82118183101715613c5057613c506137df565b81604052835181526020840151602082015260408401516040820152606084015160608201526080840151608082015260a084015160a082015260c084015160c082015260e084015160e0820152809250505092915050565b600060208284031215613cbb57600080fd5b5051919050565b60005b83811015613cdd578181015183820152602001613cc5565b83811115613cec576000848401525b50505050565b7f416363657373436f6e74726f6c3a206163636f756e7420000000000000000000815260008351613d2a816017850160208801613cc2565b7f206973206d697373696e6720726f6c65200000000000000000000000000000006017918401918201528351613d67816028840160208801613cc2565b01602801949350505050565b6020815260008251806020840152613d92816040850160208701613cc2565b601f017fffffffffffffffffffffffffffffffffffffffffffffffffffffffffffffffe0169190910160400192915050565b6000817fffffffffffffffffffffffffffffffffffffffffffffffffffffffffffffffff0483118215151615613dfc57613dfc613acc565b500290565b600081613e1057613e10613acc565b507fffffffffffffffffffffffffffffffffffffffffffffffffffffffffffffffff0190565b60008251613e48818460208701613cc2565b919091019291505056fea2646970667358221220e8455cff91d641d5b82359bea27c77e743f9a9cb87466f2eb1d4234a7409bc2764736f6c634300080b0033",
  "linkReferences": {},
  "deployedLinkReferences": {}
}