{
  "_format": "hh-sol-artifact-1",
  "contractName": "TwitterQuest",
  "sourceName": "contracts/TwitterQuest.sol",
  "abi": [
    {
      "inputs": [
        {
          "internalType": "address",
          "name": "_gnosis",
          "type": "address"
        },
        {
          "internalType": "address",
          "name": "_oracle",
          "type": "address"
        }
      ],
      "stateMutability": "nonpayable",
      "type": "constructor"
    },
    {
      "anonymous": false,
      "inputs": [
        {
          "indexed": false,
          "internalType": "uint256",
          "name": "_questEntryCost",
          "type": "uint256"
        },
        {
          "indexed": false,
          "internalType": "uint256",
          "name": "_fees",
          "type": "uint256"
        },
        {
          "indexed": false,
          "internalType": "uint256",
          "name": "_delayPeriod",
          "type": "uint256"
        },
        {
          "indexed": true,
          "internalType": "address",
          "name": "_token",
          "type": "address"
        },
        {
          "indexed": true,
          "internalType": "address",
          "name": "_memberShipAddress",
          "type": "address"
        }
      ],
      "name": "Initialized",
      "type": "event"
    },
    {
      "anonymous": false,
      "inputs": [
        {
          "indexed": false,
          "internalType": "uint256",
          "name": "",
          "type": "uint256"
        }
      ],
      "name": "NewCycle",
      "type": "event"
    },
    {
      "anonymous": false,
      "inputs": [
        {
          "indexed": true,
          "internalType": "address",
          "name": "_user",
          "type": "address"
        },
        {
          "indexed": false,
          "internalType": "uint256",
          "name": "_date",
          "type": "uint256"
        }
      ],
      "name": "NewMemberRegisterToWaitingList",
      "type": "event"
    },
    {
      "anonymous": false,
      "inputs": [
        {
          "indexed": true,
          "internalType": "address",
          "name": "_user",
          "type": "address"
        },
        {
          "indexed": false,
          "internalType": "uint256",
          "name": "_amount",
          "type": "uint256"
        },
        {
          "indexed": false,
          "internalType": "uint256",
          "name": "_weeklyAverage",
          "type": "uint256"
        },
        {
          "indexed": false,
          "internalType": "address",
          "name": "_token",
          "type": "address"
        },
        {
          "indexed": false,
          "internalType": "uint256",
          "name": "_date",
          "type": "uint256"
        }
      ],
      "name": "NewMemberSubscribeToQuest",
      "type": "event"
    },
    {
      "anonymous": false,
      "inputs": [
        {
          "indexed": true,
          "internalType": "address",
          "name": "_user",
          "type": "address"
        },
        {
          "indexed": false,
          "internalType": "uint256",
          "name": "_date",
          "type": "uint256"
        }
      ],
      "name": "NewWinnerUpdated",
      "type": "event"
    },
    {
      "anonymous": false,
      "inputs": [
        {
          "indexed": true,
          "internalType": "bytes32",
          "name": "role",
          "type": "bytes32"
        },
        {
          "indexed": true,
          "internalType": "bytes32",
          "name": "previousAdminRole",
          "type": "bytes32"
        },
        {
          "indexed": true,
          "internalType": "bytes32",
          "name": "newAdminRole",
          "type": "bytes32"
        }
      ],
      "name": "RoleAdminChanged",
      "type": "event"
    },
    {
      "anonymous": false,
      "inputs": [
        {
          "indexed": true,
          "internalType": "bytes32",
          "name": "role",
          "type": "bytes32"
        },
        {
          "indexed": true,
          "internalType": "address",
          "name": "account",
          "type": "address"
        },
        {
          "indexed": true,
          "internalType": "address",
          "name": "sender",
          "type": "address"
        }
      ],
      "name": "RoleGranted",
      "type": "event"
    },
    {
      "anonymous": false,
      "inputs": [
        {
          "indexed": true,
          "internalType": "bytes32",
          "name": "role",
          "type": "bytes32"
        },
        {
          "indexed": true,
          "internalType": "address",
          "name": "account",
          "type": "address"
        },
        {
          "indexed": true,
          "internalType": "address",
          "name": "sender",
          "type": "address"
        }
      ],
      "name": "RoleRevoked",
      "type": "event"
    },
    {
      "anonymous": false,
      "inputs": [
        {
          "indexed": true,
          "internalType": "address",
          "name": "_user",
          "type": "address"
        },
        {
          "indexed": true,
          "internalType": "address",
          "name": "_token",
          "type": "address"
        },
        {
          "indexed": false,
          "internalType": "uint256",
          "name": "_amount",
          "type": "uint256"
        },
        {
          "indexed": false,
          "internalType": "uint256",
          "name": "_date",
          "type": "uint256"
        }
      ],
      "name": "SupplyToPool",
      "type": "event"
    },
    {
      "anonymous": false,
      "inputs": [
        {
          "indexed": true,
          "internalType": "address",
          "name": "_user",
          "type": "address"
        },
        {
          "indexed": true,
          "internalType": "address",
          "name": "_token",
          "type": "address"
        },
        {
          "indexed": false,
          "internalType": "uint256",
          "name": "_amount",
          "type": "uint256"
        },
        {
          "indexed": false,
          "internalType": "uint256",
          "name": "_date",
          "type": "uint256"
        }
      ],
      "name": "WithdrawFromPool",
      "type": "event"
    },
    {
      "inputs": [],
      "name": "DEFAULT_ADMIN_ROLE",
      "outputs": [
        {
          "internalType": "bytes32",
          "name": "",
          "type": "bytes32"
        }
      ],
      "stateMutability": "view",
      "type": "function"
    },
    {
      "inputs": [],
      "name": "adminAddress",
      "outputs": [
        {
          "internalType": "address",
          "name": "",
          "type": "address"
        }
      ],
      "stateMutability": "view",
      "type": "function"
    },
    {
      "inputs": [],
      "name": "delayPeriod",
      "outputs": [
        {
          "internalType": "uint256",
          "name": "",
          "type": "uint256"
        }
      ],
      "stateMutability": "view",
      "type": "function"
    },
    {
      "inputs": [
        {
          "internalType": "address",
          "name": "_token",
          "type": "address"
        }
      ],
      "name": "deleteToken",
      "outputs": [
        {
          "internalType": "bool",
          "name": "",
          "type": "bool"
        }
      ],
      "stateMutability": "nonpayable",
      "type": "function"
    },
    {
      "inputs": [],
      "name": "endPeriod",
      "outputs": [
        {
          "internalType": "uint256",
          "name": "",
          "type": "uint256"
        }
      ],
      "stateMutability": "view",
      "type": "function"
    },
    {
      "inputs": [],
      "name": "fees",
      "outputs": [
        {
          "internalType": "uint256",
          "name": "",
          "type": "uint256"
        }
      ],
      "stateMutability": "view",
      "type": "function"
    },
    {
      "inputs": [],
      "name": "getAllParticipants",
      "outputs": [
        {
          "internalType": "address[]",
          "name": "",
          "type": "address[]"
        }
      ],
      "stateMutability": "view",
      "type": "function"
    },
    {
      "inputs": [],
      "name": "getAllSubscribed",
      "outputs": [
        {
          "internalType": "address[]",
          "name": "",
          "type": "address[]"
        }
      ],
      "stateMutability": "view",
      "type": "function"
    },
    {
      "inputs": [],
      "name": "getQuestSummarize",
      "outputs": [
        {
          "internalType": "address",
          "name": "lessTokenAddress",
          "type": "address"
        },
        {
          "internalType": "address",
          "name": "memberShipTokenAddress",
          "type": "address"
        },
        {
          "internalType": "address",
          "name": "entryToken",
          "type": "address"
        },
        {
          "internalType": "uint256",
          "name": "entryCost",
          "type": "uint256"
        },
        {
          "internalType": "uint256",
          "name": "amountLessReward",
          "type": "uint256"
        },
        {
          "internalType": "uint256",
          "name": "actualFees",
          "type": "uint256"
        },
        {
          "internalType": "uint256",
          "name": "actualQuestBalance",
          "type": "uint256"
        },
        {
          "internalType": "uint256",
          "name": "durationPeriod",
          "type": "uint256"
        },
        {
          "internalType": "uint256",
          "name": "cycleStartAt",
          "type": "uint256"
        },
        {
          "internalType": "uint256",
          "name": "cycleEndAt",
          "type": "uint256"
        },
        {
          "internalType": "address[]",
          "name": "actualQuestParticipants",
          "type": "address[]"
        }
      ],
      "stateMutability": "view",
      "type": "function"
    },
    {
      "inputs": [
        {
          "internalType": "bytes32",
          "name": "role",
          "type": "bytes32"
        }
      ],
      "name": "getRoleAdmin",
      "outputs": [
        {
          "internalType": "bytes32",
          "name": "",
          "type": "bytes32"
        }
      ],
      "stateMutability": "view",
      "type": "function"
    },
    {
      "inputs": [
        {
          "internalType": "address",
          "name": "_user",
          "type": "address"
        }
      ],
      "name": "getUserWaitingListId",
      "outputs": [
        {
          "internalType": "uint256",
          "name": "i",
          "type": "uint256"
        }
      ],
      "stateMutability": "view",
      "type": "function"
    },
    {
      "inputs": [
        {
          "internalType": "bytes32",
          "name": "role",
          "type": "bytes32"
        },
        {
          "internalType": "address",
          "name": "account",
          "type": "address"
        }
      ],
      "name": "grantRole",
      "outputs": [],
      "stateMutability": "nonpayable",
      "type": "function"
    },
    {
      "inputs": [
        {
          "internalType": "address",
          "name": "",
          "type": "address"
        }
      ],
      "name": "hasBeenSubscribed",
      "outputs": [
        {
          "internalType": "bool",
          "name": "",
          "type": "bool"
        }
      ],
      "stateMutability": "view",
      "type": "function"
    },
    {
      "inputs": [
        {
          "internalType": "bytes32",
          "name": "role",
          "type": "bytes32"
        },
        {
          "internalType": "address",
          "name": "account",
          "type": "address"
        }
      ],
      "name": "hasRole",
      "outputs": [
        {
          "internalType": "bool",
          "name": "",
          "type": "bool"
        }
      ],
      "stateMutability": "view",
      "type": "function"
    },
    {
      "inputs": [
        {
          "internalType": "uint256",
          "name": "_entryCost",
          "type": "uint256"
        },
        {
          "internalType": "uint256",
          "name": "_fees",
          "type": "uint256"
        },
        {
          "internalType": "uint256",
          "name": "_delayPeriod",
          "type": "uint256"
        },
        {
          "internalType": "address",
          "name": "_token",
          "type": "address"
        },
        {
          "internalType": "address",
          "name": "_memberShipAddress",
          "type": "address"
        },
        {
          "internalType": "address",
          "name": "_lessAddress",
          "type": "address"
        }
      ],
      "name": "initialize",
      "outputs": [],
      "stateMutability": "nonpayable",
      "type": "function"
    },
    {
      "inputs": [
        {
          "internalType": "address",
          "name": "_user",
          "type": "address"
        },
        {
          "internalType": "uint256",
          "name": "_tokenId",
          "type": "uint256"
        }
      ],
      "name": "isOwnerOf",
      "outputs": [
        {
          "internalType": "bool",
          "name": "",
          "type": "bool"
        }
      ],
      "stateMutability": "view",
      "type": "function"
    },
    {
      "inputs": [],
      "name": "lessAddress",
      "outputs": [
        {
          "internalType": "address",
          "name": "",
          "type": "address"
        }
      ],
      "stateMutability": "view",
      "type": "function"
    },
    {
      "inputs": [],
      "name": "lessReward",
      "outputs": [
        {
          "internalType": "uint256",
          "name": "",
          "type": "uint256"
        }
      ],
      "stateMutability": "view",
      "type": "function"
    },
    {
      "inputs": [
        {
          "internalType": "address",
          "name": "_token",
          "type": "address"
        }
      ],
      "name": "listNewToken",
      "outputs": [
        {
          "internalType": "bool",
          "name": "",
          "type": "bool"
        }
      ],
      "stateMutability": "nonpayable",
      "type": "function"
    },
    {
      "inputs": [
        {
          "internalType": "address",
          "name": "",
          "type": "address"
        }
      ],
      "name": "listedToken",
      "outputs": [
        {
          "internalType": "bool",
          "name": "",
          "type": "bool"
        }
      ],
      "stateMutability": "view",
      "type": "function"
    },
    {
      "inputs": [
        {
          "internalType": "address[]",
          "name": "_user",
          "type": "address[]"
        },
        {
          "internalType": "uint256[]",
          "name": "_userSubscribeIndexId",
          "type": "uint256[]"
        },
        {
          "internalType": "uint256[]",
          "name": "_userTokenId",
          "type": "uint256[]"
        },
        {
          "internalType": "uint256[]",
          "name": "_amount",
          "type": "uint256[]"
        },
        {
          "internalType": "uint256[]",
          "name": "_weeklyAverage",
          "type": "uint256[]"
        },
        {
          "internalType": "address[]",
          "name": "_token",
          "type": "address[]"
        }
      ],
      "name": "lockEntryFunds",
      "outputs": [],
      "stateMutability": "payable",
      "type": "function"
    },
    {
      "inputs": [],
      "name": "memberShipAddress",
      "outputs": [
        {
          "internalType": "address",
          "name": "",
          "type": "address"
        }
      ],
      "stateMutability": "view",
      "type": "function"
    },
    {
      "inputs": [
        {
          "internalType": "address",
          "name": "_token",
          "type": "address"
        }
      ],
      "name": "newCycle",
      "outputs": [],
      "stateMutability": "payable",
      "type": "function"
    },
    {
      "inputs": [
        {
          "internalType": "uint256",
          "name": "",
          "type": "uint256"
        }
      ],
      "name": "participants",
      "outputs": [
        {
          "internalType": "address",
          "name": "",
          "type": "address"
        }
      ],
      "stateMutability": "view",
      "type": "function"
    },
    {
      "inputs": [
        {
          "internalType": "address",
          "name": "",
          "type": "address"
        }
      ],
      "name": "poolBalance",
      "outputs": [
        {
          "internalType": "uint256",
          "name": "",
          "type": "uint256"
        }
      ],
      "stateMutability": "view",
      "type": "function"
    },
    {
      "inputs": [
        {
          "internalType": "address",
          "name": "",
          "type": "address"
        }
      ],
      "name": "questBalance",
      "outputs": [
        {
          "internalType": "uint256",
          "name": "",
          "type": "uint256"
        }
      ],
      "stateMutability": "view",
      "type": "function"
    },
    {
      "inputs": [],
      "name": "questEntryCost",
      "outputs": [
        {
          "internalType": "uint256",
          "name": "",
          "type": "uint256"
        }
      ],
      "stateMutability": "view",
      "type": "function"
    },
    {
      "inputs": [],
      "name": "questEntryToken",
      "outputs": [
        {
          "internalType": "address",
          "name": "",
          "type": "address"
        }
      ],
      "stateMutability": "view",
      "type": "function"
    },
    {
      "inputs": [],
      "name": "registerToWaitingList",
      "outputs": [
        {
          "internalType": "bool",
          "name": "",
          "type": "bool"
        }
      ],
      "stateMutability": "nonpayable",
      "type": "function"
    },
    {
      "inputs": [
        {
          "internalType": "bytes32",
          "name": "role",
          "type": "bytes32"
        },
        {
          "internalType": "address",
          "name": "account",
          "type": "address"
        }
      ],
      "name": "renounceRole",
      "outputs": [],
      "stateMutability": "nonpayable",
      "type": "function"
    },
    {
      "inputs": [
        {
          "internalType": "bytes32",
          "name": "role",
          "type": "bytes32"
        },
        {
          "internalType": "address",
          "name": "account",
          "type": "address"
        }
      ],
      "name": "revokeRole",
      "outputs": [],
      "stateMutability": "nonpayable",
      "type": "function"
    },
    {
      "inputs": [
        {
          "internalType": "address",
          "name": "_actualToken",
          "type": "address"
        }
      ],
      "name": "setActualQuestToken",
      "outputs": [
        {
          "internalType": "address",
          "name": "",
          "type": "address"
        }
      ],
      "stateMutability": "nonpayable",
      "type": "function"
    },
    {
      "inputs": [
        {
          "internalType": "uint256",
          "name": "_newPeriod",
          "type": "uint256"
        }
      ],
      "name": "setDelayPeriod",
      "outputs": [
        {
          "internalType": "uint256",
          "name": "",
          "type": "uint256"
        }
      ],
      "stateMutability": "nonpayable",
      "type": "function"
    },
    {
      "inputs": [
        {
          "internalType": "uint256",
          "name": "_newPeriod",
          "type": "uint256"
        }
      ],
      "name": "setEndPeriod",
      "outputs": [
        {
          "internalType": "uint256",
          "name": "",
          "type": "uint256"
        }
      ],
      "stateMutability": "nonpayable",
      "type": "function"
    },
    {
      "inputs": [
        {
          "internalType": "uint256",
          "name": "_newPrice",
          "type": "uint256"
        }
      ],
      "name": "setEntryCost",
      "outputs": [
        {
          "internalType": "uint256",
          "name": "",
          "type": "uint256"
        }
      ],
      "stateMutability": "nonpayable",
      "type": "function"
    },
    {
      "inputs": [
        {
          "internalType": "uint256",
          "name": "_newPrice",
          "type": "uint256"
        }
      ],
      "name": "setFees",
      "outputs": [
        {
          "internalType": "uint256",
          "name": "",
          "type": "uint256"
        }
      ],
      "stateMutability": "nonpayable",
      "type": "function"
    },
    {
      "inputs": [
        {
          "internalType": "address",
          "name": "_token",
          "type": "address"
        }
      ],
      "name": "setLessAddress",
      "outputs": [
        {
          "internalType": "address",
          "name": "",
          "type": "address"
        }
      ],
      "stateMutability": "nonpayable",
      "type": "function"
    },
    {
      "inputs": [
        {
          "internalType": "uint256",
          "name": "_newReward",
          "type": "uint256"
        }
      ],
      "name": "setLessReward",
      "outputs": [
        {
          "internalType": "uint256",
          "name": "",
          "type": "uint256"
        }
      ],
      "stateMutability": "nonpayable",
      "type": "function"
    },
    {
      "inputs": [
        {
          "internalType": "address",
          "name": "_membership",
          "type": "address"
        }
      ],
      "name": "setMemberShipAddress",
      "outputs": [
        {
          "internalType": "address",
          "name": "",
          "type": "address"
        }
      ],
      "stateMutability": "nonpayable",
      "type": "function"
    },
    {
      "inputs": [],
      "name": "startPeriod",
      "outputs": [
        {
          "internalType": "uint256",
          "name": "",
          "type": "uint256"
        }
      ],
      "stateMutability": "view",
      "type": "function"
    },
    {
      "inputs": [
        {
          "internalType": "address",
          "name": "_token",
          "type": "address"
        },
        {
          "internalType": "uint256",
          "name": "_amount",
          "type": "uint256"
        }
      ],
      "name": "supplyToPool",
      "outputs": [
        {
          "internalType": "uint256",
          "name": "",
          "type": "uint256"
        }
      ],
      "stateMutability": "payable",
      "type": "function"
    },
    {
      "inputs": [
        {
          "internalType": "bytes4",
          "name": "interfaceId",
          "type": "bytes4"
        }
      ],
      "name": "supportsInterface",
      "outputs": [
        {
          "internalType": "bool",
          "name": "",
          "type": "bool"
        }
      ],
      "stateMutability": "view",
      "type": "function"
    },
    {
      "inputs": [
        {
          "internalType": "address",
          "name": "_user",
          "type": "address"
        },
        {
          "internalType": "bool",
          "name": "_hasWin",
          "type": "bool"
        }
      ],
      "name": "updateUserTwitterData",
      "outputs": [
        {
          "components": [
            {
              "internalType": "address",
              "name": "tokenDeposited",
              "type": "address"
            },
            {
              "internalType": "uint256",
              "name": "tokenId",
              "type": "uint256"
            },
            {
              "internalType": "uint256",
              "name": "initialFunds",
              "type": "uint256"
            },
            {
              "internalType": "uint256",
              "name": "weeklyGoalAverage",
              "type": "uint256"
            },
            {
              "internalType": "bool",
              "name": "hasWin",
              "type": "bool"
            }
          ],
          "internalType": "struct TwitterQuest.UserData",
          "name": "",
          "type": "tuple"
        }
      ],
      "stateMutability": "nonpayable",
      "type": "function"
    },
    {
      "inputs": [
        {
          "internalType": "address",
          "name": "",
          "type": "address"
        },
        {
          "internalType": "address",
          "name": "",
          "type": "address"
        }
      ],
      "name": "userPoolShares",
      "outputs": [
        {
          "internalType": "uint256",
          "name": "",
          "type": "uint256"
        }
      ],
      "stateMutability": "view",
      "type": "function"
    },
    {
      "inputs": [
        {
          "internalType": "address",
          "name": "",
          "type": "address"
        }
      ],
      "name": "userTwitterData",
      "outputs": [
        {
          "internalType": "address",
          "name": "tokenDeposited",
          "type": "address"
        },
        {
          "internalType": "uint256",
          "name": "tokenId",
          "type": "uint256"
        },
        {
          "internalType": "uint256",
          "name": "initialFunds",
          "type": "uint256"
        },
        {
          "internalType": "uint256",
          "name": "weeklyGoalAverage",
          "type": "uint256"
        },
        {
          "internalType": "bool",
          "name": "hasWin",
          "type": "bool"
        }
      ],
      "stateMutability": "view",
      "type": "function"
    },
    {
      "inputs": [
        {
          "internalType": "address",
          "name": "",
          "type": "address"
        }
      ],
      "name": "waitingList",
      "outputs": [
        {
          "internalType": "bool",
          "name": "",
          "type": "bool"
        }
      ],
      "stateMutability": "view",
      "type": "function"
    },
    {
      "inputs": [
        {
          "internalType": "uint256",
          "name": "",
          "type": "uint256"
        }
      ],
      "name": "waitingListIndex",
      "outputs": [
        {
          "internalType": "address",
          "name": "",
          "type": "address"
        }
      ],
      "stateMutability": "view",
      "type": "function"
    },
    {
      "inputs": [
        {
          "internalType": "uint256",
          "name": "",
          "type": "uint256"
        }
      ],
      "name": "winners",
      "outputs": [
        {
          "internalType": "address",
          "name": "",
          "type": "address"
        }
      ],
      "stateMutability": "view",
      "type": "function"
    },
    {
      "inputs": [
        {
          "internalType": "uint256",
          "name": "_amount",
          "type": "uint256"
        },
        {
          "internalType": "address",
          "name": "_token",
          "type": "address"
        }
      ],
      "name": "withdrawFromPool",
      "outputs": [
        {
          "internalType": "uint256",
          "name": "",
          "type": "uint256"
        }
      ],
      "stateMutability": "payable",
      "type": "function"
    },
    {
      "stateMutability": "payable",
      "type": "receive"
    }
  ],
  "bytecode": "0x60806040523480156200001157600080fd5b5060405162003f5438038062003f5483398101604081905262000034916200012e565b6001600090815562000047908362000088565b6200005460008262000088565b6200006160003062000088565b50600680546001600160a01b0319166001600160a01b039290921691909117905562000166565b60008281526001602090815260408083206001600160a01b038516845290915290205460ff166200010d5760008281526001602081815260408084206001600160a01b0386168086529252808420805460ff19169093179092559051339285917f2f8788117e7eff1d82e926ec794901d17c78024a50270940304540a733656f0d9190a45b5050565b80516001600160a01b03811681146200012957600080fd5b919050565b600080604083850312156200014257600080fd5b6200014d8362000111565b91506200015d6020840162000111565b90509250929050565b613dde80620001766000396000f3fe6080604052600436106103225760003560e01c80636caa7ba0116101a5578063b1c94d94116100ec578063d547741f11610095578063f069f7121161006f578063f069f71214610a34578063f616942014610a54578063f9ec83b014610a74578063fc6f946814610aa157600080fd5b8063d547741f146109de578063da22e3d2146109fe578063ec48b5f214610a1457600080fd5b8063c5b8f772116100c6578063c5b8f77214610971578063cd8d999414610991578063d30dc5f3146109be57600080fd5b8063b1c94d9414610910578063b32e636314610926578063bc8e8c5b1461093957600080fd5b8063a217fddf1161014e578063ac70ef3511610128578063ac70ef35146108b0578063ae29f7f9146108c3578063aff62f1f146108e357600080fd5b8063a217fddf146107d6578063a2fb1175146107eb578063a4ca9d8e1461080b57600080fd5b8063917886c51161017f578063917886c51461075a57806391d148541461076d5780639af1d35a146107c057600080fd5b80636caa7ba0146106f75780636ff35d791461070d5780637f48c9de1461073a57600080fd5b806335c1d34911610269578063488e0dfd116102125780635faa65ff116101ec5780635faa65ff1461068457806368abb5e01461069a5780636b046b3d146106c757600080fd5b8063488e0dfd146105d55780635669bc731461064f5780635dd27da31461066457600080fd5b8063397148d311610243578063397148d3146105655780633d18678e146105955780633d572107146105b557600080fd5b806335c1d3491461050557806336568abe1461052557806337abc83b1461054557600080fd5b80631b9be3de116102cb5780632cbcb1f2116102a55780632cbcb1f2146104ba5780632f2ff15d146104cd57806330bfb9bb146104ef57600080fd5b80631b9be3de1461042b57806321c1e1151461045b578063248a9ca31461047b57600080fd5b80630f6f02bb116102fc5780630f6f02bb146103c8578063136b5d7c146103f4578063195ec9ee1461040957600080fd5b806301ffc9a71461032e57806304c4e199146103635780630e772618146103a857600080fd5b3661032957005b600080fd5b34801561033a57600080fd5b5061034e6103493660046134e9565b610ace565b60405190151581526020015b60405180910390f35b34801561036f57600080fd5b5061038361037e36600461352b565b610b67565b60405173ffffffffffffffffffffffffffffffffffffffff909116815260200161035a565b3480156103b457600080fd5b506103836103c3366004613566565b610b9e565b3480156103d457600080fd5b506103dd610bf4565b60405161035a9b9a999897969594939291906135d4565b34801561040057600080fd5b5061034e610cbe565b34801561041557600080fd5b5061041e610f1c565b60405161035a9190613655565b34801561043757600080fd5b5061034e610446366004613566565b60166020526000908152604090205460ff1681565b34801561046757600080fd5b5061034e610476366004613566565b610f8b565b34801561048757600080fd5b506104ac61049636600461352b565b6000908152600160208190526040909120015490565b60405190815260200161035a565b6104ac6104c8366004613668565b610fec565b3480156104d957600080fd5b506104ed6104e8366004613668565b6112e9565b005b3480156104fb57600080fd5b506104ac600c5481565b34801561051157600080fd5b5061038361052036600461352b565b611314565b34801561053157600080fd5b506104ed610540366004613668565b611324565b34801561055157600080fd5b506104ac61056036600461352b565b6113d7565b34801561057157600080fd5b5061034e610580366004613566565b60136020526000908152604090205460ff1681565b3480156105a157600080fd5b506104ac6105b036600461352b565b611402565b3480156105c157600080fd5b506104ac6105d036600461352b565b611418565b3480156105e157600080fd5b506105f56105f03660046136a6565b61142e565b60405161035a9190600060a08201905073ffffffffffffffffffffffffffffffffffffffff835116825260208301516020830152604083015160408301526060830151606083015260808301511515608083015292915050565b34801561065b57600080fd5b5061041e61157d565b34801561067057600080fd5b506104ac61067f36600461352b565b6115ea565b34801561069057600080fd5b506104ac600d5481565b3480156106a657600080fd5b506104ac6106b5366004613566565b600f6020526000908152604090205481565b3480156106d357600080fd5b5061034e6106e2366004613566565b60146020526000908152604090205460ff1681565b34801561070357600080fd5b506104ac60095481565b34801561071957600080fd5b506007546103839073ffffffffffffffffffffffffffffffffffffffff1681565b34801561074657600080fd5b50610383610755366004613566565b611600565b6104ac6107683660046136d4565b611651565b34801561077957600080fd5b5061034e610788366004613668565b600091825260016020908152604080842073ffffffffffffffffffffffffffffffffffffffff93909316845291905290205460ff1690565b3480156107cc57600080fd5b506104ac600b5481565b3480156107e257600080fd5b506104ac600081565b3480156107f757600080fd5b5061038361080636600461352b565b611919565b34801561081757600080fd5b5061086f610826366004613566565b6012602052600090815260409020805460018201546002830154600384015460049094015473ffffffffffffffffffffffffffffffffffffffff90931693919290919060ff1685565b6040805173ffffffffffffffffffffffffffffffffffffffff909616865260208601949094529284019190915260608301521515608082015260a00161035a565b6104ed6108be36600461389b565b611929565b3480156108cf57600080fd5b506104ac6108de36600461352b565b6121aa565b3480156108ef57600080fd5b506104ac6108fe366004613566565b60116020526000908152604090205481565b34801561091c57600080fd5b506104ac600e5481565b6104ed610934366004613566565b6121c0565b34801561094557600080fd5b506104ac610954366004613990565b601060209081526000928352604080842090915290825290205481565b34801561097d57600080fd5b5061034e61098c3660046136d4565b6128e5565b34801561099d57600080fd5b506005546103839073ffffffffffffffffffffffffffffffffffffffff1681565b3480156109ca57600080fd5b506104ac6109d9366004613566565b612988565b3480156109ea57600080fd5b506104ed6109f9366004613668565b6129f0565b348015610a0a57600080fd5b506104ac600a5481565b348015610a2057600080fd5b50610383610a2f366004613566565b612a16565b348015610a4057600080fd5b5061034e610a4f366004613566565b612af6565b348015610a6057600080fd5b506104ed610a6f3660046139be565b612b51565b348015610a8057600080fd5b506004546103839073ffffffffffffffffffffffffffffffffffffffff1681565b348015610aad57600080fd5b506006546103839073ffffffffffffffffffffffffffffffffffffffff1681565b60007fffffffff0000000000000000000000000000000000000000000000000000000082167f7965db0b000000000000000000000000000000000000000000000000000000001480610b6157507f01ffc9a7000000000000000000000000000000000000000000000000000000007fffffffff000000000000000000000000000000000000000000000000000000008316145b92915050565b60158181548110610b7757600080fd5b60009182526020909120015473ffffffffffffffffffffffffffffffffffffffff16905081565b600080610baa81612c82565b600580547fffffffffffffffffffffffff00000000000000000000000000000000000000001673ffffffffffffffffffffffffffffffffffffffff85161790558291505b50919050565b600454600554600754600954600a54600b5473ffffffffffffffffffffffffffffffffffffffff93841660008181526011602090815260409182902054600e54600c54600d54600280548751818802810188019098528088529d8c169d9b909c169b969a939692959194909360609391830182828015610caa57602002820191906000526020600020905b815473ffffffffffffffffffffffffffffffffffffffff168152600190910190602001808311610c7f575b50505050509050909192939495969798999a565b60095433600090815260106020908152604080832060075473ffffffffffffffffffffffffffffffffffffffff16845290915281205490911115610daf576040517f08c379a000000000000000000000000000000000000000000000000000000000815260206004820152604260248201527f4e6f7420456e6f7567687420436f6e7465737420436f696e7320496e20506f6f60448201527f6c2042616c616e636520546f204a6f696e205468652057616974696e67204c6960648201527f7374000000000000000000000000000000000000000000000000000000000000608482015260a4015b60405180910390fd5b3360009081526014602052604090205460ff16610eb257336000818152601360209081526040808320805460017fffffffffffffffffffffffffffffffffffffffffffffffffffffffffffffff009182168117909255601580548084019091557f55f448fdea98c4d29eb340757ef0a66cd03dbb9538908a6a81d96026b71ec4750180547fffffffffffffffffffffffff00000000000000000000000000000000000000001687179055601484529382902080549094161790925590514281527f2551bf306f82993a2c550df966019a69e9e20f1857fe36632783abc36b64882491015b60405180910390a2503360009081526013602052604090205460ff1690565b336000818152601360205260409081902080547fffffffffffffffffffffffffffffffffffffffffffffffffffffffffffffff00166001179055517f2551bf306f82993a2c550df966019a69e9e20f1857fe36632783abc36b64882490610e939042815260200190565b60606002805480602002602001604051908101604052809291908181526020018280548015610f8157602002820191906000526020600020905b815473ffffffffffffffffffffffffffffffffffffffff168152600190910190602001808311610f56575b5050505050905090565b600080610f9781612c82565b505073ffffffffffffffffffffffffffffffffffffffff16600090815260166020526040902080547fffffffffffffffffffffffffffffffffffffffffffffffffffffffffffffff0016600190811790915590565b60006002600054141561105b576040517f08c379a000000000000000000000000000000000000000000000000000000000815260206004820152601f60248201527f5265656e7472616e637947756172643a207265656e7472616e742063616c6c006044820152606401610da6565b6002600090815573ffffffffffffffffffffffffffffffffffffffff831681526016602052604090205460ff166110ee576040517f08c379a000000000000000000000000000000000000000000000000000000000815260206004820152601b60248201527f546f6b656e206e6f7420737570706f727465642028796574203f2900000000006044820152606401610da6565b33600090815260106020908152604080832073ffffffffffffffffffffffffffffffffffffffff861684529091529020548311801590611153575073ffffffffffffffffffffffffffffffffffffffff82166000908152600f60205260409020548311155b6111b9576040517f08c379a000000000000000000000000000000000000000000000000000000000815260206004820152601c60248201527f4e6f7420456e6f756768742046756e647320417661696c6169626c65000000006044820152606401610da6565b73ffffffffffffffffffffffffffffffffffffffff82166000908152600f6020526040812080548592906111ee908490613a54565b909155505033600090815260106020908152604080832073ffffffffffffffffffffffffffffffffffffffff8616845290915281208054859290611233908490613a54565b9091555061125a905073ffffffffffffffffffffffffffffffffffffffff83163385612c8f565b6040805184815242602082015273ffffffffffffffffffffffffffffffffffffffff84169133917f817b0c0d4788c2aad942468226077f2ecebee8ffc9a58c433b980b15d2679d70910160405180910390a35033600090815260106020908152604080832073ffffffffffffffffffffffffffffffffffffffff85168452909152902054600160005592915050565b6000828152600160208190526040909120015461130581612c82565b61130f8383612d1c565b505050565b60028181548110610b7757600080fd5b73ffffffffffffffffffffffffffffffffffffffff811633146113c9576040517f08c379a000000000000000000000000000000000000000000000000000000000815260206004820152602f60248201527f416363657373436f6e74726f6c3a2063616e206f6e6c792072656e6f756e636560448201527f20726f6c657320666f722073656c6600000000000000000000000000000000006064820152608401610da6565b6113d38282612ddb565b5050565b6000806113e381612c82565b826113f55742600d8190559150610bee565b82600d8190559150610bee565b60008061140e81612c82565b5050600b81905590565b60008061142481612c82565b5050600e81905590565b6114786040518060a00160405280600073ffffffffffffffffffffffffffffffffffffffff1681526020016000815260200160008152602001600081526020016000151581525090565b600061148381612c82565b73ffffffffffffffffffffffffffffffffffffffff84166000818152601260209081526040918290206004810180547fffffffffffffffffffffffffffffffffffffffffffffffffffffffffffffff001688151517905591514281529192917f308c041c1c18db97c5cc15aa678c0d5005acf25a546859a898c80a1b8b059825910160405180910390a25050505073ffffffffffffffffffffffffffffffffffffffff908116600090815260126020908152604091829020825160a08101845281549094168452600181015491840191909152600281015491830191909152600381015460608301526004015460ff161515608082015290565b60606015805480602002602001604051908101604052809291908181526020018280548015610f815760200282019190600052602060002090815473ffffffffffffffffffffffffffffffffffffffff168152600190910190602001808311610f56575050505050905090565b6000806115f681612c82565b5050600a81905590565b60008061160c81612c82565b5050600480547fffffffffffffffffffffffff00000000000000000000000000000000000000001673ffffffffffffffffffffffffffffffffffffffff831617905590565b6000600260005414156116c0576040517f08c379a000000000000000000000000000000000000000000000000000000000815260206004820152601f60248201527f5265656e7472616e637947756172643a207265656e7472616e742063616c6c006044820152606401610da6565b6002600090815573ffffffffffffffffffffffffffffffffffffffff841681526016602052604090205460ff16611753576040517f08c379a000000000000000000000000000000000000000000000000000000000815260206004820152601b60248201527f546f6b656e206e6f7420737570706f727465642028796574203f2900000000006044820152606401610da6565b73ffffffffffffffffffffffffffffffffffffffff83166000908152600f6020526040902054611784908390613a6b565b73ffffffffffffffffffffffffffffffffffffffff84166000818152600f6020908152604080832094909455338252601081528382209282529190915220546117ce908390613a6b565b33600081815260106020908152604080832073ffffffffffffffffffffffffffffffffffffffff891680855292529182902093909355517f23b872dd0000000000000000000000000000000000000000000000000000000081526004810191909152306024820152604481018490526323b872dd906064016020604051808303816000875af1158015611865573d6000803e3d6000fd5b505050506040513d601f19601f820116820180604052508101906118899190613a83565b506040805183815242602082015273ffffffffffffffffffffffffffffffffffffffff85169133917f19847924cfe7c381901e8df773ec70d38220e578da206a5250ec51cf539aec21910160405180910390a35033600090815260106020908152604080832073ffffffffffffffffffffffffffffffffffffffff86168452909152902054600160005592915050565b60038181548110610b7757600080fd5b600061193481612c82565b60005b87518110156121a05784818151811061195257611952613aa0565b6020026020010151601060008a848151811061197057611970613aa0565b602002602001015173ffffffffffffffffffffffffffffffffffffffff1673ffffffffffffffffffffffffffffffffffffffff16815260200190815260200160002060008584815181106119c6576119c6613aa0565b602002602001015173ffffffffffffffffffffffffffffffffffffffff1673ffffffffffffffffffffffffffffffffffffffff1681526020019081526020016000205410611fcb57600954858281518110611a2357611a23613aa0565b60200260200101511015611a3657600080fd5b6000601260008a8481518110611a4e57611a4e613aa0565b602002602001015173ffffffffffffffffffffffffffffffffffffffff1673ffffffffffffffffffffffffffffffffffffffff1681526020019081526020016000209050858281518110611aa457611aa4613aa0565b60200260200101518160020181905550838281518110611ac657611ac6613aa0565b602090810291909101015181547fffffffffffffffffffffffff00000000000000000000000000000000000000001673ffffffffffffffffffffffffffffffffffffffff9091161781558451859083908110611b2457611b24613aa0565b60200260200101518160030181905550858281518110611b4657611b46613aa0565b602002602001015160116000868581518110611b6457611b64613aa0565b602002602001015173ffffffffffffffffffffffffffffffffffffffff1673ffffffffffffffffffffffffffffffffffffffff16815260200190815260200160002054611bb19190613a6b565b60116000868581518110611bc757611bc7613aa0565b602002602001015173ffffffffffffffffffffffffffffffffffffffff1673ffffffffffffffffffffffffffffffffffffffff16815260200190815260200160002081905550858281518110611c1f57611c1f613aa0565b6020026020010151600f6000868581518110611c3d57611c3d613aa0565b602002602001015173ffffffffffffffffffffffffffffffffffffffff1673ffffffffffffffffffffffffffffffffffffffff16815260200190815260200160002054611c8a9190613a54565b600f6000868581518110611ca057611ca0613aa0565b602002602001015173ffffffffffffffffffffffffffffffffffffffff1673ffffffffffffffffffffffffffffffffffffffff16815260200190815260200160002081905550858281518110611cf857611cf8613aa0565b6020026020010151601060008b8581518110611d1657611d16613aa0565b602002602001015173ffffffffffffffffffffffffffffffffffffffff1673ffffffffffffffffffffffffffffffffffffffff1681526020019081526020016000206000868581518110611d6c57611d6c613aa0565b602002602001015173ffffffffffffffffffffffffffffffffffffffff1673ffffffffffffffffffffffffffffffffffffffff16815260200190815260200160002054611db99190613a54565b601060008b8581518110611dcf57611dcf613aa0565b602002602001015173ffffffffffffffffffffffffffffffffffffffff1673ffffffffffffffffffffffffffffffffffffffff1681526020019081526020016000206000868581518110611e2557611e25613aa0565b602002602001015173ffffffffffffffffffffffffffffffffffffffff1673ffffffffffffffffffffffffffffffffffffffff168152602001908152602001600020819055506002898381518110611e7f57611e7f613aa0565b60209081029190910181015182546001810184556000938452919092200180547fffffffffffffffffffffffff00000000000000000000000000000000000000001673ffffffffffffffffffffffffffffffffffffffff9092169190911790558851899083908110611ef357611ef3613aa0565b602002602001015173ffffffffffffffffffffffffffffffffffffffff167f564af6e7f0eec554bc1515f3cbfd9d9a355cf05c4e4358ba5d0977f3c3cd544c878481518110611f4457611f44613aa0565b6020026020010151878581518110611f5e57611f5e613aa0565b6020026020010151878681518110611f7857611f78613aa0565b602002602001015142604051611fbd9493929190938452602084019290925273ffffffffffffffffffffffffffffffffffffffff166040830152606082015260800190565b60405180910390a25061218e565b6000601360008a8481518110611fe357611fe3613aa0565b60209081029190910181015173ffffffffffffffffffffffffffffffffffffffff16825281019190915260400160002080547fffffffffffffffffffffffffffffffffffffffffffffffffffffffffffffff0016911515919091179055601554875188908390811061205757612057613aa0565b602002602001015114612124576015805461207490600190613a54565b8154811061208457612084613aa0565b9060005260206000200160009054906101000a900473ffffffffffffffffffffffffffffffffffffffff1660158883815181106120c3576120c3613aa0565b6020026020010151815481106120db576120db613aa0565b9060005260206000200160006101000a81548173ffffffffffffffffffffffffffffffffffffffff021916908373ffffffffffffffffffffffffffffffffffffffff1602179055505b601580548061213557612135613acf565b60008281526020902081017fffffffffffffffffffffffffffffffffffffffffffffffffffffffffffffffff90810180547fffffffffffffffffffffffff00000000000000000000000000000000000000001690550190555b8061219881613afe565b915050611937565b5050505050505050565b6000806121b681612c82565b5050600981905590565b60006121cb81612c82565b600b5473ffffffffffffffffffffffffffffffffffffffff831660009081526011602052604081205490916121ff91613a54565b905060005b60025481101561239e576000601260006002848154811061222757612227613aa0565b600091825260208083209091015473ffffffffffffffffffffffffffffffffffffffff1683528201929092526040019020600481015490915060ff16156122de5760036002838154811061227d5761227d613aa0565b60009182526020808320909101548354600181018555938352912090910180547fffffffffffffffffffffffff00000000000000000000000000000000000000001673ffffffffffffffffffffffffffffffffffffffff9092169190911790555b60126000600284815481106122f5576122f5613aa0565b600091825260208083209091015473ffffffffffffffffffffffffffffffffffffffff168352820192909252604001812080547fffffffffffffffffffffffff00000000000000000000000000000000000000001681556001810182905560028101829055600381019190915560040180547fffffffffffffffffffffffffffffffffffffffffffffffffffffffffffffff00169055508061239681613afe565b915050612204565b506123ab600260006134b7565b600354156128cb576003546000906123c39083613b37565b905060005b6003548110156128bc576005546003805473ffffffffffffffffffffffffffffffffffffffff909216918491601091600091908690811061240b5761240b613aa0565b600091825260208083209091015473ffffffffffffffffffffffffffffffffffffffff90811684528382019490945260409283018220938b168252929092529020546124579190613a6b565b601060006003858154811061246e5761246e613aa0565b600091825260208083209091015473ffffffffffffffffffffffffffffffffffffffff90811684528382019490945260409283018220938b1682529283528181209390935560119091529020546124c6908490613a54565b73ffffffffffffffffffffffffffffffffffffffff8716600090815260116020908152604080832093909355600f90522054612503908490613a6b565b73ffffffffffffffffffffffffffffffffffffffff87166000908152600f6020908152604080832093909355825161012081018452828152908101829052918201819052606082018190526080820181905260a0820181905260c0820181905260e08201819052610100820181905261257d90600a613a6b565b60208201526040810151612592906001613a6b565b604082015260608101516125a7906001613a6b565b8160600181815250508173ffffffffffffffffffffffffffffffffffffffff166339e3af9660126000600387815481106125e3576125e3613aa0565b600091825260208083209091015473ffffffffffffffffffffffffffffffffffffffff168352820192909252604001902060010154600380548790811061262c5761262c613aa0565b600091825260209182902001546040805160e086811b7fffffffff00000000000000000000000000000000000000000000000000000000168252600482019590955273ffffffffffffffffffffffffffffffffffffffff928316602482015287519092166044830152918601516064820152908501516084820152606085015160a4820152608085015160c482015260a085015160e482015260c08501516101048201529084015161012482015261010084015161014482015261016401610120604051808303816000875af115801561270a573d6000803e3d6000fd5b505050506040513d601f19601f8201168201806040525081019061272e9190613b7d565b50600a54600480546040517f70a08231000000000000000000000000000000000000000000000000000000008152309281019290925273ffffffffffffffffffffffffffffffffffffffff16906370a0823190602401602060405180830381865afa1580156127a1573d6000803e3d6000fd5b505050506040513d601f19601f820116820180604052508101906127c59190613bff565b11156128a7576004546003805473ffffffffffffffffffffffffffffffffffffffff9092169163a9059cbb91908690811061280257612802613aa0565b600091825260209091200154600a5460405160e084901b7fffffffff0000000000000000000000000000000000000000000000000000000016815273ffffffffffffffffffffffffffffffffffffffff909216600483015260248201526044016020604051808303816000875af1158015612881573d6000803e3d6000fd5b505050506040513d601f19601f820116820180604052508101906128a59190613a83565b505b505080806128b490613afe565b9150506123c8565b506128c9600360006134b7565b505b42600c819055600e546128dd91613a6b565b600d55505050565b6005546040517fc5b8f77200000000000000000000000000000000000000000000000000000000815273ffffffffffffffffffffffffffffffffffffffff848116600483015260248201849052600092169063c5b8f77290604401602060405180830381865afa15801561295d573d6000803e3d6000fd5b505050506040513d601f19601f820116820180604052508101906129819190613a83565b9392505050565b60005b6015548110156129eb57601581815481106129a8576129a8613aa0565b60009182526020909120015473ffffffffffffffffffffffffffffffffffffffff838116911614156129d957919050565b806129e381613afe565b91505061298b565b919050565b60008281526001602081905260409091200154612a0c81612c82565b61130f8383612ddb565b600080612a2281612c82565b73ffffffffffffffffffffffffffffffffffffffff831660009081526016602052604090205460ff16612ab1576040517f08c379a000000000000000000000000000000000000000000000000000000000815260206004820152601260248201527f546f6b656e204e6f74204c6973746564202100000000000000000000000000006044820152606401610da6565b5050600780547fffffffffffffffffffffffff00000000000000000000000000000000000000001673ffffffffffffffffffffffffffffffffffffffff831617905590565b600080612b0281612c82565b505073ffffffffffffffffffffffffffffffffffffffff16600090815260166020526040812080547fffffffffffffffffffffffffffffffffffffffffffffffffffffffffffffff0016905590565b6000612b5c81612c82565b6009879055600b86905573ffffffffffffffffffffffffffffffffffffffff8481166000818152601660205260409020805460017fffffffffffffffffffffffffffffffffffffffffffffffffffffffffffffff009091168117909155600780547fffffffffffffffffffffffff0000000000000000000000000000000000000000908116909317905560058054831687851617905560048054909216928516929092179055851415612c155762278d00600e55612c1b565b600e8590555b604080518881526020810188905290810186905273ffffffffffffffffffffffffffffffffffffffff80851691908616907fee08cfb078784d8a182b8270a792d2b387ab3c790855a6862073c5a64d7735299060600160405180910390a350505050505050565b612c8c8133612e96565b50565b6040805173ffffffffffffffffffffffffffffffffffffffff8416602482015260448082018490528251808303909101815260649091019091526020810180517bffffffffffffffffffffffffffffffffffffffffffffffffffffffff167fa9059cbb0000000000000000000000000000000000000000000000000000000017905261130f908490612f68565b600082815260016020908152604080832073ffffffffffffffffffffffffffffffffffffffff8516845290915290205460ff166113d357600082815260016020818152604080842073ffffffffffffffffffffffffffffffffffffffff8616808652925280842080547fffffffffffffffffffffffffffffffffffffffffffffffffffffffffffffff00169093179092559051339285917f2f8788117e7eff1d82e926ec794901d17c78024a50270940304540a733656f0d9190a45050565b600082815260016020908152604080832073ffffffffffffffffffffffffffffffffffffffff8516845290915290205460ff16156113d357600082815260016020908152604080832073ffffffffffffffffffffffffffffffffffffffff8516808552925280832080547fffffffffffffffffffffffffffffffffffffffffffffffffffffffffffffff0016905551339285917ff6391f5c32d9c69d2a47ea670b442974b53935d1edc7fd64eb21e047a839171b9190a45050565b600082815260016020908152604080832073ffffffffffffffffffffffffffffffffffffffff8516845290915290205460ff166113d357612eee8173ffffffffffffffffffffffffffffffffffffffff166014613074565b612ef9836020613074565b604051602001612f0a929190613c48565b604080517fffffffffffffffffffffffffffffffffffffffffffffffffffffffffffffffe0818403018152908290527f08c379a0000000000000000000000000000000000000000000000000000000008252610da691600401613cc9565b6000612fca826040518060400160405280602081526020017f5361666545524332303a206c6f772d6c6576656c2063616c6c206661696c65648152508573ffffffffffffffffffffffffffffffffffffffff166132b79092919063ffffffff16565b80519091501561130f5780806020019051810190612fe89190613a83565b61130f576040517f08c379a000000000000000000000000000000000000000000000000000000000815260206004820152602a60248201527f5361666545524332303a204552433230206f7065726174696f6e20646964206e60448201527f6f742073756363656564000000000000000000000000000000000000000000006064820152608401610da6565b60606000613083836002613d1a565b61308e906002613a6b565b67ffffffffffffffff8111156130a6576130a6613700565b6040519080825280601f01601f1916602001820160405280156130d0576020820181803683370190505b5090507f30000000000000000000000000000000000000000000000000000000000000008160008151811061310757613107613aa0565b60200101907effffffffffffffffffffffffffffffffffffffffffffffffffffffffffffff1916908160001a9053507f78000000000000000000000000000000000000000000000000000000000000008160018151811061316a5761316a613aa0565b60200101907effffffffffffffffffffffffffffffffffffffffffffffffffffffffffffff1916908160001a90535060006131a6846002613d1a565b6131b1906001613a6b565b90505b600181111561324e577f303132333435363738396162636465660000000000000000000000000000000085600f16601081106131f2576131f2613aa0565b1a60f81b82828151811061320857613208613aa0565b60200101907effffffffffffffffffffffffffffffffffffffffffffffffffffffffffffff1916908160001a90535060049490941c9361324781613d57565b90506131b4565b508315612981576040517f08c379a000000000000000000000000000000000000000000000000000000000815260206004820181905260248201527f537472696e67733a20686578206c656e67746820696e73756666696369656e746044820152606401610da6565b60606132c684846000856132ce565b949350505050565b606082471015613360576040517f08c379a000000000000000000000000000000000000000000000000000000000815260206004820152602660248201527f416464726573733a20696e73756666696369656e742062616c616e636520666f60448201527f722063616c6c00000000000000000000000000000000000000000000000000006064820152608401610da6565b73ffffffffffffffffffffffffffffffffffffffff85163b6133de576040517f08c379a000000000000000000000000000000000000000000000000000000000815260206004820152601d60248201527f416464726573733a2063616c6c20746f206e6f6e2d636f6e74726163740000006044820152606401610da6565b6000808673ffffffffffffffffffffffffffffffffffffffff1685876040516134079190613d8c565b60006040518083038185875af1925050503d8060008114613444576040519150601f19603f3d011682016040523d82523d6000602084013e613449565b606091505b5091509150613459828286613464565b979650505050505050565b60608315613473575081612981565b8251156134835782518084602001fd5b816040517f08c379a0000000000000000000000000000000000000000000000000000000008152600401610da69190613cc9565b5080546000825590600052602060002090810190612c8c91905b808211156134e557600081556001016134d1565b5090565b6000602082840312156134fb57600080fd5b81357fffffffff000000000000000000000000000000000000000000000000000000008116811461298157600080fd5b60006020828403121561353d57600080fd5b5035919050565b73ffffffffffffffffffffffffffffffffffffffff81168114612c8c57600080fd5b60006020828403121561357857600080fd5b813561298181613544565b600081518084526020808501945080840160005b838110156135c957815173ffffffffffffffffffffffffffffffffffffffff1687529582019590820190600101613597565b509495945050505050565b600061016073ffffffffffffffffffffffffffffffffffffffff808f168452808e166020850152808d166040850152508a60608401528960808401528860a08401528760c08401528660e084015285610100840152846101208401528061014084015261364381840185613583565b9e9d5050505050505050505050505050565b6020815260006129816020830184613583565b6000806040838503121561367b57600080fd5b82359150602083013561368d81613544565b809150509250929050565b8015158114612c8c57600080fd5b600080604083850312156136b957600080fd5b82356136c481613544565b9150602083013561368d81613698565b600080604083850312156136e757600080fd5b82356136f281613544565b946020939093013593505050565b7f4e487b7100000000000000000000000000000000000000000000000000000000600052604160045260246000fd5b604051610120810167ffffffffffffffff8111828210171561375357613753613700565b60405290565b604051601f82017fffffffffffffffffffffffffffffffffffffffffffffffffffffffffffffffe016810167ffffffffffffffff811182821017156137a0576137a0613700565b604052919050565b600067ffffffffffffffff8211156137c2576137c2613700565b5060051b60200190565b600082601f8301126137dd57600080fd5b813560206137f26137ed836137a8565b613759565b82815260059290921b8401810191818101908684111561381157600080fd5b8286015b8481101561383557803561382881613544565b8352918301918301613815565b509695505050505050565b600082601f83011261385157600080fd5b813560206138616137ed836137a8565b82815260059290921b8401810191818101908684111561388057600080fd5b8286015b848110156138355780358352918301918301613884565b60008060008060008060c087890312156138b457600080fd5b863567ffffffffffffffff808211156138cc57600080fd5b6138d88a838b016137cc565b975060208901359150808211156138ee57600080fd5b6138fa8a838b01613840565b9650604089013591508082111561391057600080fd5b61391c8a838b01613840565b9550606089013591508082111561393257600080fd5b61393e8a838b01613840565b9450608089013591508082111561395457600080fd5b6139608a838b01613840565b935060a089013591508082111561397657600080fd5b5061398389828a016137cc565b9150509295509295509295565b600080604083850312156139a357600080fd5b82356139ae81613544565b9150602083013561368d81613544565b60008060008060008060c087890312156139d757600080fd5b86359550602087013594506040870135935060608701356139f781613544565b92506080870135613a0781613544565b915060a0870135613a1781613544565b809150509295509295509295565b7f4e487b7100000000000000000000000000000000000000000000000000000000600052601160045260246000fd5b600082821015613a6657613a66613a25565b500390565b60008219821115613a7e57613a7e613a25565b500190565b600060208284031215613a9557600080fd5b815161298181613698565b7f4e487b7100000000000000000000000000000000000000000000000000000000600052603260045260246000fd5b7f4e487b7100000000000000000000000000000000000000000000000000000000600052603160045260246000fd5b60007fffffffffffffffffffffffffffffffffffffffffffffffffffffffffffffffff821415613b3057613b30613a25565b5060010190565b600082613b6d577f4e487b7100000000000000000000000000000000000000000000000000000000600052601260045260246000fd5b500490565b80516129eb81613544565b60006101208284031215613b9057600080fd5b613b9861372f565b613ba183613b72565b81526020830151602082015260408301516040820152606083015160608201526080830151608082015260a083015160a082015260c083015160c082015260e083015160e08201526101008084015181830152508091505092915050565b600060208284031215613c1157600080fd5b5051919050565b60005b83811015613c33578181015183820152602001613c1b565b83811115613c42576000848401525b50505050565b7f416363657373436f6e74726f6c3a206163636f756e7420000000000000000000815260008351613c80816017850160208801613c18565b7f206973206d697373696e6720726f6c65200000000000000000000000000000006017918401918201528351613cbd816028840160208801613c18565b01602801949350505050565b6020815260008251806020840152613ce8816040850160208701613c18565b601f017fffffffffffffffffffffffffffffffffffffffffffffffffffffffffffffffe0169190910160400192915050565b6000817fffffffffffffffffffffffffffffffffffffffffffffffffffffffffffffffff0483118215151615613d5257613d52613a25565b500290565b600081613d6657613d66613a25565b507fffffffffffffffffffffffffffffffffffffffffffffffffffffffffffffffff0190565b60008251613d9e818460208701613c18565b919091019291505056fea2646970667358221220722c248f8ea2525d2e8ada7bd6241a5be5c268216d5cf4037b56ff8120c7874564736f6c634300080b0033",
  "linkReferences": {},
  "deployedLinkReferences": {}
}